{
  "_format": "hh-sol-artifact-1",
  "contractName": "DiceRoller",
  "sourceName": "contracts/DiceRoller.sol",
  "abi": [
    {
      "inputs": [
        {
          "internalType": "uint256",
          "name": "roundId",
          "type": "uint256"
        }
      ],
      "name": "AlreadyFulfilled",
      "type": "error"
    },
    {
      "inputs": [
        {
          "internalType": "uint256",
          "name": "roundId",
          "type": "uint256"
        }
      ],
      "name": "AlreadyRequested",
      "type": "error"
    },
    {
      "inputs": [],
      "name": "InvalidRandomness",
      "type": "error"
    },
    {
      "inputs": [],
      "name": "Unauthorized",
      "type": "error"
    },
    {
      "anonymous": false,
      "inputs": [
        {
          "indexed": true,
          "internalType": "uint256",
          "name": "roundId",
          "type": "uint256"
        },
        {
          "indexed": false,
          "internalType": "string",
          "name": "gameId",
          "type": "string"
        },
        {
          "indexed": false,
          "internalType": "bytes32",
          "name": "requestId",
          "type": "bytes32"
        },
        {
          "indexed": false,
          "internalType": "address",
          "name": "requester",
          "type": "address"
        }
      ],
      "name": "DiceRequested",
      "type": "event"
    },
    {
      "anonymous": false,
      "inputs": [
        {
          "indexed": true,
          "internalType": "uint256",
          "name": "roundId",
          "type": "uint256"
        },
        {
          "indexed": false,
          "internalType": "string",
          "name": "gameId",
          "type": "string"
        },
        {
          "indexed": false,
          "internalType": "uint8",
          "name": "result",
          "type": "uint8"
        },
        {
          "indexed": false,
          "internalType": "uint256",
          "name": "randomness",
          "type": "uint256"
        }
      ],
      "name": "DiceRolled",
      "type": "event"
    },
    {
      "inputs": [],
      "name": "SWITCHBOARD",
      "outputs": [
        {
          "internalType": "address",
          "name": "",
          "type": "address"
        }
      ],
      "stateMutability": "view",
      "type": "function"
    },
    {
      "inputs": [
        {
          "internalType": "uint256",
          "name": "",
          "type": "uint256"
        }
      ],
      "name": "diceResults",
      "outputs": [
        {
          "internalType": "uint8",
          "name": "",
          "type": "uint8"
        }
      ],
      "stateMutability": "view",
      "type": "function"
    },
    {
      "inputs": [
        {
          "internalType": "uint256",
          "name": "roundId",
          "type": "uint256"
        }
      ],
      "name": "getDiceStatus",
      "outputs": [
        {
          "internalType": "bool",
          "name": "requested",
          "type": "bool"
        },
        {
          "internalType": "bool",
          "name": "fulfilled",
          "type": "bool"
        },
        {
          "internalType": "uint8",
          "name": "result",
          "type": "uint8"
        }
      ],
      "stateMutability": "view",
      "type": "function"
    },
    {
      "inputs": [
        {
          "internalType": "uint256",
          "name": "roundId",
          "type": "uint256"
        },
        {
          "internalType": "string",
          "name": "gameId",
          "type": "string"
        }
      ],
      "name": "requestDiceRoll",
      "outputs": [],
      "stateMutability": "nonpayable",
      "type": "function"
    },
    {
      "inputs": [
        {
          "internalType": "bytes32",
          "name": "",
          "type": "bytes32"
        }
      ],
      "name": "requests",
      "outputs": [
        {
          "internalType": "uint256",
          "name": "roundId",
          "type": "uint256"
        },
        {
          "internalType": "string",
          "name": "gameId",
          "type": "string"
        },
        {
          "internalType": "bool",
          "name": "fulfilled",
          "type": "bool"
        }
      ],
      "stateMutability": "view",
      "type": "function"
    },
    {
      "inputs": [
        {
          "internalType": "uint256",
          "name": "",
          "type": "uint256"
        }
      ],
      "name": "roundRequested",
      "outputs": [
        {
          "internalType": "bool",
          "name": "",
          "type": "bool"
        }
      ],
      "stateMutability": "view",
      "type": "function"
    },
    {
      "inputs": [
        {
          "internalType": "bytes",
          "name": "proof",
          "type": "bytes"
        },
        {
          "internalType": "bytes32",
          "name": "requestId",
          "type": "bytes32"
        }
      ],
      "name": "settleAndFulfill",
      "outputs": [],
      "stateMutability": "payable",
      "type": "function"
    }
  ],
  "bytecode": "0x608060405234801561001057600080fd5b50611637806100206000396000f3fe6080604052600436106100705760003560e01c8063365c123d1161004e578063365c123d1461010857806342e568da1461014557806359ed054d146101825780639d8669851461019e57610070565b80631ca7e346146100755780632537958c1461009e5780632fd140ee146100dd575b600080fd5b34801561008157600080fd5b5061009c60048036038101906100979190610974565b6101dd565b005b3480156100aa57600080fd5b506100c560048036038101906100c091906109d4565b610496565b6040516100d493929190610a38565b60405180910390f35b3480156100e957600080fd5b506100f26104f2565b6040516100ff9190610ab0565b60405180910390f35b34801561011457600080fd5b5061012f600480360381019061012a91906109d4565b61050a565b60405161013c9190610acb565b60405180910390f35b34801561015157600080fd5b5061016c600480360381019061016791906109d4565b61052a565b6040516101799190610ae6565b60405180910390f35b61019c60048036038101906101979190610b8d565b61054a565b005b3480156101aa57600080fd5b506101c560048036038101906101c09190610bed565b610806565b6040516101d493929190610cb9565b60405180910390f35b6002600084815260200190815260200160002060009054906101000a900460ff161561024057826040517fa6461ae60000000000000000000000000000000000000000000000000000000081526004016102379190610cf7565b60405180910390fd5b60006001600085815260200190815260200160002060009054906101000a900460ff1660ff16146102a857826040517fdd6ac7a600000000000000000000000000000000000000000000000000000000815260040161029f9190610cf7565b60405180910390fd5b600083838342336040516020016102c3959493929190610dba565b60405160208183030381529060405280519060200120905073b7f03eee7b9f56347e32cc71dad65b303d5a0e6773ffffffffffffffffffffffffffffffffffffffff16635da4541c8260006040518363ffffffff1660e01b815260040161032b929190610e6e565b6020604051808303816000875af115801561034a573d6000803e3d6000fd5b505050506040513d601f19601f8201168201806040525081019061036e9190610ec3565b50604051806060016040528085815260200184848080601f016020809104026020016040519081016040528093929190818152602001838380828437600081840152601f19601f820116905080830192505050505050508152602001600015158152506000808381526020019081526020016000206000820151816000015560208201518160010190816104029190611121565b5060408201518160020160006101000a81548160ff02191690831515021790555090505060016002600086815260200190815260200160002060006101000a81548160ff021916908315150217905550837f920b0e4838a3db1d79b8af2abb5e087b8fbf22a1d55f7c5bb2b68d0e8e9c23ee848484336040516104889493929190611220565b60405180910390a250505050565b60008060006002600085815260200190815260200160002060009054906101000a900460ff1692506001600085815260200190815260200160002060009054906101000a900460ff16905060008160ff16141591509193909250565b73b7f03eee7b9f56347e32cc71dad65b303d5a0e6781565b60026020528060005260406000206000915054906101000a900460ff1681565b60016020528060005260406000206000915054906101000a900460ff1681565b60008060008381526020019081526020016000209050600081600001540361059e576040517f82b4290000000000000000000000000000000000000000000000000000000000815260040160405180910390fd5b8060020160009054906101000a900460ff16156105f65780600001546040517fdd6ac7a60000000000000000000000000000000000000000000000000000000081526004016105ed9190610cf7565b60405180910390fd5b73b7f03eee7b9f56347e32cc71dad65b303d5a0e6773ffffffffffffffffffffffffffffffffffffffff16633065b55e3486866040518463ffffffff1660e01b815260040161064692919061129e565b6000604051808303818588803b15801561065f57600080fd5b505af1158015610673573d6000803e3d6000fd5b5050505050600073b7f03eee7b9f56347e32cc71dad65b303d5a0e6773ffffffffffffffffffffffffffffffffffffffff166305b19402846040518263ffffffff1660e01b81526004016106c791906112c2565b61010060405180830381865afa1580156106e5573d6000803e3d6000fd5b505050506040513d601f19601f82011682018060405250810190610709919061144e565b905060008160e0015103610749576040517fff0b7a1700000000000000000000000000000000000000000000000000000000815260040160405180910390fd5b6000600160038360c0015161075e91906114ab565b610768919061150b565b905080600160008560000154815260200190815260200160002060006101000a81548160ff021916908360ff16021790555060018360020160006101000a81548160ff02191690831515021790555082600001547f58210cc71454673d56532cdb98a421704725067e2f4786b710d5a4666131609984600101838560c001516040516107f6939291906115c3565b60405180910390a2505050505050565b600060205280600052604060002060009150905080600001549080600101805461082f90610f4e565b80601f016020809104026020016040519081016040528092919081815260200182805461085b90610f4e565b80156108a85780601f1061087d576101008083540402835291602001916108a8565b820191906000526020600020905b81548152906001019060200180831161088b57829003601f168201915b5050505050908060020160009054906101000a900460ff16905083565b6000604051905090565b600080fd5b600080fd5b6000819050919050565b6108ec816108d9565b81146108f757600080fd5b50565b600081359050610909816108e3565b92915050565b600080fd5b600080fd5b600080fd5b60008083601f8401126109345761093361090f565b5b8235905067ffffffffffffffff81111561095157610950610914565b5b60208301915083600182028301111561096d5761096c610919565b5b9250929050565b60008060006040848603121561098d5761098c6108cf565b5b600061099b868287016108fa565b935050602084013567ffffffffffffffff8111156109bc576109bb6108d4565b5b6109c88682870161091e565b92509250509250925092565b6000602082840312156109ea576109e96108cf565b5b60006109f8848285016108fa565b91505092915050565b60008115159050919050565b610a1681610a01565b82525050565b600060ff82169050919050565b610a3281610a1c565b82525050565b6000606082019050610a4d6000830186610a0d565b610a5a6020830185610a0d565b610a676040830184610a29565b949350505050565b600073ffffffffffffffffffffffffffffffffffffffff82169050919050565b6000610a9a82610a6f565b9050919050565b610aaa81610a8f565b82525050565b6000602082019050610ac56000830184610aa1565b92915050565b6000602082019050610ae06000830184610a0d565b92915050565b6000602082019050610afb6000830184610a29565b92915050565b60008083601f840112610b1757610b1661090f565b5b8235905067ffffffffffffffff811115610b3457610b33610914565b5b602083019150836001820283011115610b5057610b4f610919565b5b9250929050565b6000819050919050565b610b6a81610b57565b8114610b7557600080fd5b50565b600081359050610b8781610b61565b92915050565b600080600060408486031215610ba657610ba56108cf565b5b600084013567ffffffffffffffff811115610bc457610bc36108d4565b5b610bd086828701610b01565b93509350506020610be386828701610b78565b9150509250925092565b600060208284031215610c0357610c026108cf565b5b6000610c1184828501610b78565b91505092915050565b610c23816108d9565b82525050565b600081519050919050565b600082825260208201905092915050565b60005b83811015610c63578082015181840152602081019050610c48565b60008484015250505050565b6000601f19601f8301169050919050565b6000610c8b82610c29565b610c958185610c34565b9350610ca5818560208601610c45565b610cae81610c6f565b840191505092915050565b6000606082019050610cce6000830186610c1a565b8181036020830152610ce08185610c80565b9050610cef6040830184610a0d565b949350505050565b6000602082019050610d0c6000830184610c1a565b92915050565b6000819050919050565b610d2d610d28826108d9565b610d12565b82525050565b600081905092915050565b82818337600083830152505050565b6000610d598385610d33565b9350610d66838584610d3e565b82840190509392505050565b60008160601b9050919050565b6000610d8a82610d72565b9050919050565b6000610d9c82610d7f565b9050919050565b610db4610daf82610a8f565b610d91565b82525050565b6000610dc68288610d1c565b602082019150610dd7828688610d4d565b9150610de38285610d1c565b602082019150610df38284610da3565b6014820191508190509695505050505050565b610e0f81610b57565b82525050565b6000819050919050565b600067ffffffffffffffff82169050919050565b6000819050919050565b6000610e58610e53610e4e84610e15565b610e33565b610e1f565b9050919050565b610e6881610e3d565b82525050565b6000604082019050610e836000830185610e06565b610e906020830184610e5f565b9392505050565b610ea081610a8f565b8114610eab57600080fd5b50565b600081519050610ebd81610e97565b92915050565b600060208284031215610ed957610ed86108cf565b5b6000610ee784828501610eae565b91505092915050565b7f4e487b7100000000000000000000000000000000000000000000000000000000600052604160045260246000fd5b7f4e487b7100000000000000000000000000000000000000000000000000000000600052602260045260246000fd5b60006002820490506001821680610f6657607f821691505b602082108103610f7957610f78610f1f565b5b50919050565b60008190508160005260206000209050919050565b60006020601f8301049050919050565b600082821b905092915050565b600060088302610fe17fffffffffffffffffffffffffffffffffffffffffffffffffffffffffffffffff82610fa4565b610feb8683610fa4565b95508019841693508086168417925050509392505050565b600061101e611019611014846108d9565b610e33565b6108d9565b9050919050565b6000819050919050565b61103883611003565b61104c61104482611025565b848454610fb1565b825550505050565b600090565b611061611054565b61106c81848461102f565b505050565b5b8181101561109057611085600082611059565b600181019050611072565b5050565b601f8211156110d5576110a681610f7f565b6110af84610f94565b810160208510156110be578190505b6110d26110ca85610f94565b830182611071565b50505b505050565b600082821c905092915050565b60006110f8600019846008026110da565b1980831691505092915050565b600061111183836110e7565b9150826002028217905092915050565b61112a82610c29565b67ffffffffffffffff81111561114357611142610ef0565b5b61114d8254610f4e565b611158828285611094565b600060209050601f83116001811461118b5760008415611179578287015190505b6111838582611105565b8655506111eb565b601f19841661119986610f7f565b60005b828110156111c15784890151825560018201915060208501945060208101905061119c565b868310156111de57848901516111da601f8916826110e7565b8355505b6001600288020188555050505b505050505050565b60006111ff8385610c34565b935061120c838584610d3e565b61121583610c6f565b840190509392505050565b6000606082019050818103600083015261123b8186886111f3565b905061124a6020830185610e06565b6112576040830184610aa1565b95945050505050565b600082825260208201905092915050565b600061127d8385611260565b935061128a838584610d3e565b61129383610c6f565b840190509392505050565b600060208201905081810360008301526112b9818486611271565b90509392505050565b60006020820190506112d76000830184610e06565b92915050565b600080fd5b6112eb82610c6f565b810181811067ffffffffffffffff8211171561130a57611309610ef0565b5b80604052505050565b600061131d6108c5565b905061132982826112e2565b919050565b60008151905061133d81610b61565b92915050565b600081519050611352816108e3565b92915050565b61136181610e1f565b811461136c57600080fd5b50565b60008151905061137e81611358565b92915050565b6000610100828403121561139b5761139a6112dd565b5b6113a6610100611313565b905060006113b68482850161132e565b60008301525060206113ca84828501611343565b60208301525060406113de84828501610eae565b60408301525060606113f284828501611343565b60608301525060806114068482850161136f565b60808301525060a061141a84828501610eae565b60a08301525060c061142e84828501611343565b60c08301525060e061144284828501611343565b60e08301525092915050565b60006101008284031215611465576114646108cf565b5b600061147384828501611384565b91505092915050565b7f4e487b7100000000000000000000000000000000000000000000000000000000600052601260045260246000fd5b60006114b6826108d9565b91506114c1836108d9565b9250826114d1576114d061147c565b5b828206905092915050565b7f4e487b7100000000000000000000000000000000000000000000000000000000600052601160045260246000fd5b6000611516826108d9565b9150611521836108d9565b9250828201905080821115611539576115386114dc565b5b92915050565b6000815461154c81610f4e565b6115568186610c34565b945060018216600081146115715760018114611587576115ba565b60ff1983168652811515602002860193506115ba565b61159085610f7f565b60005b838110156115b257815481890152600182019150602081019050611593565b808801955050505b50505092915050565b600060608201905081810360008301526115dd818661153f565b90506115ec6020830185610a29565b6115f96040830184610c1a565b94935050505056fea2646970667358221220fe9fddc0d96c6114cdad64d4806f376efd83f813d70cb95bad5cc3371d7a1e1c64736f6c63430008180033",
  "linkReferences": {},
  "deployedLinkReferences": {}
}