{
  "_format": "hh-sol-artifact-1",
  "contractName": "DiceRoller",
  "sourceName": "contracts/DiceRoller.sol",
  "abi": [
    {
      "inputs": [
        {
          "internalType": "address",
          "name": "_entropy",
          "type": "address"
        },
        {
          "internalType": "address",
          "name": "_entropyProvider",
          "type": "address"
        }
      ],
      "stateMutability": "nonpayable",
      "type": "constructor"
    },
    {
      "inputs": [
        {
          "internalType": "uint256",
          "name": "roundId",
          "type": "uint256"
        }
      ],
      "name": "AlreadyFulfilled",
      "type": "error"
    },
    {
      "inputs": [
        {
          "internalType": "uint128",
          "name": "required",
          "type": "uint128"
        },
        {
          "internalType": "uint256",
          "name": "provided",
          "type": "uint256"
        }
      ],
      "name": "InsufficientFee",
      "type": "error"
    },
    {
      "inputs": [],
      "name": "InvalidRandomness",
      "type": "error"
    },
    {
      "inputs": [],
      "name": "Unauthorized",
      "type": "error"
    },
    {
      "anonymous": false,
      "inputs": [
        {
          "indexed": true,
          "internalType": "uint256",
          "name": "roundId",
          "type": "uint256"
        },
        {
          "indexed": false,
          "internalType": "uint64",
          "name": "sequenceNumber",
          "type": "uint64"
        },
        {
          "indexed": false,
          "internalType": "address",
          "name": "requester",
          "type": "address"
        }
      ],
      "name": "DiceRequested",
      "type": "event"
    },
    {
      "anonymous": false,
      "inputs": [
        {
          "indexed": true,
          "internalType": "uint256",
          "name": "roundId",
          "type": "uint256"
        },
        {
          "indexed": false,
          "internalType": "uint8",
          "name": "result",
          "type": "uint8"
        },
        {
          "indexed": false,
          "internalType": "uint256",
          "name": "randomness",
          "type": "uint256"
        }
      ],
      "name": "DiceRolled",
      "type": "event"
    },
    {
      "inputs": [
        {
          "internalType": "uint64",
          "name": "sequence",
          "type": "uint64"
        },
        {
          "internalType": "address",
          "name": "provider",
          "type": "address"
        },
        {
          "internalType": "bytes32",
          "name": "randomNumber",
          "type": "bytes32"
        }
      ],
      "name": "_entropyCallback",
      "outputs": [],
      "stateMutability": "nonpayable",
      "type": "function"
    },
    {
      "inputs": [
        {
          "internalType": "uint256",
          "name": "",
          "type": "uint256"
        }
      ],
      "name": "diceResults",
      "outputs": [
        {
          "internalType": "uint8",
          "name": "",
          "type": "uint8"
        }
      ],
      "stateMutability": "view",
      "type": "function"
    },
    {
      "inputs": [],
      "name": "entropy",
      "outputs": [
        {
          "internalType": "contract IEntropy",
          "name": "",
          "type": "address"
        }
      ],
      "stateMutability": "view",
      "type": "function"
    },
    {
      "inputs": [],
      "name": "entropyProvider",
      "outputs": [
        {
          "internalType": "address",
          "name": "",
          "type": "address"
        }
      ],
      "stateMutability": "view",
      "type": "function"
    },
    {
      "inputs": [
        {
          "internalType": "uint256",
          "name": "roundId",
          "type": "uint256"
        }
      ],
      "name": "getDiceResult",
      "outputs": [
        {
          "internalType": "bool",
          "name": "isFulfilled",
          "type": "bool"
        },
        {
          "internalType": "uint8",
          "name": "result",
          "type": "uint8"
        }
      ],
      "stateMutability": "view",
      "type": "function"
    },
    {
      "inputs": [],
      "name": "getFee",
      "outputs": [
        {
          "internalType": "uint128",
          "name": "",
          "type": "uint128"
        }
      ],
      "stateMutability": "view",
      "type": "function"
    },
    {
      "inputs": [
        {
          "internalType": "uint256",
          "name": "roundId",
          "type": "uint256"
        },
        {
          "internalType": "bytes32",
          "name": "userCommitment",
          "type": "bytes32"
        }
      ],
      "name": "requestDiceRoll",
      "outputs": [],
      "stateMutability": "payable",
      "type": "function"
    },
    {
      "inputs": [
        {
          "internalType": "uint256",
          "name": "",
          "type": "uint256"
        }
      ],
      "name": "roundToSequence",
      "outputs": [
        {
          "internalType": "uint64",
          "name": "",
          "type": "uint64"
        }
      ],
      "stateMutability": "view",
      "type": "function"
    },
    {
      "inputs": [
        {
          "internalType": "uint64",
          "name": "",
          "type": "uint64"
        }
      ],
      "name": "sequenceToRound",
      "outputs": [
        {
          "internalType": "uint256",
          "name": "",
          "type": "uint256"
        }
      ],
      "stateMutability": "view",
      "type": "function"
    }
  ],
  "bytecode": "0x60c06040523480156200001157600080fd5b50604051620011a1380380620011a1833981810160405281019062000037919062000111565b8173ffffffffffffffffffffffffffffffffffffffff1660808173ffffffffffffffffffffffffffffffffffffffff16815250508073ffffffffffffffffffffffffffffffffffffffff1660a08173ffffffffffffffffffffffffffffffffffffffff1681525050505062000158565b600080fd5b600073ffffffffffffffffffffffffffffffffffffffff82169050919050565b6000620000d982620000ac565b9050919050565b620000eb81620000cc565b8114620000f757600080fd5b50565b6000815190506200010b81620000e0565b92915050565b600080604083850312156200012b576200012a620000a7565b5b60006200013b85828601620000fa565b92505060206200014e85828601620000fa565b9150509250929050565b60805160a051611000620001a1600039600081816103860152818161040001526105c7015260008181610268015281816103c40152818161057801526107a601526110006000f3fe6080604052600436106100865760003560e01c806361613897116100595780636161389714610147578063ced72f8714610184578063d5efad3f146101af578063e23acc2f146101ec578063e3f60a671461020857610086565b806342e568da1461008b57806347ce07cc146100c857806352a5f1f8146100f35780635bf414ac1461011c575b600080fd5b34801561009757600080fd5b506100b260048036038101906100ad91906108fc565b610246565b6040516100bf9190610945565b60405180910390f35b3480156100d457600080fd5b506100dd610266565b6040516100ea91906109df565b60405180910390f35b3480156100ff57600080fd5b5061011a60048036038101906101159190610aae565b61028a565b005b34801561012857600080fd5b50610131610384565b60405161013e9190610b10565b60405180910390f35b34801561015357600080fd5b5061016e60048036038101906101699190610b2b565b6103a8565b60405161017b9190610b67565b60405180910390f35b34801561019057600080fd5b506101996103c0565b6040516101a69190610bad565b60405180910390f35b3480156101bb57600080fd5b506101d660048036038101906101d191906108fc565b610481565b6040516101e39190610bd7565b60405180910390f35b61020660048036038101906102019190610bf2565b6104a8565b005b34801561021457600080fd5b5061022f600480360381019061022a91906108fc565b61076e565b60405161023d929190610c4d565b60405180910390f35b60006020528060005260406000206000915054906101000a900460ff1681565b7f000000000000000000000000000000000000000000000000000000000000000081565b60006102946107a2565b9050600073ffffffffffffffffffffffffffffffffffffffff168173ffffffffffffffffffffffffffffffffffffffff1603610305576040517f08c379a00000000000000000000000000000000000000000000000000000000081526004016102fc90610cd3565b60405180910390fd5b8073ffffffffffffffffffffffffffffffffffffffff163373ffffffffffffffffffffffffffffffffffffffff1614610373576040517f08c379a000000000000000000000000000000000000000000000000000000000815260040161036a90610d65565b60405180910390fd5b61037e8484846107ca565b50505050565b7f000000000000000000000000000000000000000000000000000000000000000081565b60026020528060005260406000206000915090505481565b60007f000000000000000000000000000000000000000000000000000000000000000073ffffffffffffffffffffffffffffffffffffffff1663b88c91487f00000000000000000000000000000000000000000000000000000000000000006040518263ffffffff1660e01b815260040161043b9190610b10565b602060405180830381865afa158015610458573d6000803e3d6000fd5b505050506040513d601f19601f8201168201806040525081019061047c9190610db1565b905090565b60016020528060005260406000206000915054906101000a900467ffffffffffffffff1681565b600080600084815260200190815260200160002060009054906101000a900460ff1660ff161461050f57816040517fdd6ac7a60000000000000000000000000000000000000000000000000000000081526004016105069190610b67565b60405180910390fd5b60006105196103c0565b9050806fffffffffffffffffffffffffffffffff163410156105745780346040517f7648789500000000000000000000000000000000000000000000000000000000815260040161056b929190610dde565b60405180910390fd5b60007f000000000000000000000000000000000000000000000000000000000000000073ffffffffffffffffffffffffffffffffffffffff166319cb825f836fffffffffffffffffffffffffffffffff167f0000000000000000000000000000000000000000000000000000000000000000866040518463ffffffff1660e01b8152600401610604929190610e16565b60206040518083038185885af1158015610622573d6000803e3d6000fd5b50505050506040513d601f19601f820116820180604052508101906106479190610e54565b9050806001600086815260200190815260200160002060006101000a81548167ffffffffffffffff021916908367ffffffffffffffff16021790555083600260008367ffffffffffffffff1667ffffffffffffffff16815260200190815260200160002081905550837ffc6e68bf4aeb501c616411ca4648e206f66a38dbb44778bb64ffa7dd3d00d10482336040516106e1929190610e81565b60405180910390a2816fffffffffffffffffffffffffffffffff16341115610768573373ffffffffffffffffffffffffffffffffffffffff166108fc836fffffffffffffffffffffffffffffffff163461073b9190610ed9565b9081150290604051600060405180830381858888f19350505050158015610766573d6000803e3d6000fd5b505b50505050565b60008060008084815260200190815260200160002060009054906101000a900460ff16905060008160ff1614159150915091565b60007f0000000000000000000000000000000000000000000000000000000000000000905090565b6000600260008567ffffffffffffffff1667ffffffffffffffff1681526020019081526020016000205490506000801b8203610832576040517fff0b7a1700000000000000000000000000000000000000000000000000000000815260040160405180910390fd5b6000600160038460001c6108469190610f3c565b6108509190610f6d565b90508060008084815260200190815260200160002060006101000a81548160ff021916908360ff160217905550817fe5584beec352cc20636d233f1215e6b2a2700dedb802cb210fdb129de7e942bb828560001c6040516108b2929190610fa1565b60405180910390a25050505050565b600080fd5b6000819050919050565b6108d9816108c6565b81146108e457600080fd5b50565b6000813590506108f6816108d0565b92915050565b600060208284031215610912576109116108c1565b5b6000610920848285016108e7565b91505092915050565b600060ff82169050919050565b61093f81610929565b82525050565b600060208201905061095a6000830184610936565b92915050565b600073ffffffffffffffffffffffffffffffffffffffff82169050919050565b6000819050919050565b60006109a56109a061099b84610960565b610980565b610960565b9050919050565b60006109b78261098a565b9050919050565b60006109c9826109ac565b9050919050565b6109d9816109be565b82525050565b60006020820190506109f460008301846109d0565b92915050565b600067ffffffffffffffff82169050919050565b610a17816109fa565b8114610a2257600080fd5b50565b600081359050610a3481610a0e565b92915050565b6000610a4582610960565b9050919050565b610a5581610a3a565b8114610a6057600080fd5b50565b600081359050610a7281610a4c565b92915050565b6000819050919050565b610a8b81610a78565b8114610a9657600080fd5b50565b600081359050610aa881610a82565b92915050565b600080600060608486031215610ac757610ac66108c1565b5b6000610ad586828701610a25565b9350506020610ae686828701610a63565b9250506040610af786828701610a99565b9150509250925092565b610b0a81610a3a565b82525050565b6000602082019050610b256000830184610b01565b92915050565b600060208284031215610b4157610b406108c1565b5b6000610b4f84828501610a25565b91505092915050565b610b61816108c6565b82525050565b6000602082019050610b7c6000830184610b58565b92915050565b60006fffffffffffffffffffffffffffffffff82169050919050565b610ba781610b82565b82525050565b6000602082019050610bc26000830184610b9e565b92915050565b610bd1816109fa565b82525050565b6000602082019050610bec6000830184610bc8565b92915050565b60008060408385031215610c0957610c086108c1565b5b6000610c17858286016108e7565b9250506020610c2885828601610a99565b9150509250929050565b60008115159050919050565b610c4781610c32565b82525050565b6000604082019050610c626000830185610c3e565b610c6f6020830184610936565b9392505050565b600082825260208201905092915050565b7f456e74726f70792061646472657373206e6f7420736574000000000000000000600082015250565b6000610cbd601783610c76565b9150610cc882610c87565b602082019050919050565b60006020820190508181036000830152610cec81610cb0565b9050919050565b7f4f6e6c7920456e74726f70792063616e2063616c6c20746869732066756e637460008201527f696f6e0000000000000000000000000000000000000000000000000000000000602082015250565b6000610d4f602383610c76565b9150610d5a82610cf3565b604082019050919050565b60006020820190508181036000830152610d7e81610d42565b9050919050565b610d8e81610b82565b8114610d9957600080fd5b50565b600081519050610dab81610d85565b92915050565b600060208284031215610dc757610dc66108c1565b5b6000610dd584828501610d9c565b91505092915050565b6000604082019050610df36000830185610b9e565b610e006020830184610b58565b9392505050565b610e1081610a78565b82525050565b6000604082019050610e2b6000830185610b01565b610e386020830184610e07565b9392505050565b600081519050610e4e81610a0e565b92915050565b600060208284031215610e6a57610e696108c1565b5b6000610e7884828501610e3f565b91505092915050565b6000604082019050610e966000830185610bc8565b610ea36020830184610b01565b9392505050565b7f4e487b7100000000000000000000000000000000000000000000000000000000600052601160045260246000fd5b6000610ee4826108c6565b9150610eef836108c6565b9250828203905081811115610f0757610f06610eaa565b5b92915050565b7f4e487b7100000000000000000000000000000000000000000000000000000000600052601260045260246000fd5b6000610f47826108c6565b9150610f52836108c6565b925082610f6257610f61610f0d565b5b828206905092915050565b6000610f78826108c6565b9150610f83836108c6565b9250828201905080821115610f9b57610f9a610eaa565b5b92915050565b6000604082019050610fb66000830185610936565b610fc36020830184610b58565b939250505056fea26469706673582212200e2c7d9918679a8637f5fac6b23cd30b623963f64ad76be66eb5e3b8ebe5afd764736f6c63430008180033",
  "linkReferences": {},
  "deployedLinkReferences": {}
}