{
  "_format": "hh-sol-artifact-1",
  "contractName": "DiceRoller",
  "sourceName": "contracts/DiceRoller.sol",
  "abi": [
    {
      "inputs": [
        {
          "internalType": "address",
          "name": "_switchboard",
          "type": "address"
        },
        {
          "internalType": "bytes32",
          "name": "_queueId",
          "type": "bytes32"
        }
      ],
      "stateMutability": "nonpayable",
      "type": "constructor"
    },
    {
      "inputs": [],
      "name": "InvalidRoundId",
      "type": "error"
    },
    {
      "inputs": [],
      "name": "NotOwner",
      "type": "error"
    },
    {
      "inputs": [],
      "name": "RequestAlreadyPending",
      "type": "error"
    },
    {
      "inputs": [],
      "name": "RoundAlreadyRolled",
      "type": "error"
    },
    {
      "inputs": [],
      "name": "SwitchboardCallbackCallerNotSwitchboard",
      "type": "error"
    },
    {
      "anonymous": false,
      "inputs": [
        {
          "indexed": true,
          "internalType": "uint256",
          "name": "roundId",
          "type": "uint256"
        },
        {
          "indexed": false,
          "internalType": "bytes32",
          "name": "randomnessId",
          "type": "bytes32"
        }
      ],
      "name": "DiceRequested",
      "type": "event"
    },
    {
      "anonymous": false,
      "inputs": [
        {
          "indexed": true,
          "internalType": "uint256",
          "name": "roundId",
          "type": "uint256"
        },
        {
          "indexed": false,
          "internalType": "uint8",
          "name": "result",
          "type": "uint8"
        }
      ],
      "name": "DiceRolled",
      "type": "event"
    },
    {
      "inputs": [
        {
          "internalType": "uint256",
          "name": "roundId",
          "type": "uint256"
        }
      ],
      "name": "isRoundComplete",
      "outputs": [
        {
          "internalType": "bool",
          "name": "",
          "type": "bool"
        }
      ],
      "stateMutability": "view",
      "type": "function"
    },
    {
      "inputs": [],
      "name": "owner",
      "outputs": [
        {
          "internalType": "address",
          "name": "",
          "type": "address"
        }
      ],
      "stateMutability": "view",
      "type": "function"
    },
    {
      "inputs": [],
      "name": "queueId",
      "outputs": [
        {
          "internalType": "bytes32",
          "name": "",
          "type": "bytes32"
        }
      ],
      "stateMutability": "view",
      "type": "function"
    },
    {
      "inputs": [
        {
          "internalType": "bytes32",
          "name": "",
          "type": "bytes32"
        }
      ],
      "name": "randomnessIdToRound",
      "outputs": [
        {
          "internalType": "uint256",
          "name": "",
          "type": "uint256"
        }
      ],
      "stateMutability": "view",
      "type": "function"
    },
    {
      "inputs": [
        {
          "internalType": "uint256",
          "name": "roundId",
          "type": "uint256"
        }
      ],
      "name": "requestDiceRoll",
      "outputs": [
        {
          "internalType": "bytes32",
          "name": "",
          "type": "bytes32"
        }
      ],
      "stateMutability": "nonpayable",
      "type": "function"
    },
    {
      "inputs": [
        {
          "internalType": "uint256",
          "name": "",
          "type": "uint256"
        }
      ],
      "name": "roundComplete",
      "outputs": [
        {
          "internalType": "bool",
          "name": "",
          "type": "bool"
        }
      ],
      "stateMutability": "view",
      "type": "function"
    },
    {
      "inputs": [
        {
          "internalType": "uint256",
          "name": "",
          "type": "uint256"
        }
      ],
      "name": "roundResult",
      "outputs": [
        {
          "internalType": "uint8",
          "name": "",
          "type": "uint8"
        }
      ],
      "stateMutability": "view",
      "type": "function"
    },
    {
      "inputs": [],
      "name": "switchboard",
      "outputs": [
        {
          "internalType": "contract ISwitchboard",
          "name": "",
          "type": "address"
        }
      ],
      "stateMutability": "view",
      "type": "function"
    },
    {
      "inputs": [
        {
          "internalType": "bytes32",
          "name": "randomnessId",
          "type": "bytes32"
        },
        {
          "internalType": "uint256[]",
          "name": "randomness",
          "type": "uint256[]"
        }
      ],
      "name": "switchboardCallback",
      "outputs": [],
      "stateMutability": "nonpayable",
      "type": "function"
    }
  ],
  "bytecode": "0x60a06040523480156200001157600080fd5b5060405162000ee138038062000ee1833981810160405281019062000037919062000161565b818073ffffffffffffffffffffffffffffffffffffffff1660808173ffffffffffffffffffffffffffffffffffffffff168152505050336000806101000a81548173ffffffffffffffffffffffffffffffffffffffff021916908373ffffffffffffffffffffffffffffffffffffffff160217905550806001819055505050620001a8565b600080fd5b600073ffffffffffffffffffffffffffffffffffffffff82169050919050565b6000620000ee82620000c1565b9050919050565b6200010081620000e1565b81146200010c57600080fd5b50565b6000815190506200012081620000f5565b92915050565b6000819050919050565b6200013b8162000126565b81146200014757600080fd5b50565b6000815190506200015b8162000130565b92915050565b600080604083850312156200017b576200017a620000bc565b5b60006200018b858286016200010f565b92505060206200019e858286016200014a565b9150509250929050565b608051610d0f620001d26000396000818161022a0152818161036801526105070152610d0f6000f3fe608060405234801561001057600080fd5b50600436106100935760003560e01c806352fb5f961161006657806352fb5f961461014657806362638cf4146101765780638da5cb5b14610194578063ac7b49eb146101b2578063c1f0c7ac146101e257610093565b806311cdbddf1461009857806318ccf099146100c85780632bed99a3146100e65780634e7de8d214610116575b600080fd5b6100b260048036038101906100ad919061071a565b6101fe565b6040516100bf9190610762565b60405180910390f35b6100d0610228565b6040516100dd91906107fc565b60405180910390f35b61010060048036038101906100fb919061071a565b61024c565b60405161010d9190610833565b60405180910390f35b610130600480360381019061012b9190610884565b61026c565b60405161013d91906108c0565b60405180910390f35b610160600480360381019061015b919061071a565b610284565b60405161016d91906108ea565b60405180910390f35b61017e6104bb565b60405161018b91906108ea565b60405180910390f35b61019c6104c1565b6040516101a99190610926565b60405180910390f35b6101cc60048036038101906101c7919061071a565b6104e5565b6040516101d99190610762565b60405180910390f35b6101fc60048036038101906101f791906109a6565b610505565b005b60006003600083815260200190815260200160002060009054906101000a900460ff169050919050565b7f000000000000000000000000000000000000000000000000000000000000000081565b60046020528060005260406000206000915054906101000a900460ff1681565b60026020528060005260406000206000915090505481565b60008060009054906101000a900473ffffffffffffffffffffffffffffffffffffffff1673ffffffffffffffffffffffffffffffffffffffff163373ffffffffffffffffffffffffffffffffffffffff161461030c576040517f30cd747100000000000000000000000000000000000000000000000000000000815260040160405180910390fd5b6003600083815260200190815260200160002060009054906101000a900460ff1615610364576040517f3e29c04a00000000000000000000000000000000000000000000000000000000815260040160405180910390fd5b60007f000000000000000000000000000000000000000000000000000000000000000073ffffffffffffffffffffffffffffffffffffffff16634e0e114e60015460008067ffffffffffffffff8111156103c1576103c0610a06565b5b6040519080825280601f01601f1916602001820160405280156103f35781602001600182028036833780820191505090505b503063c1f0c7ac60e01b6040518663ffffffff1660e01b815260040161041d959493929190610b4b565b6020604051808303816000875af115801561043c573d6000803e3d6000fd5b505050506040513d601f19601f820116820180604052508101906104609190610bba565b9050826002600083815260200190815260200160002081905550827f7cf49d9767ba08c3c5b675662ca8b51c45d2142f218919e17762a4e87cf65ea1826040516104aa91906108ea565b60405180910390a280915050919050565b60015481565b60008054906101000a900473ffffffffffffffffffffffffffffffffffffffff1681565b60036020528060005260406000206000915054906101000a900460ff1681565b7f000000000000000000000000000000000000000000000000000000000000000073ffffffffffffffffffffffffffffffffffffffff163373ffffffffffffffffffffffffffffffffffffffff161461058a576040517f6e8898f300000000000000000000000000000000000000000000000000000000815260040160405180910390fd5b61059583838361059a565b505050565b6000600260008581526020019081526020016000205490506000811480156105d8575080600260008060001b81526020019081526020016000205414155b506003600082815260200190815260200160002060009054906101000a900460ff161561060557506106d5565b60008383600081811061061b5761061a610be7565b5b905060200201359050600060016003836106359190610c45565b61063f9190610ca5565b9050806004600085815260200190815260200160002060006101000a81548160ff021916908360ff16021790555060016003600085815260200190815260200160002060006101000a81548160ff021916908315150217905550827f686540d1163b8010d29b1c05f2b283c6f272456cd6083f9de268272288a862df826040516106c99190610833565b60405180910390a25050505b505050565b600080fd5b600080fd5b6000819050919050565b6106f7816106e4565b811461070257600080fd5b50565b600081359050610714816106ee565b92915050565b6000602082840312156107305761072f6106da565b5b600061073e84828501610705565b91505092915050565b60008115159050919050565b61075c81610747565b82525050565b60006020820190506107776000830184610753565b92915050565b600073ffffffffffffffffffffffffffffffffffffffff82169050919050565b6000819050919050565b60006107c26107bd6107b88461077d565b61079d565b61077d565b9050919050565b60006107d4826107a7565b9050919050565b60006107e6826107c9565b9050919050565b6107f6816107db565b82525050565b600060208201905061081160008301846107ed565b92915050565b600060ff82169050919050565b61082d81610817565b82525050565b60006020820190506108486000830184610824565b92915050565b6000819050919050565b6108618161084e565b811461086c57600080fd5b50565b60008135905061087e81610858565b92915050565b60006020828403121561089a576108996106da565b5b60006108a88482850161086f565b91505092915050565b6108ba816106e4565b82525050565b60006020820190506108d560008301846108b1565b92915050565b6108e48161084e565b82525050565b60006020820190506108ff60008301846108db565b92915050565b60006109108261077d565b9050919050565b61092081610905565b82525050565b600060208201905061093b6000830184610917565b92915050565b600080fd5b600080fd5b600080fd5b60008083601f84011261096657610965610941565b5b8235905067ffffffffffffffff81111561098357610982610946565b5b60208301915083602082028301111561099f5761099e61094b565b5b9250929050565b6000806000604084860312156109bf576109be6106da565b5b60006109cd8682870161086f565b935050602084013567ffffffffffffffff8111156109ee576109ed6106df565b5b6109fa86828701610950565b92509250509250925092565b7f4e487b7100000000000000000000000000000000000000000000000000000000600052604160045260246000fd5b6000819050919050565b600063ffffffff82169050919050565b6000610a6a610a65610a6084610a35565b61079d565b610a3f565b9050919050565b610a7a81610a4f565b82525050565b600081519050919050565b600082825260208201905092915050565b60005b83811015610aba578082015181840152602081019050610a9f565b60008484015250505050565b6000601f19601f8301169050919050565b6000610ae282610a80565b610aec8185610a8b565b9350610afc818560208601610a9c565b610b0581610ac6565b840191505092915050565b60007fffffffff0000000000000000000000000000000000000000000000000000000082169050919050565b610b4581610b10565b82525050565b600060a082019050610b6060008301886108db565b610b6d6020830187610a71565b8181036040830152610b7f8186610ad7565b9050610b8e6060830185610917565b610b9b6080830184610b3c565b9695505050505050565b600081519050610bb481610858565b92915050565b600060208284031215610bd057610bcf6106da565b5b6000610bde84828501610ba5565b91505092915050565b7f4e487b7100000000000000000000000000000000000000000000000000000000600052603260045260246000fd5b7f4e487b7100000000000000000000000000000000000000000000000000000000600052601260045260246000fd5b6000610c50826106e4565b9150610c5b836106e4565b925082610c6b57610c6a610c16565b5b828206905092915050565b7f4e487b7100000000000000000000000000000000000000000000000000000000600052601160045260246000fd5b6000610cb0826106e4565b9150610cbb836106e4565b9250828201905080821115610cd357610cd2610c76565b5b9291505056fea2646970667358221220645ae1942a9985f4308774904ce1bb2586820a806df69fe542df70fbe240d4e064736f6c63430008180033",
  "linkReferences": {},
  "deployedLinkReferences": {}
}