{
  "_format": "hh-sol-artifact-1",
  "contractName": "DiceRoller",
  "sourceName": "contracts/DiceRoller.sol",
  "abi": [
    {
      "inputs": [],
      "stateMutability": "nonpayable",
      "type": "constructor"
    },
    {
      "inputs": [
        {
          "internalType": "uint256",
          "name": "roundId",
          "type": "uint256"
        }
      ],
      "name": "AlreadyFulfilled",
      "type": "error"
    },
    {
      "inputs": [
        {
          "internalType": "uint256",
          "name": "roundId",
          "type": "uint256"
        }
      ],
      "name": "AlreadyRequested",
      "type": "error"
    },
    {
      "inputs": [],
      "name": "InvalidRandomness",
      "type": "error"
    },
    {
      "inputs": [],
      "name": "Unauthorized",
      "type": "error"
    },
    {
      "anonymous": false,
      "inputs": [
        {
          "indexed": true,
          "internalType": "uint256",
          "name": "roundId",
          "type": "uint256"
        },
        {
          "indexed": false,
          "internalType": "string",
          "name": "gameId",
          "type": "string"
        },
        {
          "indexed": false,
          "internalType": "bytes32",
          "name": "requestId",
          "type": "bytes32"
        },
        {
          "indexed": false,
          "internalType": "address",
          "name": "requester",
          "type": "address"
        }
      ],
      "name": "DiceRequested",
      "type": "event"
    },
    {
      "anonymous": false,
      "inputs": [
        {
          "indexed": true,
          "internalType": "uint256",
          "name": "roundId",
          "type": "uint256"
        },
        {
          "indexed": false,
          "internalType": "string",
          "name": "gameId",
          "type": "string"
        },
        {
          "indexed": false,
          "internalType": "uint8",
          "name": "result",
          "type": "uint8"
        },
        {
          "indexed": false,
          "internalType": "uint256",
          "name": "randomness",
          "type": "uint256"
        }
      ],
      "name": "DiceRolled",
      "type": "event"
    },
    {
      "inputs": [],
      "name": "SWITCHBOARD",
      "outputs": [
        {
          "internalType": "address",
          "name": "",
          "type": "address"
        }
      ],
      "stateMutability": "view",
      "type": "function"
    },
    {
      "inputs": [],
      "name": "SWITCHBOARD_QUEUE",
      "outputs": [
        {
          "internalType": "bytes32",
          "name": "",
          "type": "bytes32"
        }
      ],
      "stateMutability": "view",
      "type": "function"
    },
    {
      "inputs": [
        {
          "internalType": "uint256",
          "name": "",
          "type": "uint256"
        }
      ],
      "name": "diceResults",
      "outputs": [
        {
          "internalType": "uint8",
          "name": "",
          "type": "uint8"
        }
      ],
      "stateMutability": "view",
      "type": "function"
    },
    {
      "inputs": [
        {
          "internalType": "uint256",
          "name": "roundId",
          "type": "uint256"
        }
      ],
      "name": "getDiceStatus",
      "outputs": [
        {
          "internalType": "bool",
          "name": "requested",
          "type": "bool"
        },
        {
          "internalType": "bool",
          "name": "fulfilled",
          "type": "bool"
        },
        {
          "internalType": "uint8",
          "name": "result",
          "type": "uint8"
        }
      ],
      "stateMutability": "view",
      "type": "function"
    },
    {
      "inputs": [],
      "name": "owner",
      "outputs": [
        {
          "internalType": "address",
          "name": "",
          "type": "address"
        }
      ],
      "stateMutability": "view",
      "type": "function"
    },
    {
      "inputs": [
        {
          "internalType": "uint256",
          "name": "roundId",
          "type": "uint256"
        },
        {
          "internalType": "string",
          "name": "gameId",
          "type": "string"
        }
      ],
      "name": "requestDiceRoll",
      "outputs": [],
      "stateMutability": "nonpayable",
      "type": "function"
    },
    {
      "inputs": [
        {
          "internalType": "bytes32",
          "name": "",
          "type": "bytes32"
        }
      ],
      "name": "requests",
      "outputs": [
        {
          "internalType": "uint256",
          "name": "roundId",
          "type": "uint256"
        },
        {
          "internalType": "string",
          "name": "gameId",
          "type": "string"
        },
        {
          "internalType": "bool",
          "name": "fulfilled",
          "type": "bool"
        }
      ],
      "stateMutability": "view",
      "type": "function"
    },
    {
      "inputs": [
        {
          "internalType": "uint256",
          "name": "",
          "type": "uint256"
        }
      ],
      "name": "roundRequested",
      "outputs": [
        {
          "internalType": "bool",
          "name": "",
          "type": "bool"
        }
      ],
      "stateMutability": "view",
      "type": "function"
    },
    {
      "inputs": [
        {
          "internalType": "bool",
          "name": "_mode",
          "type": "bool"
        }
      ],
      "name": "setSimulationMode",
      "outputs": [],
      "stateMutability": "nonpayable",
      "type": "function"
    },
    {
      "inputs": [
        {
          "internalType": "bytes",
          "name": "proof",
          "type": "bytes"
        },
        {
          "internalType": "bytes32",
          "name": "requestId",
          "type": "bytes32"
        }
      ],
      "name": "settleAndFulfill",
      "outputs": [],
      "stateMutability": "payable",
      "type": "function"
    },
    {
      "inputs": [],
      "name": "simulationMode",
      "outputs": [
        {
          "internalType": "bool",
          "name": "",
          "type": "bool"
        }
      ],
      "stateMutability": "view",
      "type": "function"
    }
  ],
  "bytecode": "0x608060405260016000806101000a81548160ff02191690831515021790555034801561002a57600080fd5b5033600060016101000a81548173ffffffffffffffffffffffffffffffffffffffff021916908373ffffffffffffffffffffffffffffffffffffffff160217905550611a1d8061007b6000396000f3fe60806040526004361061009c5760003560e01c806342e568da1161006457806342e568da1461019c57806359ed054d146101d95780638da5cb5b146101f55780639d86698514610220578063af347d461461025f578063e4f5a8e81461028a5761009c565b80631ca7e346146100a15780631e1508fa146100ca5780632537958c146100f55780632fd140ee14610134578063365c123d1461015f575b600080fd5b3480156100ad57600080fd5b506100c860048036038101906100c39190610c85565b6102b3565b005b3480156100d657600080fd5b506100df610660565b6040516100ec9190610cfe565b60405180910390f35b34801561010157600080fd5b5061011c60048036038101906101179190610d19565b610687565b60405161012b93929190610d7d565b60405180910390f35b34801561014057600080fd5b506101496106e3565b6040516101569190610df5565b60405180910390f35b34801561016b57600080fd5b5061018660048036038101906101819190610d19565b6106fb565b6040516101939190610e10565b60405180910390f35b3480156101a857600080fd5b506101c360048036038101906101be9190610d19565b61071b565b6040516101d09190610e2b565b60405180910390f35b6101f360048036038101906101ee9190610ec8565b61073b565b005b34801561020157600080fd5b5061020a610a3d565b6040516102179190610df5565b60405180910390f35b34801561022c57600080fd5b5061024760048036038101906102429190610f28565b610a63565b60405161025693929190610ff4565b60405180910390f35b34801561026b57600080fd5b50610274610b22565b6040516102819190610e10565b60405180910390f35b34801561029657600080fd5b506102b160048036038101906102ac919061105e565b610b33565b005b6003600084815260200190815260200160002060009054906101000a900460ff161561031657826040517fa6461ae600000000000000000000000000000000000000000000000000000000815260040161030d919061108b565b60405180910390fd5b60006002600085815260200190815260200160002060009054906101000a900460ff1660ff161461037e57826040517fdd6ac7a6000000000000000000000000000000000000000000000000000000008152600401610375919061108b565b60405180910390fd5b6000838383423360405160200161039995949392919061114e565b60405160208183030381529060405280519060200120905060008054906101000a900460ff161561048257600042826040516020016103d99291906111bb565b6040516020818303038152906040528051906020012060001c9050600060016003836104059190611216565b61040f9190611276565b9050806002600088815260200190815260200160002060006101000a81548160ff021916908360ff160217905550857f58210cc71454673d56532cdb98a421704725067e2f4786b710d5a466613160998686848660405161047394939291906112d7565b60405180910390a2505061052c565b73b7f03eee7b9f56347e32cc71dad65b303d5a0e6773ffffffffffffffffffffffffffffffffffffffff1663f4bc77f782307f86807068432f186a147cf0b13a30067d386204ea9d6c8b04743ac2ef010b075260001b60006040518563ffffffff1660e01b81526004016104f99493929190611370565b600060405180830381600087803b15801561051357600080fd5b505af1158015610527573d6000803e3d6000fd5b505050505b604051806060016040528085815260200184848080601f016020809104026020016040519081016040528093929190818152602001838380828437600081840152601f19601f82011690508083019250505050505050815260200160008054906101000a900460ff161515815250600160008381526020019081526020016000206000820151816000015560208201518160010190816105cc91906115e6565b5060408201518160020160006101000a81548160ff02191690831515021790555090505060016003600086815260200190815260200160002060006101000a81548160ff021916908315150217905550837f920b0e4838a3db1d79b8af2abb5e087b8fbf22a1d55f7c5bb2b68d0e8e9c23ee8484843360405161065294939291906116b8565b60405180910390a250505050565b7f86807068432f186a147cf0b13a30067d386204ea9d6c8b04743ac2ef010b075260001b81565b60008060006003600085815260200190815260200160002060009054906101000a900460ff1692506002600085815260200190815260200160002060009054906101000a900460ff16905060008160ff16141591509193909250565b73b7f03eee7b9f56347e32cc71dad65b303d5a0e6781565b60036020528060005260406000206000915054906101000a900460ff1681565b60026020528060005260406000206000915054906101000a900460ff1681565b60008054906101000a900460ff1615610780576040517f82b4290000000000000000000000000000000000000000000000000000000000815260040160405180910390fd5b600060016000838152602001908152602001600020905060008160000154036107d5576040517f82b4290000000000000000000000000000000000000000000000000000000000815260040160405180910390fd5b8060020160009054906101000a900460ff161561082d5780600001546040517fdd6ac7a6000000000000000000000000000000000000000000000000000000008152600401610824919061108b565b60405180910390fd5b73b7f03eee7b9f56347e32cc71dad65b303d5a0e6773ffffffffffffffffffffffffffffffffffffffff16633065b55e3486866040518463ffffffff1660e01b815260040161087d929190611736565b6000604051808303818588803b15801561089657600080fd5b505af11580156108aa573d6000803e3d6000fd5b5050505050600073b7f03eee7b9f56347e32cc71dad65b303d5a0e6773ffffffffffffffffffffffffffffffffffffffff166305b19402846040518263ffffffff1660e01b81526004016108fe9190610cfe565b61010060405180830381865afa15801561091c573d6000803e3d6000fd5b505050506040513d601f19601f8201168201806040525081019061094091906118f7565b905060008160e0015103610980576040517fff0b7a1700000000000000000000000000000000000000000000000000000000815260040160405180910390fd5b6000600160038360c001516109959190611216565b61099f9190611276565b905080600260008560000154815260200190815260200160002060006101000a81548160ff021916908360ff16021790555060018360020160006101000a81548160ff02191690831515021790555082600001547f58210cc71454673d56532cdb98a421704725067e2f4786b710d5a4666131609984600101838560c00151604051610a2d939291906119a9565b60405180910390a2505050505050565b600060019054906101000a900473ffffffffffffffffffffffffffffffffffffffff1681565b6001602052806000526040600020600091509050806000015490806001018054610a8c90611413565b80601f0160208091040260200160405190810160405280929190818152602001828054610ab890611413565b8015610b055780601f10610ada57610100808354040283529160200191610b05565b820191906000526020600020905b815481529060010190602001808311610ae857829003601f168201915b5050505050908060020160009054906101000a900460ff16905083565b60008054906101000a900460ff1681565b600060019054906101000a900473ffffffffffffffffffffffffffffffffffffffff1673ffffffffffffffffffffffffffffffffffffffff163373ffffffffffffffffffffffffffffffffffffffff1614610bba576040517f82b4290000000000000000000000000000000000000000000000000000000000815260040160405180910390fd5b806000806101000a81548160ff02191690831515021790555050565b6000604051905090565b600080fd5b600080fd5b6000819050919050565b610bfd81610bea565b8114610c0857600080fd5b50565b600081359050610c1a81610bf4565b92915050565b600080fd5b600080fd5b600080fd5b60008083601f840112610c4557610c44610c20565b5b8235905067ffffffffffffffff811115610c6257610c61610c25565b5b602083019150836001820283011115610c7e57610c7d610c2a565b5b9250929050565b600080600060408486031215610c9e57610c9d610be0565b5b6000610cac86828701610c0b565b935050602084013567ffffffffffffffff811115610ccd57610ccc610be5565b5b610cd986828701610c2f565b92509250509250925092565b6000819050919050565b610cf881610ce5565b82525050565b6000602082019050610d136000830184610cef565b92915050565b600060208284031215610d2f57610d2e610be0565b5b6000610d3d84828501610c0b565b91505092915050565b60008115159050919050565b610d5b81610d46565b82525050565b600060ff82169050919050565b610d7781610d61565b82525050565b6000606082019050610d926000830186610d52565b610d9f6020830185610d52565b610dac6040830184610d6e565b949350505050565b600073ffffffffffffffffffffffffffffffffffffffff82169050919050565b6000610ddf82610db4565b9050919050565b610def81610dd4565b82525050565b6000602082019050610e0a6000830184610de6565b92915050565b6000602082019050610e256000830184610d52565b92915050565b6000602082019050610e406000830184610d6e565b92915050565b60008083601f840112610e5c57610e5b610c20565b5b8235905067ffffffffffffffff811115610e7957610e78610c25565b5b602083019150836001820283011115610e9557610e94610c2a565b5b9250929050565b610ea581610ce5565b8114610eb057600080fd5b50565b600081359050610ec281610e9c565b92915050565b600080600060408486031215610ee157610ee0610be0565b5b600084013567ffffffffffffffff811115610eff57610efe610be5565b5b610f0b86828701610e46565b93509350506020610f1e86828701610eb3565b9150509250925092565b600060208284031215610f3e57610f3d610be0565b5b6000610f4c84828501610eb3565b91505092915050565b610f5e81610bea565b82525050565b600081519050919050565b600082825260208201905092915050565b60005b83811015610f9e578082015181840152602081019050610f83565b60008484015250505050565b6000601f19601f8301169050919050565b6000610fc682610f64565b610fd08185610f6f565b9350610fe0818560208601610f80565b610fe981610faa565b840191505092915050565b60006060820190506110096000830186610f55565b818103602083015261101b8185610fbb565b905061102a6040830184610d52565b949350505050565b61103b81610d46565b811461104657600080fd5b50565b60008135905061105881611032565b92915050565b60006020828403121561107457611073610be0565b5b600061108284828501611049565b91505092915050565b60006020820190506110a06000830184610f55565b92915050565b6000819050919050565b6110c16110bc82610bea565b6110a6565b82525050565b600081905092915050565b82818337600083830152505050565b60006110ed83856110c7565b93506110fa8385846110d2565b82840190509392505050565b60008160601b9050919050565b600061111e82611106565b9050919050565b600061113082611113565b9050919050565b61114861114382610dd4565b611125565b82525050565b600061115a82886110b0565b60208201915061116b8286886110e1565b915061117782856110b0565b6020820191506111878284611137565b6014820191508190509695505050505050565b6000819050919050565b6111b56111b082610ce5565b61119a565b82525050565b60006111c782856110b0565b6020820191506111d782846111a4565b6020820191508190509392505050565b7f4e487b7100000000000000000000000000000000000000000000000000000000600052601260045260246000fd5b600061122182610bea565b915061122c83610bea565b92508261123c5761123b6111e7565b5b828206905092915050565b7f4e487b7100000000000000000000000000000000000000000000000000000000600052601160045260246000fd5b600061128182610bea565b915061128c83610bea565b92508282019050808211156112a4576112a3611247565b5b92915050565b60006112b68385610f6f565b93506112c38385846110d2565b6112cc83610faa565b840190509392505050565b600060608201905081810360008301526112f28186886112aa565b90506113016020830185610d6e565b61130e6040830184610f55565b95945050505050565b6000819050919050565b600067ffffffffffffffff82169050919050565b6000819050919050565b600061135a61135561135084611317565b611335565b611321565b9050919050565b61136a8161133f565b82525050565b60006080820190506113856000830187610cef565b6113926020830186610de6565b61139f6040830185610cef565b6113ac6060830184611361565b95945050505050565b7f4e487b7100000000000000000000000000000000000000000000000000000000600052604160045260246000fd5b7f4e487b7100000000000000000000000000000000000000000000000000000000600052602260045260246000fd5b6000600282049050600182168061142b57607f821691505b60208210810361143e5761143d6113e4565b5b50919050565b60008190508160005260206000209050919050565b60006020601f8301049050919050565b600082821b905092915050565b6000600883026114a67fffffffffffffffffffffffffffffffffffffffffffffffffffffffffffffffff82611469565b6114b08683611469565b95508019841693508086168417925050509392505050565b60006114e36114de6114d984610bea565b611335565b610bea565b9050919050565b6000819050919050565b6114fd836114c8565b611511611509826114ea565b848454611476565b825550505050565b600090565b611526611519565b6115318184846114f4565b505050565b5b818110156115555761154a60008261151e565b600181019050611537565b5050565b601f82111561159a5761156b81611444565b61157484611459565b81016020851015611583578190505b61159761158f85611459565b830182611536565b50505b505050565b600082821c905092915050565b60006115bd6000198460080261159f565b1980831691505092915050565b60006115d683836115ac565b9150826002028217905092915050565b6115ef82610f64565b67ffffffffffffffff811115611608576116076113b5565b5b6116128254611413565b61161d828285611559565b600060209050601f831160018114611650576000841561163e578287015190505b61164885826115ca565b8655506116b0565b601f19841661165e86611444565b60005b8281101561168657848901518255600182019150602085019450602081019050611661565b868310156116a3578489015161169f601f8916826115ac565b8355505b6001600288020188555050505b505050505050565b600060608201905081810360008301526116d38186886112aa565b90506116e26020830185610cef565b6116ef6040830184610de6565b95945050505050565b600082825260208201905092915050565b600061171583856116f8565b93506117228385846110d2565b61172b83610faa565b840190509392505050565b60006020820190508181036000830152611751818486611709565b90509392505050565b600080fd5b61176882610faa565b810181811067ffffffffffffffff82111715611787576117866113b5565b5b80604052505050565b600061179a610bd6565b90506117a6828261175f565b919050565b6000815190506117ba81610e9c565b92915050565b6000815190506117cf81610bf4565b92915050565b6117de81610dd4565b81146117e957600080fd5b50565b6000815190506117fb816117d5565b92915050565b61180a81611321565b811461181557600080fd5b50565b60008151905061182781611801565b92915050565b600061010082840312156118445761184361175a565b5b61184f610100611790565b9050600061185f848285016117ab565b6000830152506020611873848285016117c0565b6020830152506040611887848285016117ec565b604083015250606061189b848285016117c0565b60608301525060806118af84828501611818565b60808301525060a06118c3848285016117ec565b60a08301525060c06118d7848285016117c0565b60c08301525060e06118eb848285016117c0565b60e08301525092915050565b6000610100828403121561190e5761190d610be0565b5b600061191c8482850161182d565b91505092915050565b6000815461193281611413565b61193c8186610f6f565b94506001821660008114611957576001811461196d576119a0565b60ff1983168652811515602002860193506119a0565b61197685611444565b60005b8381101561199857815481890152600182019150602081019050611979565b808801955050505b50505092915050565b600060608201905081810360008301526119c38186611925565b90506119d26020830185610d6e565b6119df6040830184610f55565b94935050505056fea2646970667358221220ba59234e6c0592839e2b0b2582277ef4a1274c1de9b4b9b0862299074d6fb2c064736f6c63430008180033",
  "linkReferences": {},
  "deployedLinkReferences": {}
}