{
  "_format": "hh-sol-artifact-1",
  "contractName": "DiceRoller",
  "sourceName": "contracts/DiceRoller.sol",
  "abi": [
    {
      "inputs": [
        {
          "internalType": "address",
          "name": "_entropy",
          "type": "address"
        },
        {
          "internalType": "address",
          "name": "_entropyProvider",
          "type": "address"
        }
      ],
      "stateMutability": "nonpayable",
      "type": "constructor"
    },
    {
      "inputs": [
        {
          "internalType": "uint256",
          "name": "roundId",
          "type": "uint256"
        }
      ],
      "name": "AlreadyFulfilled",
      "type": "error"
    },
    {
      "inputs": [
        {
          "internalType": "uint256",
          "name": "roundId",
          "type": "uint256"
        }
      ],
      "name": "AlreadyRequested",
      "type": "error"
    },
    {
      "inputs": [
        {
          "internalType": "uint128",
          "name": "required",
          "type": "uint128"
        },
        {
          "internalType": "uint256",
          "name": "provided",
          "type": "uint256"
        }
      ],
      "name": "InsufficientFee",
      "type": "error"
    },
    {
      "inputs": [],
      "name": "InvalidRandomness",
      "type": "error"
    },
    {
      "inputs": [],
      "name": "Unauthorized",
      "type": "error"
    },
    {
      "anonymous": false,
      "inputs": [
        {
          "indexed": true,
          "internalType": "uint256",
          "name": "roundId",
          "type": "uint256"
        },
        {
          "indexed": false,
          "internalType": "string",
          "name": "gameId",
          "type": "string"
        },
        {
          "indexed": false,
          "internalType": "uint64",
          "name": "sequenceNumber",
          "type": "uint64"
        },
        {
          "indexed": false,
          "internalType": "address",
          "name": "requester",
          "type": "address"
        }
      ],
      "name": "DiceRequested",
      "type": "event"
    },
    {
      "anonymous": false,
      "inputs": [
        {
          "indexed": true,
          "internalType": "uint256",
          "name": "roundId",
          "type": "uint256"
        },
        {
          "indexed": false,
          "internalType": "string",
          "name": "gameId",
          "type": "string"
        },
        {
          "indexed": false,
          "internalType": "uint8",
          "name": "result",
          "type": "uint8"
        },
        {
          "indexed": false,
          "internalType": "uint256",
          "name": "randomness",
          "type": "uint256"
        }
      ],
      "name": "DiceRolled",
      "type": "event"
    },
    {
      "inputs": [
        {
          "internalType": "uint64",
          "name": "sequence",
          "type": "uint64"
        },
        {
          "internalType": "address",
          "name": "provider",
          "type": "address"
        },
        {
          "internalType": "bytes32",
          "name": "randomNumber",
          "type": "bytes32"
        }
      ],
      "name": "_entropyCallback",
      "outputs": [],
      "stateMutability": "nonpayable",
      "type": "function"
    },
    {
      "inputs": [
        {
          "internalType": "uint256",
          "name": "",
          "type": "uint256"
        }
      ],
      "name": "diceResults",
      "outputs": [
        {
          "internalType": "uint8",
          "name": "",
          "type": "uint8"
        }
      ],
      "stateMutability": "view",
      "type": "function"
    },
    {
      "inputs": [],
      "name": "entropy",
      "outputs": [
        {
          "internalType": "contract IEntropy",
          "name": "",
          "type": "address"
        }
      ],
      "stateMutability": "view",
      "type": "function"
    },
    {
      "inputs": [],
      "name": "entropyProvider",
      "outputs": [
        {
          "internalType": "address",
          "name": "",
          "type": "address"
        }
      ],
      "stateMutability": "view",
      "type": "function"
    },
    {
      "inputs": [
        {
          "internalType": "uint256",
          "name": "roundId",
          "type": "uint256"
        }
      ],
      "name": "getDiceStatus",
      "outputs": [
        {
          "internalType": "bool",
          "name": "requested",
          "type": "bool"
        },
        {
          "internalType": "bool",
          "name": "fulfilled",
          "type": "bool"
        },
        {
          "internalType": "uint8",
          "name": "result",
          "type": "uint8"
        }
      ],
      "stateMutability": "view",
      "type": "function"
    },
    {
      "inputs": [],
      "name": "getFee",
      "outputs": [
        {
          "internalType": "uint128",
          "name": "",
          "type": "uint128"
        }
      ],
      "stateMutability": "view",
      "type": "function"
    },
    {
      "inputs": [
        {
          "internalType": "uint256",
          "name": "roundId",
          "type": "uint256"
        },
        {
          "internalType": "string",
          "name": "gameId",
          "type": "string"
        },
        {
          "internalType": "bytes32",
          "name": "userCommitment",
          "type": "bytes32"
        }
      ],
      "name": "requestDiceRoll",
      "outputs": [],
      "stateMutability": "payable",
      "type": "function"
    },
    {
      "inputs": [
        {
          "internalType": "uint64",
          "name": "",
          "type": "uint64"
        }
      ],
      "name": "requests",
      "outputs": [
        {
          "internalType": "uint256",
          "name": "roundId",
          "type": "uint256"
        },
        {
          "internalType": "string",
          "name": "gameId",
          "type": "string"
        },
        {
          "internalType": "bool",
          "name": "fulfilled",
          "type": "bool"
        }
      ],
      "stateMutability": "view",
      "type": "function"
    },
    {
      "inputs": [
        {
          "internalType": "uint256",
          "name": "",
          "type": "uint256"
        }
      ],
      "name": "roundRequested",
      "outputs": [
        {
          "internalType": "bool",
          "name": "",
          "type": "bool"
        }
      ],
      "stateMutability": "view",
      "type": "function"
    }
  ],
  "bytecode": "0x60c06040523480156200001157600080fd5b506040516200195338038062001953833981810160405281019062000037919062000111565b8173ffffffffffffffffffffffffffffffffffffffff1660808173ffffffffffffffffffffffffffffffffffffffff16815250508073ffffffffffffffffffffffffffffffffffffffff1660a08173ffffffffffffffffffffffffffffffffffffffff1681525050505062000158565b600080fd5b600073ffffffffffffffffffffffffffffffffffffffff82169050919050565b6000620000d982620000ac565b9050919050565b620000eb81620000cc565b8114620000f757600080fd5b50565b6000815190506200010b81620000e0565b92915050565b600080604083850312156200012b576200012a620000a7565b5b60006200013b85828601620000fa565b92505060206200014e85828601620000fa565b9150509250929050565b60805160a0516117b2620001a1600039600081816104280152818161088501526108e70152600081816103d901528181610767015281816108ab015261096c01526117b26000f3fe6080604052600436106100865760003560e01c806342e568da1161005957806342e568da1461016257806347ce07cc1461019f57806352a5f1f8146101ca5780635bf414ac146101f3578063ced72f871461021e57610086565b80632537958c1461008b578063267ebd10146100ca578063365c123d146100e6578063411010ec14610123575b600080fd5b34801561009757600080fd5b506100b260048036038101906100ad9190610b5b565b610249565b6040516100c193929190610bbf565b60405180910390f35b6100e460048036038101906100df9190610c91565b6102a5565b005b3480156100f257600080fd5b5061010d60048036038101906101089190610b5b565b610666565b60405161011a9190610d05565b60405180910390f35b34801561012f57600080fd5b5061014a60048036038101906101459190610d60565b610686565b60405161015993929190610e2c565b60405180910390f35b34801561016e57600080fd5b5061018960048036038101906101849190610b5b565b610745565b6040516101969190610e6a565b60405180910390f35b3480156101ab57600080fd5b506101b4610765565b6040516101c19190610f04565b60405180910390f35b3480156101d657600080fd5b506101f160048036038101906101ec9190610f5d565b610789565b005b3480156101ff57600080fd5b50610208610883565b6040516102159190610fbf565b60405180910390f35b34801561022a57600080fd5b506102336108a7565b6040516102409190611005565b60405180910390f35b60008060006002600085815260200190815260200160002060009054906101000a900460ff1692506001600085815260200190815260200160002060009054906101000a900460ff16905060008160ff16141591509193909250565b6002600085815260200190815260200160002060009054906101000a900460ff161561030857836040517fa6461ae60000000000000000000000000000000000000000000000000000000081526004016102ff9190611020565b60405180910390fd5b60006001600086815260200190815260200160002060009054906101000a900460ff1660ff161461037057836040517fdd6ac7a60000000000000000000000000000000000000000000000000000000081526004016103679190611020565b60405180910390fd5b600061037a6108a7565b9050806fffffffffffffffffffffffffffffffff163410156103d55780346040517f764878950000000000000000000000000000000000000000000000000000000081526004016103cc92919061103b565b60405180910390fd5b60007f000000000000000000000000000000000000000000000000000000000000000073ffffffffffffffffffffffffffffffffffffffff166319cb825f836fffffffffffffffffffffffffffffffff167f0000000000000000000000000000000000000000000000000000000000000000866040518463ffffffff1660e01b8152600401610465929190611073565b60206040518083038185885af1158015610483573d6000803e3d6000fd5b50505050506040513d601f19601f820116820180604052508101906104a891906110b1565b9050604051806060016040528087815260200186868080601f016020809104026020016040519081016040528093929190818152602001838380828437600081840152601f19601f820116905080830192505050505050508152602001600015158152506000808367ffffffffffffffff1667ffffffffffffffff168152602001908152602001600020600082015181600001556020820151816001019081610551919061130f565b5060408201518160020160006101000a81548160ff02191690831515021790555090505060016002600088815260200190815260200160002060006101000a81548160ff021916908315150217905550857f9d4af84b34e423e7d8508ad572b979e0fae34aae1c00db2c768047bd1dc42fe0868684336040516105d7949392919061142c565b60405180910390a2816fffffffffffffffffffffffffffffffff1634111561065e573373ffffffffffffffffffffffffffffffffffffffff166108fc836fffffffffffffffffffffffffffffffff1634610631919061149b565b9081150290604051600060405180830381858888f1935050505015801561065c573d6000803e3d6000fd5b505b505050505050565b60026020528060005260406000206000915054906101000a900460ff1681565b60006020528060005260406000206000915090508060000154908060010180546106af9061113c565b80601f01602080910402602001604051908101604052809291908181526020018280546106db9061113c565b80156107285780601f106106fd57610100808354040283529160200191610728565b820191906000526020600020905b81548152906001019060200180831161070b57829003601f168201915b5050505050908060020160009054906101000a900460ff16905083565b60016020528060005260406000206000915054906101000a900460ff1681565b7f000000000000000000000000000000000000000000000000000000000000000081565b6000610793610968565b9050600073ffffffffffffffffffffffffffffffffffffffff168173ffffffffffffffffffffffffffffffffffffffff1603610804576040517f08c379a00000000000000000000000000000000000000000000000000000000081526004016107fb9061151b565b60405180910390fd5b8073ffffffffffffffffffffffffffffffffffffffff163373ffffffffffffffffffffffffffffffffffffffff1614610872576040517f08c379a0000000000000000000000000000000000000000000000000000000008152600401610869906115ad565b60405180910390fd5b61087d848484610990565b50505050565b7f000000000000000000000000000000000000000000000000000000000000000081565b60007f000000000000000000000000000000000000000000000000000000000000000073ffffffffffffffffffffffffffffffffffffffff1663b88c91487f00000000000000000000000000000000000000000000000000000000000000006040518263ffffffff1660e01b81526004016109229190610fbf565b602060405180830381865afa15801561093f573d6000803e3d6000fd5b505050506040513d601f19601f8201168201806040525081019061096391906115f9565b905090565b60007f0000000000000000000000000000000000000000000000000000000000000000905090565b60008060008567ffffffffffffffff1667ffffffffffffffff168152602001908152602001600020905060008160000154036109cc5750610b16565b8060020160009054906101000a900460ff1615610a245780600001546040517fdd6ac7a6000000000000000000000000000000000000000000000000000000008152600401610a1b9190611020565b60405180910390fd5b6000801b8203610a60576040517fff0b7a1700000000000000000000000000000000000000000000000000000000815260040160405180910390fd5b6000600160038460001c610a749190611655565b610a7e9190611686565b905080600160008460000154815260200190815260200160002060006101000a81548160ff021916908360ff16021790555060018260020160006101000a81548160ff02191690831515021790555081600001547f58210cc71454673d56532cdb98a421704725067e2f4786b710d5a4666131609983600101838660001c604051610b0b9392919061173e565b60405180910390a250505b505050565b600080fd5b600080fd5b6000819050919050565b610b3881610b25565b8114610b4357600080fd5b50565b600081359050610b5581610b2f565b92915050565b600060208284031215610b7157610b70610b1b565b5b6000610b7f84828501610b46565b91505092915050565b60008115159050919050565b610b9d81610b88565b82525050565b600060ff82169050919050565b610bb981610ba3565b82525050565b6000606082019050610bd46000830186610b94565b610be16020830185610b94565b610bee6040830184610bb0565b949350505050565b600080fd5b600080fd5b600080fd5b60008083601f840112610c1b57610c1a610bf6565b5b8235905067ffffffffffffffff811115610c3857610c37610bfb565b5b602083019150836001820283011115610c5457610c53610c00565b5b9250929050565b6000819050919050565b610c6e81610c5b565b8114610c7957600080fd5b50565b600081359050610c8b81610c65565b92915050565b60008060008060608587031215610cab57610caa610b1b565b5b6000610cb987828801610b46565b945050602085013567ffffffffffffffff811115610cda57610cd9610b20565b5b610ce687828801610c05565b93509350506040610cf987828801610c7c565b91505092959194509250565b6000602082019050610d1a6000830184610b94565b92915050565b600067ffffffffffffffff82169050919050565b610d3d81610d20565b8114610d4857600080fd5b50565b600081359050610d5a81610d34565b92915050565b600060208284031215610d7657610d75610b1b565b5b6000610d8484828501610d4b565b91505092915050565b610d9681610b25565b82525050565b600081519050919050565b600082825260208201905092915050565b60005b83811015610dd6578082015181840152602081019050610dbb565b60008484015250505050565b6000601f19601f8301169050919050565b6000610dfe82610d9c565b610e088185610da7565b9350610e18818560208601610db8565b610e2181610de2565b840191505092915050565b6000606082019050610e416000830186610d8d565b8181036020830152610e538185610df3565b9050610e626040830184610b94565b949350505050565b6000602082019050610e7f6000830184610bb0565b92915050565b600073ffffffffffffffffffffffffffffffffffffffff82169050919050565b6000819050919050565b6000610eca610ec5610ec084610e85565b610ea5565b610e85565b9050919050565b6000610edc82610eaf565b9050919050565b6000610eee82610ed1565b9050919050565b610efe81610ee3565b82525050565b6000602082019050610f196000830184610ef5565b92915050565b6000610f2a82610e85565b9050919050565b610f3a81610f1f565b8114610f4557600080fd5b50565b600081359050610f5781610f31565b92915050565b600080600060608486031215610f7657610f75610b1b565b5b6000610f8486828701610d4b565b9350506020610f9586828701610f48565b9250506040610fa686828701610c7c565b9150509250925092565b610fb981610f1f565b82525050565b6000602082019050610fd46000830184610fb0565b92915050565b60006fffffffffffffffffffffffffffffffff82169050919050565b610fff81610fda565b82525050565b600060208201905061101a6000830184610ff6565b92915050565b60006020820190506110356000830184610d8d565b92915050565b60006040820190506110506000830185610ff6565b61105d6020830184610d8d565b9392505050565b61106d81610c5b565b82525050565b60006040820190506110886000830185610fb0565b6110956020830184611064565b9392505050565b6000815190506110ab81610d34565b92915050565b6000602082840312156110c7576110c6610b1b565b5b60006110d58482850161109c565b91505092915050565b7f4e487b7100000000000000000000000000000000000000000000000000000000600052604160045260246000fd5b7f4e487b7100000000000000000000000000000000000000000000000000000000600052602260045260246000fd5b6000600282049050600182168061115457607f821691505b6020821081036111675761116661110d565b5b50919050565b60008190508160005260206000209050919050565b60006020601f8301049050919050565b600082821b905092915050565b6000600883026111cf7fffffffffffffffffffffffffffffffffffffffffffffffffffffffffffffffff82611192565b6111d98683611192565b95508019841693508086168417925050509392505050565b600061120c61120761120284610b25565b610ea5565b610b25565b9050919050565b6000819050919050565b611226836111f1565b61123a61123282611213565b84845461119f565b825550505050565b600090565b61124f611242565b61125a81848461121d565b505050565b5b8181101561127e57611273600082611247565b600181019050611260565b5050565b601f8211156112c3576112948161116d565b61129d84611182565b810160208510156112ac578190505b6112c06112b885611182565b83018261125f565b50505b505050565b600082821c905092915050565b60006112e6600019846008026112c8565b1980831691505092915050565b60006112ff83836112d5565b9150826002028217905092915050565b61131882610d9c565b67ffffffffffffffff811115611331576113306110de565b5b61133b825461113c565b611346828285611282565b600060209050601f8311600181146113795760008415611367578287015190505b61137185826112f3565b8655506113d9565b601f1984166113878661116d565b60005b828110156113af5784890151825560018201915060208501945060208101905061138a565b868310156113cc57848901516113c8601f8916826112d5565b8355505b6001600288020188555050505b505050505050565b82818337600083830152505050565b60006113fc8385610da7565b93506114098385846113e1565b61141283610de2565b840190509392505050565b61142681610d20565b82525050565b600060608201905081810360008301526114478186886113f0565b9050611456602083018561141d565b6114636040830184610fb0565b95945050505050565b7f4e487b7100000000000000000000000000000000000000000000000000000000600052601160045260246000fd5b60006114a682610b25565b91506114b183610b25565b92508282039050818111156114c9576114c861146c565b5b92915050565b7f456e74726f70792061646472657373206e6f7420736574000000000000000000600082015250565b6000611505601783610da7565b9150611510826114cf565b602082019050919050565b60006020820190508181036000830152611534816114f8565b9050919050565b7f4f6e6c7920456e74726f70792063616e2063616c6c20746869732066756e637460008201527f696f6e0000000000000000000000000000000000000000000000000000000000602082015250565b6000611597602383610da7565b91506115a28261153b565b604082019050919050565b600060208201905081810360008301526115c68161158a565b9050919050565b6115d681610fda565b81146115e157600080fd5b50565b6000815190506115f3816115cd565b92915050565b60006020828403121561160f5761160e610b1b565b5b600061161d848285016115e4565b91505092915050565b7f4e487b7100000000000000000000000000000000000000000000000000000000600052601260045260246000fd5b600061166082610b25565b915061166b83610b25565b92508261167b5761167a611626565b5b828206905092915050565b600061169182610b25565b915061169c83610b25565b92508282019050808211156116b4576116b361146c565b5b92915050565b600081546116c78161113c565b6116d18186610da7565b945060018216600081146116ec576001811461170257611735565b60ff198316865281151560200286019350611735565b61170b8561116d565b60005b8381101561172d5781548189015260018201915060208101905061170e565b808801955050505b50505092915050565b6000606082019050818103600083015261175881866116ba565b90506117676020830185610bb0565b6117746040830184610d8d565b94935050505056fea2646970667358221220c45fa0456307e59b42364247ff82c3aa71ee55131a04ae70ec5ae09d33c7f35a64736f6c63430008180033",
  "linkReferences": {},
  "deployedLinkReferences": {}
}