{
  "_format": "hh-sol-artifact-1",
  "contractName": "DiceRoller",
  "sourceName": "contracts/DiceRoller.sol",
  "abi": [
    {
      "inputs": [
        {
          "internalType": "address",
          "name": "_switchboard",
          "type": "address"
        },
        {
          "internalType": "bytes32",
          "name": "_queueId",
          "type": "bytes32"
        }
      ],
      "stateMutability": "nonpayable",
      "type": "constructor"
    },
    {
      "inputs": [
        {
          "internalType": "uint256",
          "name": "roundId",
          "type": "uint256"
        }
      ],
      "name": "AlreadyFulfilled",
      "type": "error"
    },
    {
      "inputs": [],
      "name": "InvalidRandomness",
      "type": "error"
    },
    {
      "anonymous": false,
      "inputs": [
        {
          "indexed": true,
          "internalType": "uint256",
          "name": "roundId",
          "type": "uint256"
        },
        {
          "indexed": false,
          "internalType": "address",
          "name": "requester",
          "type": "address"
        }
      ],
      "name": "DiceRequested",
      "type": "event"
    },
    {
      "anonymous": false,
      "inputs": [
        {
          "indexed": true,
          "internalType": "uint256",
          "name": "roundId",
          "type": "uint256"
        },
        {
          "indexed": false,
          "internalType": "uint8",
          "name": "result",
          "type": "uint8"
        },
        {
          "indexed": false,
          "internalType": "bytes32",
          "name": "randomness",
          "type": "bytes32"
        }
      ],
      "name": "DiceRolled",
      "type": "event"
    },
    {
      "inputs": [
        {
          "internalType": "uint256",
          "name": "",
          "type": "uint256"
        }
      ],
      "name": "diceResults",
      "outputs": [
        {
          "internalType": "uint8",
          "name": "",
          "type": "uint8"
        }
      ],
      "stateMutability": "view",
      "type": "function"
    },
    {
      "inputs": [
        {
          "internalType": "uint256",
          "name": "roundId",
          "type": "uint256"
        },
        {
          "internalType": "bytes",
          "name": "proof",
          "type": "bytes"
        }
      ],
      "name": "fulfillRandomness",
      "outputs": [],
      "stateMutability": "nonpayable",
      "type": "function"
    },
    {
      "inputs": [
        {
          "internalType": "uint256",
          "name": "roundId",
          "type": "uint256"
        }
      ],
      "name": "getDiceResult",
      "outputs": [
        {
          "internalType": "bool",
          "name": "isFulfilled",
          "type": "bool"
        },
        {
          "internalType": "uint8",
          "name": "result",
          "type": "uint8"
        }
      ],
      "stateMutability": "view",
      "type": "function"
    },
    {
      "inputs": [],
      "name": "queueId",
      "outputs": [
        {
          "internalType": "bytes32",
          "name": "",
          "type": "bytes32"
        }
      ],
      "stateMutability": "view",
      "type": "function"
    },
    {
      "inputs": [
        {
          "internalType": "uint256",
          "name": "roundId",
          "type": "uint256"
        }
      ],
      "name": "requestDiceRoll",
      "outputs": [],
      "stateMutability": "nonpayable",
      "type": "function"
    },
    {
      "inputs": [],
      "name": "switchboard",
      "outputs": [
        {
          "internalType": "address",
          "name": "",
          "type": "address"
        }
      ],
      "stateMutability": "view",
      "type": "function"
    }
  ],
  "bytecode": "0x60c060405234801561001057600080fd5b5060405162000c0238038062000c0283398181016040528101906100349190610110565b8173ffffffffffffffffffffffffffffffffffffffff1660808173ffffffffffffffffffffffffffffffffffffffff16815250508060a081815250505050610150565b600080fd5b600073ffffffffffffffffffffffffffffffffffffffff82169050919050565b60006100a78261007c565b9050919050565b6100b78161009c565b81146100c257600080fd5b50565b6000815190506100d4816100ae565b92915050565b6000819050919050565b6100ed816100da565b81146100f857600080fd5b50565b60008151905061010a816100e4565b92915050565b6000806040838503121561012757610126610077565b5b6000610135858286016100c5565b9250506020610146858286016100fb565b9150509250929050565b60805160a051610a7e620001846000396000818161022401526102e901526000818161013e01526102b20152610a7e6000f3fe608060405234801561001057600080fd5b50600436106100625760003560e01c806318ccf0991461006757806342e568da1461008557806352fb5f96146100b557806362638cf4146100d1578063b3f6b99a146100ef578063e3f60a671461010b575b600080fd5b61006f61013c565b60405161007c9190610548565b60405180910390f35b61009f600480360381019061009a91906105a3565b610160565b6040516100ac91906105ec565b60405180910390f35b6100cf60048036038101906100ca91906105a3565b610180565b005b6100d9610222565b6040516100e69190610620565b60405180910390f35b610109600480360381019061010491906106a0565b610246565b005b610125600480360381019061012091906105a3565b6104d3565b60405161013392919061071b565b60405180910390f35b7f000000000000000000000000000000000000000000000000000000000000000081565b60006020528060005260406000206000915054906101000a900460ff1681565b600080600083815260200190815260200160002060009054906101000a900460ff1660ff16146101e757806040517fdd6ac7a60000000000000000000000000000000000000000000000000000000081526004016101de9190610753565b60405180910390fd5b807ff362b22d5728140d18bb2cfed3e5e06f188119da539a98b941b78ec1c0329fea336040516102179190610548565b60405180910390a250565b7f000000000000000000000000000000000000000000000000000000000000000081565b600080600085815260200190815260200160002060009054906101000a900460ff1660ff16146102ad57826040517fdd6ac7a60000000000000000000000000000000000000000000000000000000081526004016102a49190610753565b60405180910390fd5b6000807f000000000000000000000000000000000000000000000000000000000000000073ffffffffffffffffffffffffffffffffffffffff167f0000000000000000000000000000000000000000000000000000000000000000858560405160240161031c939291906107cc565b6040516020818303038152906040527ffa5f30c7000000000000000000000000000000000000000000000000000000007bffffffffffffffffffffffffffffffffffffffffffffffffffffffff19166020820180517bffffffffffffffffffffffffffffffffffffffffffffffffffffffff83818316178352505050506040516103a6919061086f565b6000604051808303816000865af19150503d80600081146103e3576040519150601f19603f3d011682016040523d82523d6000602084013e6103e8565b606091505b50915091508161042d576040517f08c379a0000000000000000000000000000000000000000000000000000000008152600401610424906108e3565b60405180910390fd5b600081806020019051810190610443919061092f565b90506000600160038360001c610459919061098b565b61046391906109eb565b90508060008089815260200190815260200160002060006101000a81548160ff021916908360ff160217905550867f958a38d540178a7aaebc3a126e6aa1851854e1fe2f80a6ca815668a807c0619782846040516104c2929190610a1f565b60405180910390a250505050505050565b60008060008084815260200190815260200160002060009054906101000a900460ff16905060008160ff1614159150915091565b600073ffffffffffffffffffffffffffffffffffffffff82169050919050565b600061053282610507565b9050919050565b61054281610527565b82525050565b600060208201905061055d6000830184610539565b92915050565b600080fd5b600080fd5b6000819050919050565b6105808161056d565b811461058b57600080fd5b50565b60008135905061059d81610577565b92915050565b6000602082840312156105b9576105b8610563565b5b60006105c78482850161058e565b91505092915050565b600060ff82169050919050565b6105e6816105d0565b82525050565b600060208201905061060160008301846105dd565b92915050565b6000819050919050565b61061a81610607565b82525050565b60006020820190506106356000830184610611565b92915050565b600080fd5b600080fd5b600080fd5b60008083601f8401126106605761065f61063b565b5b8235905067ffffffffffffffff81111561067d5761067c610640565b5b60208301915083600182028301111561069957610698610645565b5b9250929050565b6000806000604084860312156106b9576106b8610563565b5b60006106c78682870161058e565b935050602084013567ffffffffffffffff8111156106e8576106e7610568565b5b6106f48682870161064a565b92509250509250925092565b60008115159050919050565b61071581610700565b82525050565b6000604082019050610730600083018561070c565b61073d60208301846105dd565b9392505050565b61074d8161056d565b82525050565b60006020820190506107686000830184610744565b92915050565b600082825260208201905092915050565b82818337600083830152505050565b6000601f19601f8301169050919050565b60006107ab838561076e565b93506107b883858461077f565b6107c18361078e565b840190509392505050565b60006040820190506107e16000830186610611565b81810360208301526107f481848661079f565b9050949350505050565b600081519050919050565b600081905092915050565b60005b83811015610832578082015181840152602081019050610817565b60008484015250505050565b6000610849826107fe565b6108538185610809565b9350610863818560208601610814565b80840191505092915050565b600061087b828461083e565b915081905092915050565b600082825260208201905092915050565b7f537769746368626f61726420766572696669636174696f6e206661696c656400600082015250565b60006108cd601f83610886565b91506108d882610897565b602082019050919050565b600060208201905081810360008301526108fc816108c0565b9050919050565b61090c81610607565b811461091757600080fd5b50565b60008151905061092981610903565b92915050565b60006020828403121561094557610944610563565b5b60006109538482850161091a565b91505092915050565b7f4e487b7100000000000000000000000000000000000000000000000000000000600052601260045260246000fd5b60006109968261056d565b91506109a18361056d565b9250826109b1576109b061095c565b5b828206905092915050565b7f4e487b7100000000000000000000000000000000000000000000000000000000600052601160045260246000fd5b60006109f68261056d565b9150610a018361056d565b9250828201905080821115610a1957610a186109bc565b5b92915050565b6000604082019050610a3460008301856105dd565b610a416020830184610611565b939250505056fea2646970667358221220ee3424177906b1ee704e0931706421c3a447b945f3aada0b46111139e4432e2d64736f6c63430008180033",
  "linkReferences": {},
  "deployedLinkReferences": {}
}