{
  "_format": "hh-sol-artifact-1",
  "contractName": "DiceRoller",
  "sourceName": "contracts/DiceRoller.sol",
  "abi": [
    {
      "inputs": [
        {
          "internalType": "address",
          "name": "_switchboard",
          "type": "address"
        }
      ],
      "stateMutability": "nonpayable",
      "type": "constructor"
    },
    {
      "inputs": [
        {
          "internalType": "uint256",
          "name": "roundId",
          "type": "uint256"
        }
      ],
      "name": "AlreadyFulfilled",
      "type": "error"
    },
    {
      "inputs": [],
      "name": "InvalidRandomness",
      "type": "error"
    },
    {
      "inputs": [],
      "name": "OnlySwitchboard",
      "type": "error"
    },
    {
      "anonymous": false,
      "inputs": [
        {
          "indexed": true,
          "internalType": "uint256",
          "name": "roundId",
          "type": "uint256"
        },
        {
          "indexed": false,
          "internalType": "address",
          "name": "requester",
          "type": "address"
        }
      ],
      "name": "DiceRequested",
      "type": "event"
    },
    {
      "anonymous": false,
      "inputs": [
        {
          "indexed": true,
          "internalType": "uint256",
          "name": "roundId",
          "type": "uint256"
        },
        {
          "indexed": false,
          "internalType": "uint8",
          "name": "result",
          "type": "uint8"
        },
        {
          "indexed": false,
          "internalType": "bytes32",
          "name": "randomness",
          "type": "bytes32"
        }
      ],
      "name": "DiceRolled",
      "type": "event"
    },
    {
      "inputs": [
        {
          "internalType": "uint256",
          "name": "",
          "type": "uint256"
        }
      ],
      "name": "diceResults",
      "outputs": [
        {
          "internalType": "uint8",
          "name": "",
          "type": "uint8"
        }
      ],
      "stateMutability": "view",
      "type": "function"
    },
    {
      "inputs": [
        {
          "internalType": "uint256",
          "name": "_roundId",
          "type": "uint256"
        },
        {
          "internalType": "bytes32",
          "name": "_randomness",
          "type": "bytes32"
        }
      ],
      "name": "fulfillRandomness",
      "outputs": [],
      "stateMutability": "nonpayable",
      "type": "function"
    },
    {
      "inputs": [
        {
          "internalType": "uint256",
          "name": "roundId",
          "type": "uint256"
        }
      ],
      "name": "getDiceResult",
      "outputs": [
        {
          "internalType": "bool",
          "name": "isFulfilled",
          "type": "bool"
        },
        {
          "internalType": "uint8",
          "name": "result",
          "type": "uint8"
        }
      ],
      "stateMutability": "view",
      "type": "function"
    },
    {
      "inputs": [
        {
          "internalType": "uint256",
          "name": "",
          "type": "uint256"
        }
      ],
      "name": "randomnessProofs",
      "outputs": [
        {
          "internalType": "bytes32",
          "name": "",
          "type": "bytes32"
        }
      ],
      "stateMutability": "view",
      "type": "function"
    },
    {
      "inputs": [
        {
          "internalType": "uint256",
          "name": "roundId",
          "type": "uint256"
        }
      ],
      "name": "requestDiceRoll",
      "outputs": [],
      "stateMutability": "nonpayable",
      "type": "function"
    },
    {
      "inputs": [],
      "name": "switchboard",
      "outputs": [
        {
          "internalType": "address",
          "name": "",
          "type": "address"
        }
      ],
      "stateMutability": "view",
      "type": "function"
    }
  ],
  "bytecode": "0x60a060405234801561001057600080fd5b50604051610893380380610893833981810160405281019061003291906100cf565b8073ffffffffffffffffffffffffffffffffffffffff1660808173ffffffffffffffffffffffffffffffffffffffff1681525050506100fc565b600080fd5b600073ffffffffffffffffffffffffffffffffffffffff82169050919050565b600061009c82610071565b9050919050565b6100ac81610091565b81146100b757600080fd5b50565b6000815190506100c9816100a3565b92915050565b6000602082840312156100e5576100e461006c565b5b60006100f3848285016100ba565b91505092915050565b60805161077561011e60003960008181610150015261024e01526107756000f3fe608060405234801561001057600080fd5b50600436106100625760003560e01c806318ccf0991461006757806342e568da1461008557806352fb5f96146100b5578063a21c372e146100d1578063dc2e450c14610101578063e3f60a671461011d575b600080fd5b61006f61014e565b60405161007c919061048b565b60405180910390f35b61009f600480360381019061009a91906104e1565b610172565b6040516100ac919061052a565b60405180910390f35b6100cf60048036038101906100ca91906104e1565b610192565b005b6100eb60048036038101906100e691906104e1565b610234565b6040516100f8919061055e565b60405180910390f35b61011b600480360381019061011691906105a5565b61024c565b005b610137600480360381019061013291906104e1565b610416565b604051610145929190610600565b60405180910390f35b7f000000000000000000000000000000000000000000000000000000000000000081565b60006020528060005260406000206000915054906101000a900460ff1681565b600080600083815260200190815260200160002060009054906101000a900460ff1660ff16146101f957806040517fdd6ac7a60000000000000000000000000000000000000000000000000000000081526004016101f09190610638565b60405180910390fd5b807ff362b22d5728140d18bb2cfed3e5e06f188119da539a98b941b78ec1c0329fea33604051610229919061048b565b60405180910390a250565b60016020528060005260406000206000915090505481565b7f000000000000000000000000000000000000000000000000000000000000000073ffffffffffffffffffffffffffffffffffffffff163373ffffffffffffffffffffffffffffffffffffffff16146102d1576040517f31b2025100000000000000000000000000000000000000000000000000000000815260040160405180910390fd5b600080600084815260200190815260200160002060009054906101000a900460ff1660ff161461033857816040517fdd6ac7a600000000000000000000000000000000000000000000000000000000815260040161032f9190610638565b60405180910390fd5b6000801b8103610374576040517fff0b7a1700000000000000000000000000000000000000000000000000000000815260040160405180910390fd5b6000600160038360001c6103889190610682565b61039291906106e2565b90508060008085815260200190815260200160002060006101000a81548160ff021916908360ff160217905550816001600085815260200190815260200160002081905550827f958a38d540178a7aaebc3a126e6aa1851854e1fe2f80a6ca815668a807c061978284604051610409929190610716565b60405180910390a2505050565b60008060008084815260200190815260200160002060009054906101000a900460ff16905060008160ff1614159150915091565b600073ffffffffffffffffffffffffffffffffffffffff82169050919050565b60006104758261044a565b9050919050565b6104858161046a565b82525050565b60006020820190506104a0600083018461047c565b92915050565b600080fd5b6000819050919050565b6104be816104ab565b81146104c957600080fd5b50565b6000813590506104db816104b5565b92915050565b6000602082840312156104f7576104f66104a6565b5b6000610505848285016104cc565b91505092915050565b600060ff82169050919050565b6105248161050e565b82525050565b600060208201905061053f600083018461051b565b92915050565b6000819050919050565b61055881610545565b82525050565b6000602082019050610573600083018461054f565b92915050565b61058281610545565b811461058d57600080fd5b50565b60008135905061059f81610579565b92915050565b600080604083850312156105bc576105bb6104a6565b5b60006105ca858286016104cc565b92505060206105db85828601610590565b9150509250929050565b60008115159050919050565b6105fa816105e5565b82525050565b600060408201905061061560008301856105f1565b610622602083018461051b565b9392505050565b610632816104ab565b82525050565b600060208201905061064d6000830184610629565b92915050565b7f4e487b7100000000000000000000000000000000000000000000000000000000600052601260045260246000fd5b600061068d826104ab565b9150610698836104ab565b9250826106a8576106a7610653565b5b828206905092915050565b7f4e487b7100000000000000000000000000000000000000000000000000000000600052601160045260246000fd5b60006106ed826104ab565b91506106f8836104ab565b92508282019050808211156107105761070f6106b3565b5b92915050565b600060408201905061072b600083018561051b565b610738602083018461054f565b939250505056fea2646970667358221220b909899760099b46f92971ebf88edbad2f686724af1cd441e498101559d068d664736f6c63430008180033",
  "linkReferences": {},
  "deployedLinkReferences": {}
}