{
  "_format": "hh-sol-artifact-1",
  "contractName": "DiceRoller",
  "sourceName": "contracts/DiceRoller.sol",
  "abi": [
    {
      "inputs": [],
      "stateMutability": "nonpayable",
      "type": "constructor"
    },
    {
      "inputs": [
        {
          "internalType": "uint256",
          "name": "roundId",
          "type": "uint256"
        }
      ],
      "name": "AlreadyFulfilled",
      "type": "error"
    },
    {
      "inputs": [
        {
          "internalType": "uint256",
          "name": "roundId",
          "type": "uint256"
        }
      ],
      "name": "AlreadyRequested",
      "type": "error"
    },
    {
      "inputs": [],
      "name": "InvalidRandomness",
      "type": "error"
    },
    {
      "inputs": [],
      "name": "Unauthorized",
      "type": "error"
    },
    {
      "anonymous": false,
      "inputs": [
        {
          "indexed": true,
          "internalType": "uint256",
          "name": "roundId",
          "type": "uint256"
        },
        {
          "indexed": false,
          "internalType": "string",
          "name": "gameId",
          "type": "string"
        },
        {
          "indexed": false,
          "internalType": "bytes32",
          "name": "requestId",
          "type": "bytes32"
        },
        {
          "indexed": false,
          "internalType": "address",
          "name": "requester",
          "type": "address"
        }
      ],
      "name": "DiceRequested",
      "type": "event"
    },
    {
      "anonymous": false,
      "inputs": [
        {
          "indexed": true,
          "internalType": "uint256",
          "name": "roundId",
          "type": "uint256"
        },
        {
          "indexed": false,
          "internalType": "string",
          "name": "gameId",
          "type": "string"
        },
        {
          "indexed": false,
          "internalType": "uint8",
          "name": "result",
          "type": "uint8"
        },
        {
          "indexed": false,
          "internalType": "uint256",
          "name": "randomness",
          "type": "uint256"
        }
      ],
      "name": "DiceRolled",
      "type": "event"
    },
    {
      "inputs": [],
      "name": "SWITCHBOARD",
      "outputs": [
        {
          "internalType": "address",
          "name": "",
          "type": "address"
        }
      ],
      "stateMutability": "view",
      "type": "function"
    },
    {
      "inputs": [],
      "name": "SWITCHBOARD_QUEUE",
      "outputs": [
        {
          "internalType": "bytes32",
          "name": "",
          "type": "bytes32"
        }
      ],
      "stateMutability": "view",
      "type": "function"
    },
    {
      "inputs": [
        {
          "internalType": "uint256",
          "name": "",
          "type": "uint256"
        }
      ],
      "name": "diceResults",
      "outputs": [
        {
          "internalType": "uint8",
          "name": "",
          "type": "uint8"
        }
      ],
      "stateMutability": "view",
      "type": "function"
    },
    {
      "inputs": [
        {
          "internalType": "uint256",
          "name": "roundId",
          "type": "uint256"
        }
      ],
      "name": "getDiceStatus",
      "outputs": [
        {
          "internalType": "bool",
          "name": "requested",
          "type": "bool"
        },
        {
          "internalType": "bool",
          "name": "fulfilled",
          "type": "bool"
        },
        {
          "internalType": "uint8",
          "name": "result",
          "type": "uint8"
        }
      ],
      "stateMutability": "view",
      "type": "function"
    },
    {
      "inputs": [],
      "name": "owner",
      "outputs": [
        {
          "internalType": "address",
          "name": "",
          "type": "address"
        }
      ],
      "stateMutability": "view",
      "type": "function"
    },
    {
      "inputs": [
        {
          "internalType": "uint256",
          "name": "roundId",
          "type": "uint256"
        },
        {
          "internalType": "string",
          "name": "gameId",
          "type": "string"
        }
      ],
      "name": "requestDiceRoll",
      "outputs": [],
      "stateMutability": "nonpayable",
      "type": "function"
    },
    {
      "inputs": [
        {
          "internalType": "bytes32",
          "name": "",
          "type": "bytes32"
        }
      ],
      "name": "requests",
      "outputs": [
        {
          "internalType": "uint256",
          "name": "roundId",
          "type": "uint256"
        },
        {
          "internalType": "string",
          "name": "gameId",
          "type": "string"
        },
        {
          "internalType": "bool",
          "name": "fulfilled",
          "type": "bool"
        }
      ],
      "stateMutability": "view",
      "type": "function"
    },
    {
      "inputs": [
        {
          "internalType": "uint256",
          "name": "",
          "type": "uint256"
        }
      ],
      "name": "roundRequested",
      "outputs": [
        {
          "internalType": "bool",
          "name": "",
          "type": "bool"
        }
      ],
      "stateMutability": "view",
      "type": "function"
    },
    {
      "inputs": [
        {
          "internalType": "bytes",
          "name": "proof",
          "type": "bytes"
        },
        {
          "internalType": "bytes32",
          "name": "requestId",
          "type": "bytes32"
        }
      ],
      "name": "settleAndFulfill",
      "outputs": [],
      "stateMutability": "payable",
      "type": "function"
    }
  ],
  "bytecode": "0x608060405234801561001057600080fd5b50336000806101000a81548173ffffffffffffffffffffffffffffffffffffffff021916908373ffffffffffffffffffffffffffffffffffffffff160217905550611769806100606000396000f3fe6080604052600436106100865760003560e01c8063365c123d11610059578063365c123d1461014957806342e568da1461018657806359ed054d146101c35780638da5cb5b146101df5780639d8669851461020a57610086565b80631ca7e3461461008b5780631e1508fa146100b45780632537958c146100df5780632fd140ee1461011e575b600080fd5b34801561009757600080fd5b506100b260048036038101906100ad9190610a4b565b610249565b005b3480156100c057600080fd5b506100c9610518565b6040516100d69190610ac4565b60405180910390f35b3480156100eb57600080fd5b5061010660048036038101906101019190610adf565b61053f565b60405161011593929190610b43565b60405180910390f35b34801561012a57600080fd5b5061013361059b565b6040516101409190610bbb565b60405180910390f35b34801561015557600080fd5b50610170600480360381019061016b9190610adf565b6105b3565b60405161017d9190610bd6565b60405180910390f35b34801561019257600080fd5b506101ad60048036038101906101a89190610adf565b6105d3565b6040516101ba9190610bf1565b60405180910390f35b6101dd60048036038101906101d89190610c8e565b6105f3565b005b3480156101eb57600080fd5b506101f46108b9565b6040516102019190610bbb565b60405180910390f35b34801561021657600080fd5b50610231600480360381019061022c9190610cee565b6108dd565b60405161024093929190610dba565b60405180910390f35b6003600084815260200190815260200160002060009054906101000a900460ff16156102ac57826040517fa6461ae60000000000000000000000000000000000000000000000000000000081526004016102a39190610df8565b60405180910390fd5b60006002600085815260200190815260200160002060009054906101000a900460ff1660ff161461031457826040517fdd6ac7a600000000000000000000000000000000000000000000000000000000815260040161030b9190610df8565b60405180910390fd5b6000838383423360405160200161032f959493929190610ebb565b60405160208183030381529060405280519060200120905073b7f03eee7b9f56347e32cc71dad65b303d5a0e6773ffffffffffffffffffffffffffffffffffffffff1663f4bc77f782307f86807068432f186a147cf0b13a30067d386204ea9d6c8b04743ac2ef010b075260001b60016040518563ffffffff1660e01b81526004016103be9493929190610f60565b600060405180830381600087803b1580156103d857600080fd5b505af11580156103ec573d6000803e3d6000fd5b50505050604051806060016040528085815260200184848080601f016020809104026020016040519081016040528093929190818152602001838380828437600081840152601f19601f820116905080830192505050505050508152602001600015158152506001600083815260200190815260200160002060008201518160000155602082015181600101908161048491906111d6565b5060408201518160020160006101000a81548160ff02191690831515021790555090505060016003600086815260200190815260200160002060006101000a81548160ff021916908315150217905550837f920b0e4838a3db1d79b8af2abb5e087b8fbf22a1d55f7c5bb2b68d0e8e9c23ee8484843360405161050a94939291906112d5565b60405180910390a250505050565b7f86807068432f186a147cf0b13a30067d386204ea9d6c8b04743ac2ef010b075260001b81565b60008060006003600085815260200190815260200160002060009054906101000a900460ff1692506002600085815260200190815260200160002060009054906101000a900460ff16905060008160ff16141591509193909250565b73b7f03eee7b9f56347e32cc71dad65b303d5a0e6781565b60036020528060005260406000206000915054906101000a900460ff1681565b60026020528060005260406000206000915054906101000a900460ff1681565b60006001600083815260200190815260200160002090506000816000015403610648576040517f82b4290000000000000000000000000000000000000000000000000000000000815260040160405180910390fd5b8060020160009054906101000a900460ff16156106a05780600001546040517fdd6ac7a60000000000000000000000000000000000000000000000000000000081526004016106979190610df8565b60405180910390fd5b73b7f03eee7b9f56347e32cc71dad65b303d5a0e6773ffffffffffffffffffffffffffffffffffffffff16633065b55e3486866040518463ffffffff1660e01b81526004016106f0929190611353565b6000604051808303818588803b15801561070957600080fd5b505af115801561071d573d6000803e3d6000fd5b5050505050600073b7f03eee7b9f56347e32cc71dad65b303d5a0e6773ffffffffffffffffffffffffffffffffffffffff166305b19402846040518263ffffffff1660e01b81526004016107719190610ac4565b61010060405180830381865afa15801561078f573d6000803e3d6000fd5b505050506040513d601f19601f820116820180604052508101906107b39190611514565b905060008160e00151036107fc576040517f08c379a00000000000000000000000000000000000000000000000000000000081526004016107f39061158e565b60405180910390fd5b6000600160038360c0015161081191906115dd565b61081b919061163d565b905080600260008560000154815260200190815260200160002060006101000a81548160ff021916908360ff16021790555060018360020160006101000a81548160ff02191690831515021790555082600001547f58210cc71454673d56532cdb98a421704725067e2f4786b710d5a4666131609984600101838560c001516040516108a9939291906116f5565b60405180910390a2505050505050565b60008054906101000a900473ffffffffffffffffffffffffffffffffffffffff1681565b600160205280600052604060002060009150905080600001549080600101805461090690611003565b80601f016020809104026020016040519081016040528092919081815260200182805461093290611003565b801561097f5780601f106109545761010080835404028352916020019161097f565b820191906000526020600020905b81548152906001019060200180831161096257829003601f168201915b5050505050908060020160009054906101000a900460ff16905083565b6000604051905090565b600080fd5b600080fd5b6000819050919050565b6109c3816109b0565b81146109ce57600080fd5b50565b6000813590506109e0816109ba565b92915050565b600080fd5b600080fd5b600080fd5b60008083601f840112610a0b57610a0a6109e6565b5b8235905067ffffffffffffffff811115610a2857610a276109eb565b5b602083019150836001820283011115610a4457610a436109f0565b5b9250929050565b600080600060408486031215610a6457610a636109a6565b5b6000610a72868287016109d1565b935050602084013567ffffffffffffffff811115610a9357610a926109ab565b5b610a9f868287016109f5565b92509250509250925092565b6000819050919050565b610abe81610aab565b82525050565b6000602082019050610ad96000830184610ab5565b92915050565b600060208284031215610af557610af46109a6565b5b6000610b03848285016109d1565b91505092915050565b60008115159050919050565b610b2181610b0c565b82525050565b600060ff82169050919050565b610b3d81610b27565b82525050565b6000606082019050610b586000830186610b18565b610b656020830185610b18565b610b726040830184610b34565b949350505050565b600073ffffffffffffffffffffffffffffffffffffffff82169050919050565b6000610ba582610b7a565b9050919050565b610bb581610b9a565b82525050565b6000602082019050610bd06000830184610bac565b92915050565b6000602082019050610beb6000830184610b18565b92915050565b6000602082019050610c066000830184610b34565b92915050565b60008083601f840112610c2257610c216109e6565b5b8235905067ffffffffffffffff811115610c3f57610c3e6109eb565b5b602083019150836001820283011115610c5b57610c5a6109f0565b5b9250929050565b610c6b81610aab565b8114610c7657600080fd5b50565b600081359050610c8881610c62565b92915050565b600080600060408486031215610ca757610ca66109a6565b5b600084013567ffffffffffffffff811115610cc557610cc46109ab565b5b610cd186828701610c0c565b93509350506020610ce486828701610c79565b9150509250925092565b600060208284031215610d0457610d036109a6565b5b6000610d1284828501610c79565b91505092915050565b610d24816109b0565b82525050565b600081519050919050565b600082825260208201905092915050565b60005b83811015610d64578082015181840152602081019050610d49565b60008484015250505050565b6000601f19601f8301169050919050565b6000610d8c82610d2a565b610d968185610d35565b9350610da6818560208601610d46565b610daf81610d70565b840191505092915050565b6000606082019050610dcf6000830186610d1b565b8181036020830152610de18185610d81565b9050610df06040830184610b18565b949350505050565b6000602082019050610e0d6000830184610d1b565b92915050565b6000819050919050565b610e2e610e29826109b0565b610e13565b82525050565b600081905092915050565b82818337600083830152505050565b6000610e5a8385610e34565b9350610e67838584610e3f565b82840190509392505050565b60008160601b9050919050565b6000610e8b82610e73565b9050919050565b6000610e9d82610e80565b9050919050565b610eb5610eb082610b9a565b610e92565b82525050565b6000610ec78288610e1d565b602082019150610ed8828688610e4e565b9150610ee48285610e1d565b602082019150610ef48284610ea4565b6014820191508190509695505050505050565b6000819050919050565b600067ffffffffffffffff82169050919050565b6000819050919050565b6000610f4a610f45610f4084610f07565b610f25565b610f11565b9050919050565b610f5a81610f2f565b82525050565b6000608082019050610f756000830187610ab5565b610f826020830186610bac565b610f8f6040830185610ab5565b610f9c6060830184610f51565b95945050505050565b7f4e487b7100000000000000000000000000000000000000000000000000000000600052604160045260246000fd5b7f4e487b7100000000000000000000000000000000000000000000000000000000600052602260045260246000fd5b6000600282049050600182168061101b57607f821691505b60208210810361102e5761102d610fd4565b5b50919050565b60008190508160005260206000209050919050565b60006020601f8301049050919050565b600082821b905092915050565b6000600883026110967fffffffffffffffffffffffffffffffffffffffffffffffffffffffffffffffff82611059565b6110a08683611059565b95508019841693508086168417925050509392505050565b60006110d36110ce6110c9846109b0565b610f25565b6109b0565b9050919050565b6000819050919050565b6110ed836110b8565b6111016110f9826110da565b848454611066565b825550505050565b600090565b611116611109565b6111218184846110e4565b505050565b5b818110156111455761113a60008261110e565b600181019050611127565b5050565b601f82111561118a5761115b81611034565b61116484611049565b81016020851015611173578190505b61118761117f85611049565b830182611126565b50505b505050565b600082821c905092915050565b60006111ad6000198460080261118f565b1980831691505092915050565b60006111c6838361119c565b9150826002028217905092915050565b6111df82610d2a565b67ffffffffffffffff8111156111f8576111f7610fa5565b5b6112028254611003565b61120d828285611149565b600060209050601f831160018114611240576000841561122e578287015190505b61123885826111ba565b8655506112a0565b601f19841661124e86611034565b60005b8281101561127657848901518255600182019150602085019450602081019050611251565b86831015611293578489015161128f601f89168261119c565b8355505b6001600288020188555050505b505050505050565b60006112b48385610d35565b93506112c1838584610e3f565b6112ca83610d70565b840190509392505050565b600060608201905081810360008301526112f08186886112a8565b90506112ff6020830185610ab5565b61130c6040830184610bac565b95945050505050565b600082825260208201905092915050565b60006113328385611315565b935061133f838584610e3f565b61134883610d70565b840190509392505050565b6000602082019050818103600083015261136e818486611326565b90509392505050565b600080fd5b61138582610d70565b810181811067ffffffffffffffff821117156113a4576113a3610fa5565b5b80604052505050565b60006113b761099c565b90506113c3828261137c565b919050565b6000815190506113d781610c62565b92915050565b6000815190506113ec816109ba565b92915050565b6113fb81610b9a565b811461140657600080fd5b50565b600081519050611418816113f2565b92915050565b61142781610f11565b811461143257600080fd5b50565b6000815190506114448161141e565b92915050565b6000610100828403121561146157611460611377565b5b61146c6101006113ad565b9050600061147c848285016113c8565b6000830152506020611490848285016113dd565b60208301525060406114a484828501611409565b60408301525060606114b8848285016113dd565b60608301525060806114cc84828501611435565b60808301525060a06114e084828501611409565b60a08301525060c06114f4848285016113dd565b60c08301525060e0611508848285016113dd565b60e08301525092915050565b6000610100828403121561152b5761152a6109a6565b5b60006115398482850161144a565b91505092915050565b7f52616e646f6d6e657373206661696c656420746f20536574746c650000000000600082015250565b6000611578601b83610d35565b915061158382611542565b602082019050919050565b600060208201905081810360008301526115a78161156b565b9050919050565b7f4e487b7100000000000000000000000000000000000000000000000000000000600052601260045260246000fd5b60006115e8826109b0565b91506115f3836109b0565b925082611603576116026115ae565b5b828206905092915050565b7f4e487b7100000000000000000000000000000000000000000000000000000000600052601160045260246000fd5b6000611648826109b0565b9150611653836109b0565b925082820190508082111561166b5761166a61160e565b5b92915050565b6000815461167e81611003565b6116888186610d35565b945060018216600081146116a357600181146116b9576116ec565b60ff1983168652811515602002860193506116ec565b6116c285611034565b60005b838110156116e4578154818901526001820191506020810190506116c5565b808801955050505b50505092915050565b6000606082019050818103600083015261170f8186611671565b905061171e6020830185610b34565b61172b6040830184610d1b565b94935050505056fea2646970667358221220499a3762d59917993faff7acba65c55c05605adec5abf99af20a00bf289ed8dd64736f6c63430008180033",
  "linkReferences": {},
  "deployedLinkReferences": {}
}