{
  "_format": "hh-sol-artifact-1",
  "contractName": "DiceRoller",
  "sourceName": "contracts/DiceRoller.sol",
  "abi": [
    {
      "inputs": [
        {
          "internalType": "address",
          "name": "_switchboard",
          "type": "address"
        },
        {
          "internalType": "bytes32",
          "name": "_queueId",
          "type": "bytes32"
        }
      ],
      "stateMutability": "nonpayable",
      "type": "constructor"
    },
    {
      "inputs": [
        {
          "internalType": "uint256",
          "name": "roundId",
          "type": "uint256"
        }
      ],
      "name": "AlreadyFulfilled",
      "type": "error"
    },
    {
      "inputs": [],
      "name": "InvalidRandomness",
      "type": "error"
    },
    {
      "inputs": [],
      "name": "RandomnessNotSettled",
      "type": "error"
    },
    {
      "anonymous": false,
      "inputs": [
        {
          "indexed": true,
          "internalType": "uint256",
          "name": "roundId",
          "type": "uint256"
        },
        {
          "indexed": false,
          "internalType": "address",
          "name": "requester",
          "type": "address"
        }
      ],
      "name": "DiceRequested",
      "type": "event"
    },
    {
      "anonymous": false,
      "inputs": [
        {
          "indexed": true,
          "internalType": "uint256",
          "name": "roundId",
          "type": "uint256"
        },
        {
          "indexed": false,
          "internalType": "uint8",
          "name": "result",
          "type": "uint8"
        },
        {
          "indexed": false,
          "internalType": "uint256",
          "name": "randomness",
          "type": "uint256"
        }
      ],
      "name": "DiceRolled",
      "type": "event"
    },
    {
      "inputs": [
        {
          "internalType": "uint256",
          "name": "",
          "type": "uint256"
        }
      ],
      "name": "diceResults",
      "outputs": [
        {
          "internalType": "uint8",
          "name": "",
          "type": "uint8"
        }
      ],
      "stateMutability": "view",
      "type": "function"
    },
    {
      "inputs": [
        {
          "internalType": "uint256",
          "name": "roundId",
          "type": "uint256"
        },
        {
          "internalType": "bytes",
          "name": "proof",
          "type": "bytes"
        }
      ],
      "name": "fulfillRandomness",
      "outputs": [],
      "stateMutability": "nonpayable",
      "type": "function"
    },
    {
      "inputs": [
        {
          "internalType": "uint256",
          "name": "roundId",
          "type": "uint256"
        }
      ],
      "name": "getDiceResult",
      "outputs": [
        {
          "internalType": "bool",
          "name": "isFulfilled",
          "type": "bool"
        },
        {
          "internalType": "uint8",
          "name": "result",
          "type": "uint8"
        }
      ],
      "stateMutability": "view",
      "type": "function"
    },
    {
      "inputs": [],
      "name": "queueId",
      "outputs": [
        {
          "internalType": "bytes32",
          "name": "",
          "type": "bytes32"
        }
      ],
      "stateMutability": "view",
      "type": "function"
    },
    {
      "inputs": [
        {
          "internalType": "uint256",
          "name": "roundId",
          "type": "uint256"
        }
      ],
      "name": "requestDiceRoll",
      "outputs": [],
      "stateMutability": "nonpayable",
      "type": "function"
    },
    {
      "inputs": [],
      "name": "switchboard",
      "outputs": [
        {
          "internalType": "contract ISwitchboard",
          "name": "",
          "type": "address"
        }
      ],
      "stateMutability": "view",
      "type": "function"
    }
  ],
  "bytecode": "0x60c060405234801561001057600080fd5b506040516109913803806109918339818101604052810190610032919061010e565b8173ffffffffffffffffffffffffffffffffffffffff1660808173ffffffffffffffffffffffffffffffffffffffff16815250508060a08181525050505061014e565b600080fd5b600073ffffffffffffffffffffffffffffffffffffffff82169050919050565b60006100a58261007a565b9050919050565b6100b58161009a565b81146100c057600080fd5b50565b6000815190506100d2816100ac565b92915050565b6000819050919050565b6100eb816100d8565b81146100f657600080fd5b50565b600081519050610108816100e2565b92915050565b6000806040838503121561012557610124610075565b5b6000610133858286016100c3565b9250506020610144858286016100f9565b9150509250929050565b60805160a05161081e61017360003960006102240152600061013e015261081e6000f3fe608060405234801561001057600080fd5b50600436106100625760003560e01c806318ccf0991461006757806342e568da1461008557806352fb5f96146100b557806362638cf4146100d1578063b3f6b99a146100ef578063e3f60a671461010b575b600080fd5b61006f61013c565b60405161007c9190610442565b60405180910390f35b61009f600480360381019061009a919061049d565b610160565b6040516100ac91906104e6565b60405180910390f35b6100cf60048036038101906100ca919061049d565b610180565b005b6100d9610222565b6040516100e6919061051a565b60405180910390f35b6101096004803603810190610104919061059a565b610246565b005b6101256004803603810190610120919061049d565b61038f565b604051610133929190610615565b60405180910390f35b7f000000000000000000000000000000000000000000000000000000000000000081565b60006020528060005260406000206000915054906101000a900460ff1681565b600080600083815260200190815260200160002060009054906101000a900460ff1660ff16146101e757806040517fdd6ac7a60000000000000000000000000000000000000000000000000000000081526004016101de919061064d565b60405180910390fd5b807ff362b22d5728140d18bb2cfed3e5e06f188119da539a98b941b78ec1c0329fea336040516102179190610689565b60405180910390a250565b7f000000000000000000000000000000000000000000000000000000000000000081565b600080600085815260200190815260200160002060009054906101000a900460ff1660ff16146102ad57826040517fdd6ac7a60000000000000000000000000000000000000000000000000000000081526004016102a4919061064d565b60405180910390fd5b600082826040516102bf9291906106e3565b604051809103902060001c905060008103610306576040517fff0b7a1700000000000000000000000000000000000000000000000000000000815260040160405180910390fd5b60006001600383610317919061072b565b610321919061078b565b90508060008087815260200190815260200160002060006101000a81548160ff021916908360ff160217905550847fe5584beec352cc20636d233f1215e6b2a2700dedb802cb210fdb129de7e942bb82846040516103809291906107bf565b60405180910390a25050505050565b60008060008084815260200190815260200160002060009054906101000a900460ff16905060008160ff1614159150915091565b600073ffffffffffffffffffffffffffffffffffffffff82169050919050565b6000819050919050565b60006104086104036103fe846103c3565b6103e3565b6103c3565b9050919050565b600061041a826103ed565b9050919050565b600061042c8261040f565b9050919050565b61043c81610421565b82525050565b60006020820190506104576000830184610433565b92915050565b600080fd5b600080fd5b6000819050919050565b61047a81610467565b811461048557600080fd5b50565b60008135905061049781610471565b92915050565b6000602082840312156104b3576104b261045d565b5b60006104c184828501610488565b91505092915050565b600060ff82169050919050565b6104e0816104ca565b82525050565b60006020820190506104fb60008301846104d7565b92915050565b6000819050919050565b61051481610501565b82525050565b600060208201905061052f600083018461050b565b92915050565b600080fd5b600080fd5b600080fd5b60008083601f84011261055a57610559610535565b5b8235905067ffffffffffffffff8111156105775761057661053a565b5b6020830191508360018202830111156105935761059261053f565b5b9250929050565b6000806000604084860312156105b3576105b261045d565b5b60006105c186828701610488565b935050602084013567ffffffffffffffff8111156105e2576105e1610462565b5b6105ee86828701610544565b92509250509250925092565b60008115159050919050565b61060f816105fa565b82525050565b600060408201905061062a6000830185610606565b61063760208301846104d7565b9392505050565b61064781610467565b82525050565b6000602082019050610662600083018461063e565b92915050565b6000610673826103c3565b9050919050565b61068381610668565b82525050565b600060208201905061069e600083018461067a565b92915050565b600081905092915050565b82818337600083830152505050565b60006106ca83856106a4565b93506106d78385846106af565b82840190509392505050565b60006106f08284866106be565b91508190509392505050565b7f4e487b7100000000000000000000000000000000000000000000000000000000600052601260045260246000fd5b600061073682610467565b915061074183610467565b925082610751576107506106fc565b5b828206905092915050565b7f4e487b7100000000000000000000000000000000000000000000000000000000600052601160045260246000fd5b600061079682610467565b91506107a183610467565b92508282019050808211156107b9576107b861075c565b5b92915050565b60006040820190506107d460008301856104d7565b6107e1602083018461063e565b939250505056fea26469706673582212204d0cc1f5ca6c1e733f93eda39da042bda2af6d792c5073f666bb984f7baafe0664736f6c63430008180033",
  "linkReferences": {},
  "deployedLinkReferences": {}
}