{
  "_format": "hh-sol-artifact-1",
  "contractName": "DiceRoller",
  "sourceName": "contracts/DiceRoller.sol",
  "abi": [
    {
      "inputs": [
        {
          "internalType": "uint256",
          "name": "roundId",
          "type": "uint256"
        }
      ],
      "name": "AlreadyFulfilled",
      "type": "error"
    },
    {
      "inputs": [
        {
          "internalType": "uint256",
          "name": "roundId",
          "type": "uint256"
        }
      ],
      "name": "AlreadyRequested",
      "type": "error"
    },
    {
      "inputs": [],
      "name": "InvalidRandomness",
      "type": "error"
    },
    {
      "inputs": [],
      "name": "Unauthorized",
      "type": "error"
    },
    {
      "anonymous": false,
      "inputs": [
        {
          "indexed": true,
          "internalType": "uint256",
          "name": "roundId",
          "type": "uint256"
        },
        {
          "indexed": false,
          "internalType": "string",
          "name": "gameId",
          "type": "string"
        },
        {
          "indexed": false,
          "internalType": "bytes32",
          "name": "requestId",
          "type": "bytes32"
        },
        {
          "indexed": false,
          "internalType": "address",
          "name": "requester",
          "type": "address"
        }
      ],
      "name": "DiceRequested",
      "type": "event"
    },
    {
      "anonymous": false,
      "inputs": [
        {
          "indexed": true,
          "internalType": "uint256",
          "name": "roundId",
          "type": "uint256"
        },
        {
          "indexed": false,
          "internalType": "string",
          "name": "gameId",
          "type": "string"
        },
        {
          "indexed": false,
          "internalType": "uint8",
          "name": "result",
          "type": "uint8"
        },
        {
          "indexed": false,
          "internalType": "uint256",
          "name": "randomness",
          "type": "uint256"
        }
      ],
      "name": "DiceRolled",
      "type": "event"
    },
    {
      "inputs": [],
      "name": "ORACLE",
      "outputs": [
        {
          "internalType": "address",
          "name": "",
          "type": "address"
        }
      ],
      "stateMutability": "view",
      "type": "function"
    },
    {
      "inputs": [],
      "name": "SWITCHBOARD",
      "outputs": [
        {
          "internalType": "address",
          "name": "",
          "type": "address"
        }
      ],
      "stateMutability": "view",
      "type": "function"
    },
    {
      "inputs": [
        {
          "internalType": "uint256",
          "name": "",
          "type": "uint256"
        }
      ],
      "name": "diceResults",
      "outputs": [
        {
          "internalType": "uint8",
          "name": "",
          "type": "uint8"
        }
      ],
      "stateMutability": "view",
      "type": "function"
    },
    {
      "inputs": [
        {
          "internalType": "uint256",
          "name": "roundId",
          "type": "uint256"
        }
      ],
      "name": "getDiceStatus",
      "outputs": [
        {
          "internalType": "bool",
          "name": "requested",
          "type": "bool"
        },
        {
          "internalType": "bool",
          "name": "fulfilled",
          "type": "bool"
        },
        {
          "internalType": "uint8",
          "name": "result",
          "type": "uint8"
        }
      ],
      "stateMutability": "view",
      "type": "function"
    },
    {
      "inputs": [
        {
          "internalType": "uint256",
          "name": "roundId",
          "type": "uint256"
        },
        {
          "internalType": "string",
          "name": "gameId",
          "type": "string"
        }
      ],
      "name": "requestDiceRoll",
      "outputs": [],
      "stateMutability": "nonpayable",
      "type": "function"
    },
    {
      "inputs": [
        {
          "internalType": "bytes32",
          "name": "",
          "type": "bytes32"
        }
      ],
      "name": "requests",
      "outputs": [
        {
          "internalType": "uint256",
          "name": "roundId",
          "type": "uint256"
        },
        {
          "internalType": "string",
          "name": "gameId",
          "type": "string"
        },
        {
          "internalType": "bool",
          "name": "fulfilled",
          "type": "bool"
        }
      ],
      "stateMutability": "view",
      "type": "function"
    },
    {
      "inputs": [
        {
          "internalType": "uint256",
          "name": "",
          "type": "uint256"
        }
      ],
      "name": "roundRequested",
      "outputs": [
        {
          "internalType": "bool",
          "name": "",
          "type": "bool"
        }
      ],
      "stateMutability": "view",
      "type": "function"
    },
    {
      "inputs": [
        {
          "internalType": "bytes",
          "name": "proof",
          "type": "bytes"
        },
        {
          "internalType": "bytes32",
          "name": "requestId",
          "type": "bytes32"
        }
      ],
      "name": "settleAndFulfill",
      "outputs": [],
      "stateMutability": "payable",
      "type": "function"
    }
  ],
  "bytecode": "0x608060405234801561001057600080fd5b5061166a806100206000396000f3fe60806040526004361061007b5760003560e01c806338013f021161004e57806338013f021461015057806342e568da1461017b57806359ed054d146101b85780639d866985146101d45761007b565b80631ca7e346146100805780632537958c146100a95780632fd140ee146100e8578063365c123d14610113575b600080fd5b34801561008c57600080fd5b506100a760048036038101906100a291906109c6565b610213565b005b3480156100b557600080fd5b506100d060048036038101906100cb9190610a26565b6104d0565b6040516100df93929190610a8a565b60405180910390f35b3480156100f457600080fd5b506100fd61052c565b60405161010a9190610b02565b60405180910390f35b34801561011f57600080fd5b5061013a60048036038101906101359190610a26565b610544565b6040516101479190610b1d565b60405180910390f35b34801561015c57600080fd5b50610165610564565b6040516101729190610b02565b60405180910390f35b34801561018757600080fd5b506101a2600480360381019061019d9190610a26565b61057c565b6040516101af9190610b38565b60405180910390f35b6101d260048036038101906101cd9190610bdf565b61059c565b005b3480156101e057600080fd5b506101fb60048036038101906101f69190610c3f565b610858565b60405161020a93929190610d0b565b60405180910390f35b6002600084815260200190815260200160002060009054906101000a900460ff161561027657826040517fa6461ae600000000000000000000000000000000000000000000000000000000815260040161026d9190610d49565b60405180910390fd5b60006001600085815260200190815260200160002060009054906101000a900460ff1660ff16146102de57826040517fdd6ac7a60000000000000000000000000000000000000000000000000000000081526004016102d59190610d49565b60405180910390fd5b600083838342336040516020016102f9959493929190610e0c565b60405160208183030381529060405280519060200120905073b7f03eee7b9f56347e32cc71dad65b303d5a0e6773ffffffffffffffffffffffffffffffffffffffff16630cfcf87d8260007333a5066f65f66161beb3f827a3e40fce7d7a2e6c6040518463ffffffff1660e01b815260040161037793929190610ec0565b600060405180830381600087803b15801561039157600080fd5b505af11580156103a5573d6000803e3d6000fd5b50505050604051806060016040528085815260200184848080601f016020809104026020016040519081016040528093929190818152602001838380828437600081840152601f19601f8201169050808301925050505050505081526020016000151581525060008083815260200190815260200160002060008201518160000155602082015181600101908161043c9190611128565b5060408201518160020160006101000a81548160ff02191690831515021790555090505060016002600086815260200190815260200160002060006101000a81548160ff021916908315150217905550837f920b0e4838a3db1d79b8af2abb5e087b8fbf22a1d55f7c5bb2b68d0e8e9c23ee848484336040516104c29493929190611227565b60405180910390a250505050565b60008060006002600085815260200190815260200160002060009054906101000a900460ff1692506001600085815260200190815260200160002060009054906101000a900460ff16905060008160ff16141591509193909250565b73b7f03eee7b9f56347e32cc71dad65b303d5a0e6781565b60026020528060005260406000206000915054906101000a900460ff1681565b7333a5066f65f66161beb3f827a3e40fce7d7a2e6c81565b60016020528060005260406000206000915054906101000a900460ff1681565b6000806000838152602001908152602001600020905060008160000154036105f0576040517f82b4290000000000000000000000000000000000000000000000000000000000815260040160405180910390fd5b8060020160009054906101000a900460ff16156106485780600001546040517fdd6ac7a600000000000000000000000000000000000000000000000000000000815260040161063f9190610d49565b60405180910390fd5b73b7f03eee7b9f56347e32cc71dad65b303d5a0e6773ffffffffffffffffffffffffffffffffffffffff16633065b55e3486866040518463ffffffff1660e01b81526004016106989291906112a5565b6000604051808303818588803b1580156106b157600080fd5b505af11580156106c5573d6000803e3d6000fd5b5050505050600073b7f03eee7b9f56347e32cc71dad65b303d5a0e6773ffffffffffffffffffffffffffffffffffffffff166305b19402846040518263ffffffff1660e01b815260040161071991906112c9565b61010060405180830381865afa158015610737573d6000803e3d6000fd5b505050506040513d601f19601f8201168201806040525081019061075b9190611481565b905060008160e001510361079b576040517fff0b7a1700000000000000000000000000000000000000000000000000000000815260040160405180910390fd5b6000600160038360c001516107b091906114de565b6107ba919061153e565b905080600160008560000154815260200190815260200160002060006101000a81548160ff021916908360ff16021790555060018360020160006101000a81548160ff02191690831515021790555082600001547f58210cc71454673d56532cdb98a421704725067e2f4786b710d5a4666131609984600101838560c00151604051610848939291906115f6565b60405180910390a2505050505050565b600060205280600052604060002060009150905080600001549080600101805461088190610f55565b80601f01602080910402602001604051908101604052809291908181526020018280546108ad90610f55565b80156108fa5780601f106108cf576101008083540402835291602001916108fa565b820191906000526020600020905b8154815290600101906020018083116108dd57829003601f168201915b5050505050908060020160009054906101000a900460ff16905083565b6000604051905090565b600080fd5b600080fd5b6000819050919050565b61093e8161092b565b811461094957600080fd5b50565b60008135905061095b81610935565b92915050565b600080fd5b600080fd5b600080fd5b60008083601f84011261098657610985610961565b5b8235905067ffffffffffffffff8111156109a3576109a2610966565b5b6020830191508360018202830111156109bf576109be61096b565b5b9250929050565b6000806000604084860312156109df576109de610921565b5b60006109ed8682870161094c565b935050602084013567ffffffffffffffff811115610a0e57610a0d610926565b5b610a1a86828701610970565b92509250509250925092565b600060208284031215610a3c57610a3b610921565b5b6000610a4a8482850161094c565b91505092915050565b60008115159050919050565b610a6881610a53565b82525050565b600060ff82169050919050565b610a8481610a6e565b82525050565b6000606082019050610a9f6000830186610a5f565b610aac6020830185610a5f565b610ab96040830184610a7b565b949350505050565b600073ffffffffffffffffffffffffffffffffffffffff82169050919050565b6000610aec82610ac1565b9050919050565b610afc81610ae1565b82525050565b6000602082019050610b176000830184610af3565b92915050565b6000602082019050610b326000830184610a5f565b92915050565b6000602082019050610b4d6000830184610a7b565b92915050565b60008083601f840112610b6957610b68610961565b5b8235905067ffffffffffffffff811115610b8657610b85610966565b5b602083019150836001820283011115610ba257610ba161096b565b5b9250929050565b6000819050919050565b610bbc81610ba9565b8114610bc757600080fd5b50565b600081359050610bd981610bb3565b92915050565b600080600060408486031215610bf857610bf7610921565b5b600084013567ffffffffffffffff811115610c1657610c15610926565b5b610c2286828701610b53565b93509350506020610c3586828701610bca565b9150509250925092565b600060208284031215610c5557610c54610921565b5b6000610c6384828501610bca565b91505092915050565b610c758161092b565b82525050565b600081519050919050565b600082825260208201905092915050565b60005b83811015610cb5578082015181840152602081019050610c9a565b60008484015250505050565b6000601f19601f8301169050919050565b6000610cdd82610c7b565b610ce78185610c86565b9350610cf7818560208601610c97565b610d0081610cc1565b840191505092915050565b6000606082019050610d206000830186610c6c565b8181036020830152610d328185610cd2565b9050610d416040830184610a5f565b949350505050565b6000602082019050610d5e6000830184610c6c565b92915050565b6000819050919050565b610d7f610d7a8261092b565b610d64565b82525050565b600081905092915050565b82818337600083830152505050565b6000610dab8385610d85565b9350610db8838584610d90565b82840190509392505050565b60008160601b9050919050565b6000610ddc82610dc4565b9050919050565b6000610dee82610dd1565b9050919050565b610e06610e0182610ae1565b610de3565b82525050565b6000610e188288610d6e565b602082019150610e29828688610d9f565b9150610e358285610d6e565b602082019150610e458284610df5565b6014820191508190509695505050505050565b610e6181610ba9565b82525050565b6000819050919050565b600067ffffffffffffffff82169050919050565b6000819050919050565b6000610eaa610ea5610ea084610e67565b610e85565b610e71565b9050919050565b610eba81610e8f565b82525050565b6000606082019050610ed56000830186610e58565b610ee26020830185610eb1565b610eef6040830184610af3565b949350505050565b7f4e487b7100000000000000000000000000000000000000000000000000000000600052604160045260246000fd5b7f4e487b7100000000000000000000000000000000000000000000000000000000600052602260045260246000fd5b60006002820490506001821680610f6d57607f821691505b602082108103610f8057610f7f610f26565b5b50919050565b60008190508160005260206000209050919050565b60006020601f8301049050919050565b600082821b905092915050565b600060088302610fe87fffffffffffffffffffffffffffffffffffffffffffffffffffffffffffffffff82610fab565b610ff28683610fab565b95508019841693508086168417925050509392505050565b600061102561102061101b8461092b565b610e85565b61092b565b9050919050565b6000819050919050565b61103f8361100a565b61105361104b8261102c565b848454610fb8565b825550505050565b600090565b61106861105b565b611073818484611036565b505050565b5b818110156110975761108c600082611060565b600181019050611079565b5050565b601f8211156110dc576110ad81610f86565b6110b684610f9b565b810160208510156110c5578190505b6110d96110d185610f9b565b830182611078565b50505b505050565b600082821c905092915050565b60006110ff600019846008026110e1565b1980831691505092915050565b600061111883836110ee565b9150826002028217905092915050565b61113182610c7b565b67ffffffffffffffff81111561114a57611149610ef7565b5b6111548254610f55565b61115f82828561109b565b600060209050601f8311600181146111925760008415611180578287015190505b61118a858261110c565b8655506111f2565b601f1984166111a086610f86565b60005b828110156111c8578489015182556001820191506020850194506020810190506111a3565b868310156111e557848901516111e1601f8916826110ee565b8355505b6001600288020188555050505b505050505050565b60006112068385610c86565b9350611213838584610d90565b61121c83610cc1565b840190509392505050565b600060608201905081810360008301526112428186886111fa565b90506112516020830185610e58565b61125e6040830184610af3565b95945050505050565b600082825260208201905092915050565b60006112848385611267565b9350611291838584610d90565b61129a83610cc1565b840190509392505050565b600060208201905081810360008301526112c0818486611278565b90509392505050565b60006020820190506112de6000830184610e58565b92915050565b600080fd5b6112f282610cc1565b810181811067ffffffffffffffff8211171561131157611310610ef7565b5b80604052505050565b6000611324610917565b905061133082826112e9565b919050565b60008151905061134481610bb3565b92915050565b60008151905061135981610935565b92915050565b61136881610ae1565b811461137357600080fd5b50565b6000815190506113858161135f565b92915050565b61139481610e71565b811461139f57600080fd5b50565b6000815190506113b18161138b565b92915050565b600061010082840312156113ce576113cd6112e4565b5b6113d961010061131a565b905060006113e984828501611335565b60008301525060206113fd8482850161134a565b602083015250604061141184828501611376565b60408301525060606114258482850161134a565b6060830152506080611439848285016113a2565b60808301525060a061144d84828501611376565b60a08301525060c06114618482850161134a565b60c08301525060e06114758482850161134a565b60e08301525092915050565b6000610100828403121561149857611497610921565b5b60006114a6848285016113b7565b91505092915050565b7f4e487b7100000000000000000000000000000000000000000000000000000000600052601260045260246000fd5b60006114e98261092b565b91506114f48361092b565b925082611504576115036114af565b5b828206905092915050565b7f4e487b7100000000000000000000000000000000000000000000000000000000600052601160045260246000fd5b60006115498261092b565b91506115548361092b565b925082820190508082111561156c5761156b61150f565b5b92915050565b6000815461157f81610f55565b6115898186610c86565b945060018216600081146115a457600181146115ba576115ed565b60ff1983168652811515602002860193506115ed565b6115c385610f86565b60005b838110156115e5578154818901526001820191506020810190506115c6565b808801955050505b50505092915050565b600060608201905081810360008301526116108186611572565b905061161f6020830185610a7b565b61162c6040830184610c6c565b94935050505056fea26469706673582212206bff2097b7b382834304e84827048f9526503cd05bd57ff18785aab37eaecd9464736f6c63430008180033",
  "linkReferences": {},
  "deployedLinkReferences": {}
}