{
  "_format": "hh-sol-artifact-1",
  "contractName": "DiceRoller",
  "sourceName": "contracts/DiceRoller.sol",
  "abi": [
    {
      "inputs": [],
      "stateMutability": "nonpayable",
      "type": "constructor"
    },
    {
      "inputs": [
        {
          "internalType": "uint256",
          "name": "roundId",
          "type": "uint256"
        }
      ],
      "name": "AlreadyFulfilled",
      "type": "error"
    },
    {
      "inputs": [
        {
          "internalType": "uint256",
          "name": "roundId",
          "type": "uint256"
        }
      ],
      "name": "AlreadyRequested",
      "type": "error"
    },
    {
      "inputs": [],
      "name": "InvalidRandomness",
      "type": "error"
    },
    {
      "inputs": [],
      "name": "Unauthorized",
      "type": "error"
    },
    {
      "anonymous": false,
      "inputs": [
        {
          "indexed": true,
          "internalType": "uint256",
          "name": "roundId",
          "type": "uint256"
        },
        {
          "indexed": false,
          "internalType": "string",
          "name": "gameId",
          "type": "string"
        },
        {
          "indexed": false,
          "internalType": "bytes32",
          "name": "requestId",
          "type": "bytes32"
        },
        {
          "indexed": false,
          "internalType": "address",
          "name": "requester",
          "type": "address"
        }
      ],
      "name": "DiceRequested",
      "type": "event"
    },
    {
      "anonymous": false,
      "inputs": [
        {
          "indexed": true,
          "internalType": "uint256",
          "name": "roundId",
          "type": "uint256"
        },
        {
          "indexed": false,
          "internalType": "string",
          "name": "gameId",
          "type": "string"
        },
        {
          "indexed": false,
          "internalType": "uint8",
          "name": "result",
          "type": "uint8"
        },
        {
          "indexed": false,
          "internalType": "uint256",
          "name": "randomness",
          "type": "uint256"
        }
      ],
      "name": "DiceRolled",
      "type": "event"
    },
    {
      "inputs": [],
      "name": "SWITCHBOARD",
      "outputs": [
        {
          "internalType": "address",
          "name": "",
          "type": "address"
        }
      ],
      "stateMutability": "view",
      "type": "function"
    },
    {
      "inputs": [],
      "name": "SWITCHBOARD_QUEUE",
      "outputs": [
        {
          "internalType": "bytes32",
          "name": "",
          "type": "bytes32"
        }
      ],
      "stateMutability": "view",
      "type": "function"
    },
    {
      "inputs": [],
      "name": "demoMode",
      "outputs": [
        {
          "internalType": "bool",
          "name": "",
          "type": "bool"
        }
      ],
      "stateMutability": "view",
      "type": "function"
    },
    {
      "inputs": [
        {
          "internalType": "uint256",
          "name": "",
          "type": "uint256"
        }
      ],
      "name": "diceResults",
      "outputs": [
        {
          "internalType": "uint8",
          "name": "",
          "type": "uint8"
        }
      ],
      "stateMutability": "view",
      "type": "function"
    },
    {
      "inputs": [
        {
          "internalType": "uint256",
          "name": "roundId",
          "type": "uint256"
        }
      ],
      "name": "getDiceStatus",
      "outputs": [
        {
          "internalType": "bool",
          "name": "requested",
          "type": "bool"
        },
        {
          "internalType": "bool",
          "name": "fulfilled",
          "type": "bool"
        },
        {
          "internalType": "uint8",
          "name": "result",
          "type": "uint8"
        }
      ],
      "stateMutability": "view",
      "type": "function"
    },
    {
      "inputs": [],
      "name": "owner",
      "outputs": [
        {
          "internalType": "address",
          "name": "",
          "type": "address"
        }
      ],
      "stateMutability": "view",
      "type": "function"
    },
    {
      "inputs": [
        {
          "internalType": "uint256",
          "name": "roundId",
          "type": "uint256"
        },
        {
          "internalType": "string",
          "name": "gameId",
          "type": "string"
        }
      ],
      "name": "requestDiceRoll",
      "outputs": [],
      "stateMutability": "nonpayable",
      "type": "function"
    },
    {
      "inputs": [
        {
          "internalType": "bytes32",
          "name": "",
          "type": "bytes32"
        }
      ],
      "name": "requests",
      "outputs": [
        {
          "internalType": "uint256",
          "name": "roundId",
          "type": "uint256"
        },
        {
          "internalType": "string",
          "name": "gameId",
          "type": "string"
        },
        {
          "internalType": "bool",
          "name": "fulfilled",
          "type": "bool"
        }
      ],
      "stateMutability": "view",
      "type": "function"
    },
    {
      "inputs": [
        {
          "internalType": "uint256",
          "name": "",
          "type": "uint256"
        }
      ],
      "name": "roundRequested",
      "outputs": [
        {
          "internalType": "bool",
          "name": "",
          "type": "bool"
        }
      ],
      "stateMutability": "view",
      "type": "function"
    },
    {
      "inputs": [
        {
          "internalType": "bool",
          "name": "_demoMode",
          "type": "bool"
        }
      ],
      "name": "setDemoMode",
      "outputs": [],
      "stateMutability": "nonpayable",
      "type": "function"
    },
    {
      "inputs": [
        {
          "internalType": "bytes",
          "name": "proof",
          "type": "bytes"
        },
        {
          "internalType": "bytes32",
          "name": "requestId",
          "type": "bytes32"
        }
      ],
      "name": "settleAndFulfill",
      "outputs": [],
      "stateMutability": "payable",
      "type": "function"
    }
  ],
  "bytecode": "0x60806040526001600460006101000a81548160ff02191690831515021790555034801561002b57600080fd5b50336000806101000a81548173ffffffffffffffffffffffffffffffffffffffff021916908373ffffffffffffffffffffffffffffffffffffffff160217905550611a738061007b6000396000f3fe60806040526004361061009c5760003560e01c806342e568da1161006457806342e568da1461019c57806344ba06d5146101d957806359ed054d146102045780637edadd54146102205780638da5cb5b146102495780639d866985146102745761009c565b80631ca7e346146100a15780631e1508fa146100ca5780632537958c146100f55780632fd140ee14610134578063365c123d1461015f575b600080fd5b3480156100ad57600080fd5b506100c860048036038101906100c39190610c6e565b6102b3565b005b3480156100d657600080fd5b506100df610686565b6040516100ec9190610ce7565b60405180910390f35b34801561010157600080fd5b5061011c60048036038101906101179190610d02565b6106ad565b60405161012b93929190610d66565b60405180910390f35b34801561014057600080fd5b50610149610709565b6040516101569190610dde565b60405180910390f35b34801561016b57600080fd5b5061018660048036038101906101819190610d02565b610721565b6040516101939190610df9565b60405180910390f35b3480156101a857600080fd5b506101c360048036038101906101be9190610d02565b610741565b6040516101d09190610e14565b60405180910390f35b3480156101e557600080fd5b506101ee610761565b6040516101fb9190610df9565b60405180910390f35b61021e60048036038101906102199190610eb1565b610774565b005b34801561022c57600080fd5b5061024760048036038101906102429190610f3d565b610a3a565b005b34801561025557600080fd5b5061025e610adc565b60405161026b9190610dde565b60405180910390f35b34801561028057600080fd5b5061029b60048036038101906102969190610f6a565b610b00565b6040516102aa93929190611036565b60405180910390f35b6003600084815260200190815260200160002060009054906101000a900460ff161561031657826040517fa6461ae600000000000000000000000000000000000000000000000000000000815260040161030d9190611074565b60405180910390fd5b60006002600085815260200190815260200160002060009054906101000a900460ff1660ff161461037e57826040517fdd6ac7a60000000000000000000000000000000000000000000000000000000081526004016103759190611074565b60405180910390fd5b60008383834233604051602001610399959493929190611137565b604051602081830303815290604052805190602001209050600460009054906101000a900460ff16156104b4576000424433876040516020016103df9493929190611183565b6040516020818303038152906040528051906020012060001c90506000600160038361040b9190611200565b6104159190611260565b9050806002600088815260200190815260200160002060006101000a81548160ff021916908360ff16021790555060016003600088815260200190815260200160002060006101000a81548160ff021916908315150217905550857f58210cc71454673d56532cdb98a421704725067e2f4786b710d5a46661316099868684866040516104a594939291906112c1565b60405180910390a25050610680565b73b7f03eee7b9f56347e32cc71dad65b303d5a0e6773ffffffffffffffffffffffffffffffffffffffff1663f4bc77f782307f86807068432f186a147cf0b13a30067d386204ea9d6c8b04743ac2ef010b075260001b60016040518563ffffffff1660e01b815260040161052b949392919061135a565b600060405180830381600087803b15801561054557600080fd5b505af1158015610559573d6000803e3d6000fd5b50505050604051806060016040528085815260200184848080601f016020809104026020016040519081016040528093929190818152602001838380828437600081840152601f19601f82011690508083019250505050505050815260200160001515815250600160008381526020019081526020016000206000820151816000015560208201518160010190816105f191906115d0565b5060408201518160020160006101000a81548160ff02191690831515021790555090505060016003600086815260200190815260200160002060006101000a81548160ff021916908315150217905550837f920b0e4838a3db1d79b8af2abb5e087b8fbf22a1d55f7c5bb2b68d0e8e9c23ee8484843360405161067794939291906116a2565b60405180910390a25b50505050565b7f86807068432f186a147cf0b13a30067d386204ea9d6c8b04743ac2ef010b075260001b81565b60008060006003600085815260200190815260200160002060009054906101000a900460ff1692506002600085815260200190815260200160002060009054906101000a900460ff16905060008160ff16141591509193909250565b73b7f03eee7b9f56347e32cc71dad65b303d5a0e6781565b60036020528060005260406000206000915054906101000a900460ff1681565b60026020528060005260406000206000915054906101000a900460ff1681565b600460009054906101000a900460ff1681565b600060016000838152602001908152602001600020905060008160000154036107c9576040517f82b4290000000000000000000000000000000000000000000000000000000000815260040160405180910390fd5b8060020160009054906101000a900460ff16156108215780600001546040517fdd6ac7a60000000000000000000000000000000000000000000000000000000081526004016108189190611074565b60405180910390fd5b73b7f03eee7b9f56347e32cc71dad65b303d5a0e6773ffffffffffffffffffffffffffffffffffffffff16633065b55e3486866040518463ffffffff1660e01b8152600401610871929190611720565b6000604051808303818588803b15801561088a57600080fd5b505af115801561089e573d6000803e3d6000fd5b5050505050600073b7f03eee7b9f56347e32cc71dad65b303d5a0e6773ffffffffffffffffffffffffffffffffffffffff166305b19402846040518263ffffffff1660e01b81526004016108f29190610ce7565b61010060405180830381865afa158015610910573d6000803e3d6000fd5b505050506040513d601f19601f8201168201806040525081019061093491906118e1565b905060008160e001510361097d576040517f08c379a00000000000000000000000000000000000000000000000000000000081526004016109749061195b565b60405180910390fd5b6000600160038360c001516109929190611200565b61099c9190611260565b905080600260008560000154815260200190815260200160002060006101000a81548160ff021916908360ff16021790555060018360020160006101000a81548160ff02191690831515021790555082600001547f58210cc71454673d56532cdb98a421704725067e2f4786b710d5a4666131609984600101838560c00151604051610a2a939291906119ff565b60405180910390a2505050505050565b60008054906101000a900473ffffffffffffffffffffffffffffffffffffffff1673ffffffffffffffffffffffffffffffffffffffff163373ffffffffffffffffffffffffffffffffffffffff1614610abf576040517f82b4290000000000000000000000000000000000000000000000000000000000815260040160405180910390fd5b80600460006101000a81548160ff02191690831515021790555050565b60008054906101000a900473ffffffffffffffffffffffffffffffffffffffff1681565b6001602052806000526040600020600091509050806000015490806001018054610b29906113fd565b80601f0160208091040260200160405190810160405280929190818152602001828054610b55906113fd565b8015610ba25780601f10610b7757610100808354040283529160200191610ba2565b820191906000526020600020905b815481529060010190602001808311610b8557829003601f168201915b5050505050908060020160009054906101000a900460ff16905083565b6000604051905090565b600080fd5b600080fd5b6000819050919050565b610be681610bd3565b8114610bf157600080fd5b50565b600081359050610c0381610bdd565b92915050565b600080fd5b600080fd5b600080fd5b60008083601f840112610c2e57610c2d610c09565b5b8235905067ffffffffffffffff811115610c4b57610c4a610c0e565b5b602083019150836001820283011115610c6757610c66610c13565b5b9250929050565b600080600060408486031215610c8757610c86610bc9565b5b6000610c9586828701610bf4565b935050602084013567ffffffffffffffff811115610cb657610cb5610bce565b5b610cc286828701610c18565b92509250509250925092565b6000819050919050565b610ce181610cce565b82525050565b6000602082019050610cfc6000830184610cd8565b92915050565b600060208284031215610d1857610d17610bc9565b5b6000610d2684828501610bf4565b91505092915050565b60008115159050919050565b610d4481610d2f565b82525050565b600060ff82169050919050565b610d6081610d4a565b82525050565b6000606082019050610d7b6000830186610d3b565b610d886020830185610d3b565b610d956040830184610d57565b949350505050565b600073ffffffffffffffffffffffffffffffffffffffff82169050919050565b6000610dc882610d9d565b9050919050565b610dd881610dbd565b82525050565b6000602082019050610df36000830184610dcf565b92915050565b6000602082019050610e0e6000830184610d3b565b92915050565b6000602082019050610e296000830184610d57565b92915050565b60008083601f840112610e4557610e44610c09565b5b8235905067ffffffffffffffff811115610e6257610e61610c0e565b5b602083019150836001820283011115610e7e57610e7d610c13565b5b9250929050565b610e8e81610cce565b8114610e9957600080fd5b50565b600081359050610eab81610e85565b92915050565b600080600060408486031215610eca57610ec9610bc9565b5b600084013567ffffffffffffffff811115610ee857610ee7610bce565b5b610ef486828701610e2f565b93509350506020610f0786828701610e9c565b9150509250925092565b610f1a81610d2f565b8114610f2557600080fd5b50565b600081359050610f3781610f11565b92915050565b600060208284031215610f5357610f52610bc9565b5b6000610f6184828501610f28565b91505092915050565b600060208284031215610f8057610f7f610bc9565b5b6000610f8e84828501610e9c565b91505092915050565b610fa081610bd3565b82525050565b600081519050919050565b600082825260208201905092915050565b60005b83811015610fe0578082015181840152602081019050610fc5565b60008484015250505050565b6000601f19601f8301169050919050565b600061100882610fa6565b6110128185610fb1565b9350611022818560208601610fc2565b61102b81610fec565b840191505092915050565b600060608201905061104b6000830186610f97565b818103602083015261105d8185610ffd565b905061106c6040830184610d3b565b949350505050565b60006020820190506110896000830184610f97565b92915050565b6000819050919050565b6110aa6110a582610bd3565b61108f565b82525050565b600081905092915050565b82818337600083830152505050565b60006110d683856110b0565b93506110e38385846110bb565b82840190509392505050565b60008160601b9050919050565b6000611107826110ef565b9050919050565b6000611119826110fc565b9050919050565b61113161112c82610dbd565b61110e565b82525050565b60006111438288611099565b6020820191506111548286886110ca565b91506111608285611099565b6020820191506111708284611120565b6014820191508190509695505050505050565b600061118f8287611099565b60208201915061119f8286611099565b6020820191506111af8285611120565b6014820191506111bf8284611099565b60208201915081905095945050505050565b7f4e487b7100000000000000000000000000000000000000000000000000000000600052601260045260246000fd5b600061120b82610bd3565b915061121683610bd3565b925082611226576112256111d1565b5b828206905092915050565b7f4e487b7100000000000000000000000000000000000000000000000000000000600052601160045260246000fd5b600061126b82610bd3565b915061127683610bd3565b925082820190508082111561128e5761128d611231565b5b92915050565b60006112a08385610fb1565b93506112ad8385846110bb565b6112b683610fec565b840190509392505050565b600060608201905081810360008301526112dc818688611294565b90506112eb6020830185610d57565b6112f86040830184610f97565b95945050505050565b6000819050919050565b600067ffffffffffffffff82169050919050565b6000819050919050565b600061134461133f61133a84611301565b61131f565b61130b565b9050919050565b61135481611329565b82525050565b600060808201905061136f6000830187610cd8565b61137c6020830186610dcf565b6113896040830185610cd8565b611396606083018461134b565b95945050505050565b7f4e487b7100000000000000000000000000000000000000000000000000000000600052604160045260246000fd5b7f4e487b7100000000000000000000000000000000000000000000000000000000600052602260045260246000fd5b6000600282049050600182168061141557607f821691505b602082108103611428576114276113ce565b5b50919050565b60008190508160005260206000209050919050565b60006020601f8301049050919050565b600082821b905092915050565b6000600883026114907fffffffffffffffffffffffffffffffffffffffffffffffffffffffffffffffff82611453565b61149a8683611453565b95508019841693508086168417925050509392505050565b60006114cd6114c86114c384610bd3565b61131f565b610bd3565b9050919050565b6000819050919050565b6114e7836114b2565b6114fb6114f3826114d4565b848454611460565b825550505050565b600090565b611510611503565b61151b8184846114de565b505050565b5b8181101561153f57611534600082611508565b600181019050611521565b5050565b601f821115611584576115558161142e565b61155e84611443565b8101602085101561156d578190505b61158161157985611443565b830182611520565b50505b505050565b600082821c905092915050565b60006115a760001984600802611589565b1980831691505092915050565b60006115c08383611596565b9150826002028217905092915050565b6115d982610fa6565b67ffffffffffffffff8111156115f2576115f161139f565b5b6115fc82546113fd565b611607828285611543565b600060209050601f83116001811461163a5760008415611628578287015190505b61163285826115b4565b86555061169a565b601f1984166116488661142e565b60005b828110156116705784890151825560018201915060208501945060208101905061164b565b8683101561168d5784890151611689601f891682611596565b8355505b6001600288020188555050505b505050505050565b600060608201905081810360008301526116bd818688611294565b90506116cc6020830185610cd8565b6116d96040830184610dcf565b95945050505050565b600082825260208201905092915050565b60006116ff83856116e2565b935061170c8385846110bb565b61171583610fec565b840190509392505050565b6000602082019050818103600083015261173b8184866116f3565b90509392505050565b600080fd5b61175282610fec565b810181811067ffffffffffffffff821117156117715761177061139f565b5b80604052505050565b6000611784610bbf565b90506117908282611749565b919050565b6000815190506117a481610e85565b92915050565b6000815190506117b981610bdd565b92915050565b6117c881610dbd565b81146117d357600080fd5b50565b6000815190506117e5816117bf565b92915050565b6117f48161130b565b81146117ff57600080fd5b50565b600081519050611811816117eb565b92915050565b6000610100828403121561182e5761182d611744565b5b61183961010061177a565b9050600061184984828501611795565b600083015250602061185d848285016117aa565b6020830152506040611871848285016117d6565b6040830152506060611885848285016117aa565b606083015250608061189984828501611802565b60808301525060a06118ad848285016117d6565b60a08301525060c06118c1848285016117aa565b60c08301525060e06118d5848285016117aa565b60e08301525092915050565b600061010082840312156118f8576118f7610bc9565b5b600061190684828501611817565b91505092915050565b7f52616e646f6d6e657373206661696c656420746f20536574746c650000000000600082015250565b6000611945601b83610fb1565b91506119508261190f565b602082019050919050565b6000602082019050818103600083015261197481611938565b9050919050565b60008154611988816113fd565b6119928186610fb1565b945060018216600081146119ad57600181146119c3576119f6565b60ff1983168652811515602002860193506119f6565b6119cc8561142e565b60005b838110156119ee578154818901526001820191506020810190506119cf565b808801955050505b50505092915050565b60006060820190508181036000830152611a19818661197b565b9050611a286020830185610d57565b611a356040830184610f97565b94935050505056fea26469706673582212205a563c4dc7633c604e45201d46087a805a38b0b249df1c73ec7c89ab77f57a2c64736f6c63430008180033",
  "linkReferences": {},
  "deployedLinkReferences": {}
}