{
  "_format": "hh-sol-artifact-1",
  "contractName": "DiceRoller",
  "sourceName": "contracts/DiceRoller.sol",
  "abi": [
    {
      "inputs": [],
      "stateMutability": "nonpayable",
      "type": "constructor"
    },
    {
      "inputs": [
        {
          "internalType": "uint256",
          "name": "roundId",
          "type": "uint256"
        }
      ],
      "name": "AlreadyFulfilled",
      "type": "error"
    },
    {
      "inputs": [],
      "name": "InvalidResult",
      "type": "error"
    },
    {
      "inputs": [],
      "name": "NotOwner",
      "type": "error"
    },
    {
      "anonymous": false,
      "inputs": [
        {
          "indexed": true,
          "internalType": "uint256",
          "name": "roundId",
          "type": "uint256"
        },
        {
          "indexed": false,
          "internalType": "uint256",
          "name": "timestamp",
          "type": "uint256"
        }
      ],
      "name": "DiceRequested",
      "type": "event"
    },
    {
      "anonymous": false,
      "inputs": [
        {
          "indexed": true,
          "internalType": "uint256",
          "name": "roundId",
          "type": "uint256"
        },
        {
          "indexed": false,
          "internalType": "uint8",
          "name": "result",
          "type": "uint8"
        },
        {
          "indexed": false,
          "internalType": "bytes32",
          "name": "randomness",
          "type": "bytes32"
        }
      ],
      "name": "DiceRolled",
      "type": "event"
    },
    {
      "inputs": [
        {
          "internalType": "uint256",
          "name": "",
          "type": "uint256"
        }
      ],
      "name": "diceResult",
      "outputs": [
        {
          "internalType": "uint8",
          "name": "",
          "type": "uint8"
        }
      ],
      "stateMutability": "view",
      "type": "function"
    },
    {
      "inputs": [
        {
          "internalType": "uint256",
          "name": "",
          "type": "uint256"
        }
      ],
      "name": "fulfilled",
      "outputs": [
        {
          "internalType": "bool",
          "name": "",
          "type": "bool"
        }
      ],
      "stateMutability": "view",
      "type": "function"
    },
    {
      "inputs": [
        {
          "internalType": "uint256",
          "name": "roundId",
          "type": "uint256"
        }
      ],
      "name": "getDiceResult",
      "outputs": [
        {
          "internalType": "bool",
          "name": "isFulfilled",
          "type": "bool"
        },
        {
          "internalType": "uint8",
          "name": "result",
          "type": "uint8"
        },
        {
          "internalType": "bytes32",
          "name": "proof",
          "type": "bytes32"
        }
      ],
      "stateMutability": "view",
      "type": "function"
    },
    {
      "inputs": [],
      "name": "owner",
      "outputs": [
        {
          "internalType": "address",
          "name": "",
          "type": "address"
        }
      ],
      "stateMutability": "view",
      "type": "function"
    },
    {
      "inputs": [
        {
          "internalType": "uint256",
          "name": "",
          "type": "uint256"
        }
      ],
      "name": "randomnessProof",
      "outputs": [
        {
          "internalType": "bytes32",
          "name": "",
          "type": "bytes32"
        }
      ],
      "stateMutability": "view",
      "type": "function"
    },
    {
      "inputs": [
        {
          "internalType": "uint256",
          "name": "roundId",
          "type": "uint256"
        }
      ],
      "name": "requestDiceRoll",
      "outputs": [
        {
          "internalType": "uint256",
          "name": "",
          "type": "uint256"
        }
      ],
      "stateMutability": "nonpayable",
      "type": "function"
    },
    {
      "inputs": [
        {
          "internalType": "uint256",
          "name": "roundId",
          "type": "uint256"
        },
        {
          "internalType": "bytes32",
          "name": "randomness",
          "type": "bytes32"
        }
      ],
      "name": "submitVerifiedRoll",
      "outputs": [],
      "stateMutability": "nonpayable",
      "type": "function"
    }
  ],
  "bytecode": "0x608060405234801561001057600080fd5b50336000806101000a81548173ffffffffffffffffffffffffffffffffffffffff021916908373ffffffffffffffffffffffffffffffffffffffff160217905550610904806100606000396000f3fe608060405234801561001057600080fd5b506004361061007d5760003560e01c80638da5cb5b1161005b5780638da5cb5b146100fe578063e300e43e1461011c578063e3f60a671461014c578063e63ce3cd1461017e5761007d565b80631bc404d61461008257806352fb5f96146100b25780635f2270a8146100e2575b600080fd5b61009c600480360381019061009791906105eb565b6101ae565b6040516100a99190610633565b60405180910390f35b6100cc60048036038101906100c791906105eb565b6101ce565b6040516100d9919061065d565b60405180910390f35b6100fc60048036038101906100f791906106ae565b6102f9565b005b6101066104ec565b604051610113919061072f565b60405180910390f35b610136600480360381019061013191906105eb565b610510565b6040516101439190610766565b60405180910390f35b610166600480360381019061016191906105eb565b610530565b60405161017593929190610790565b60405180910390f35b610198600480360381019061019391906105eb565b610598565b6040516101a591906107c7565b60405180910390f35b60026020528060005260406000206000915054906101000a900460ff1681565b60008060009054906101000a900473ffffffffffffffffffffffffffffffffffffffff1673ffffffffffffffffffffffffffffffffffffffff163373ffffffffffffffffffffffffffffffffffffffff1614610256576040517f30cd747100000000000000000000000000000000000000000000000000000000815260040160405180910390fd5b6002600083815260200190815260200160002060009054906101000a900460ff16156102b957816040517fdd6ac7a60000000000000000000000000000000000000000000000000000000081526004016102b0919061065d565b60405180910390fd5b817fda271600ac903cc054ab7058e24aee30406688fcdfc912291569cb7e3403aa40426040516102e9919061065d565b60405180910390a2819050919050565b60008054906101000a900473ffffffffffffffffffffffffffffffffffffffff1673ffffffffffffffffffffffffffffffffffffffff163373ffffffffffffffffffffffffffffffffffffffff161461037e576040517f30cd747100000000000000000000000000000000000000000000000000000000815260040160405180910390fd5b6002600083815260200190815260200160002060009054906101000a900460ff16156103e157816040517fdd6ac7a60000000000000000000000000000000000000000000000000000000081526004016103d8919061065d565b60405180910390fd5b6000801b810361041d576040517f7c599f8000000000000000000000000000000000000000000000000000000000815260040160405180910390fd5b6000600160038360001c6104319190610811565b61043b9190610871565b905060016002600085815260200190815260200160002060006101000a81548160ff021916908315150217905550806001600085815260200190815260200160002060006101000a81548160ff021916908360ff160217905550816003600085815260200190815260200160002081905550827f958a38d540178a7aaebc3a126e6aa1851854e1fe2f80a6ca815668a807c0619782846040516104df9291906108a5565b60405180910390a2505050565b60008054906101000a900473ffffffffffffffffffffffffffffffffffffffff1681565b60016020528060005260406000206000915054906101000a900460ff1681565b60008060006002600085815260200190815260200160002060009054906101000a900460ff166001600086815260200190815260200160002060009054906101000a900460ff1660036000878152602001908152602001600020549250925092509193909250565b60036020528060005260406000206000915090505481565b600080fd5b6000819050919050565b6105c8816105b5565b81146105d357600080fd5b50565b6000813590506105e5816105bf565b92915050565b600060208284031215610601576106006105b0565b5b600061060f848285016105d6565b91505092915050565b60008115159050919050565b61062d81610618565b82525050565b60006020820190506106486000830184610624565b92915050565b610657816105b5565b82525050565b6000602082019050610672600083018461064e565b92915050565b6000819050919050565b61068b81610678565b811461069657600080fd5b50565b6000813590506106a881610682565b92915050565b600080604083850312156106c5576106c46105b0565b5b60006106d3858286016105d6565b92505060206106e485828601610699565b9150509250929050565b600073ffffffffffffffffffffffffffffffffffffffff82169050919050565b6000610719826106ee565b9050919050565b6107298161070e565b82525050565b60006020820190506107446000830184610720565b92915050565b600060ff82169050919050565b6107608161074a565b82525050565b600060208201905061077b6000830184610757565b92915050565b61078a81610678565b82525050565b60006060820190506107a56000830186610624565b6107b26020830185610757565b6107bf6040830184610781565b949350505050565b60006020820190506107dc6000830184610781565b92915050565b7f4e487b7100000000000000000000000000000000000000000000000000000000600052601260045260246000fd5b600061081c826105b5565b9150610827836105b5565b925082610837576108366107e2565b5b828206905092915050565b7f4e487b7100000000000000000000000000000000000000000000000000000000600052601160045260246000fd5b600061087c826105b5565b9150610887836105b5565b925082820190508082111561089f5761089e610842565b5b92915050565b60006040820190506108ba6000830185610757565b6108c76020830184610781565b939250505056fea2646970667358221220386c1ee1cd94d1565b4e63be76d9ecf29ec36ecc2eb62d82dc8957658f7415b664736f6c63430008180033",
  "linkReferences": {},
  "deployedLinkReferences": {}
}