{"contracts/DiceRoller.sol":{"DiceRoller":{"abi":[{"inputs":[],"stateMutability":"nonpayable","type":"constructor"},{"inputs":[{"internalType":"uint256","name":"roundId","type":"uint256"}],"name":"AlreadyFulfilled","type":"error"},{"inputs":[{"internalType":"uint256","name":"roundId","type":"uint256"}],"name":"AlreadyRequested","type":"error"},{"inputs":[],"name":"InvalidRandomness","type":"error"},{"inputs":[],"name":"Unauthorized","type":"error"},{"anonymous":false,"inputs":[{"indexed":true,"internalType":"uint256","name":"roundId","type":"uint256"},{"indexed":false,"internalType":"string","name":"gameId","type":"string"},{"indexed":false,"internalType":"bytes32","name":"requestId","type":"bytes32"},{"indexed":false,"internalType":"address","name":"requester","type":"address"}],"name":"DiceRequested","type":"event"},{"anonymous":false,"inputs":[{"indexed":true,"internalType":"uint256","name":"roundId","type":"uint256"},{"indexed":false,"internalType":"string","name":"gameId","type":"string"},{"indexed":false,"internalType":"uint8","name":"result","type":"uint8"},{"indexed":false,"internalType":"uint256","name":"randomness","type":"uint256"}],"name":"DiceRolled","type":"event"},{"inputs":[],"name":"SWITCHBOARD","outputs":[{"internalType":"address","name":"","type":"address"}],"stateMutability":"view","type":"function"},{"inputs":[],"name":"SWITCHBOARD_QUEUE","outputs":[{"internalType":"bytes32","name":"","type":"bytes32"}],"stateMutability":"view","type":"function"},{"inputs":[],"name":"demoMode","outputs":[{"internalType":"bool","name":"","type":"bool"}],"stateMutability":"view","type":"function"},{"inputs":[{"internalType":"uint256","name":"","type":"uint256"}],"name":"diceResults","outputs":[{"internalType":"uint8","name":"","type":"uint8"}],"stateMutability":"view","type":"function"},{"inputs":[{"internalType":"uint256","name":"roundId","type":"uint256"}],"name":"getDiceStatus","outputs":[{"internalType":"bool","name":"requested","type":"bool"},{"internalType":"bool","name":"fulfilled","type":"bool"},{"internalType":"uint8","name":"result","type":"uint8"}],"stateMutability":"view","type":"function"},{"inputs":[],"name":"owner","outputs":[{"internalType":"address","name":"","type":"address"}],"stateMutability":"view","type":"function"},{"inputs":[{"internalType":"uint256","name":"roundId","type":"uint256"},{"internalType":"string","name":"gameId","type":"string"}],"name":"requestDiceRoll","outputs":[],"stateMutability":"nonpayable","type":"function"},{"inputs":[{"internalType":"bytes32","name":"","type":"bytes32"}],"name":"requests","outputs":[{"internalType":"uint256","name":"roundId","type":"uint256"},{"internalType":"string","name":"gameId","type":"string"},{"internalType":"bool","name":"fulfilled","type":"bool"}],"stateMutability":"view","type":"function"},{"inputs":[{"internalType":"uint256","name":"","type":"uint256"}],"name":"roundRequested","outputs":[{"internalType":"bool","name":"","type":"bool"}],"stateMutability":"view","type":"function"},{"inputs":[{"internalType":"bool","name":"_demoMode","type":"bool"}],"name":"setDemoMode","outputs":[],"stateMutability":"nonpayable","type":"function"},{"inputs":[{"internalType":"bytes","name":"proof","type":"bytes"},{"internalType":"bytes32","name":"requestId","type":"bytes32"}],"name":"settleAndFulfill","outputs":[],"stateMutability":"payable","type":"function"}],"evm":{"bytecode":{"linkReferences":{},"object":"60806040526001600460006101000a81548160ff02191690831515021790555034801561002b57600080fd5b50336000806101000a81548173ffffffffffffffffffffffffffffffffffffffff021916908373ffffffffffffffffffffffffffffffffffffffff160217905550611a738061007b6000396000f3fe60806040526004361061009c5760003560e01c806342e568da1161006457806342e568da1461019c57806344ba06d5146101d957806359ed054d146102045780637edadd54146102205780638da5cb5b146102495780639d866985146102745761009c565b80631ca7e346146100a15780631e1508fa146100ca5780632537958c146100f55780632fd140ee14610134578063365c123d1461015f575b600080fd5b3480156100ad57600080fd5b506100c860048036038101906100c39190610c6e565b6102b3565b005b3480156100d657600080fd5b506100df610686565b6040516100ec9190610ce7565b60405180910390f35b34801561010157600080fd5b5061011c60048036038101906101179190610d02565b6106ad565b60405161012b93929190610d66565b60405180910390f35b34801561014057600080fd5b50610149610709565b6040516101569190610dde565b60405180910390f35b34801561016b57600080fd5b5061018660048036038101906101819190610d02565b610721565b6040516101939190610df9565b60405180910390f35b3480156101a857600080fd5b506101c360048036038101906101be9190610d02565b610741565b6040516101d09190610e14565b60405180910390f35b3480156101e557600080fd5b506101ee610761565b6040516101fb9190610df9565b60405180910390f35b61021e60048036038101906102199190610eb1565b610774565b005b34801561022c57600080fd5b5061024760048036038101906102429190610f3d565b610a3a565b005b34801561025557600080fd5b5061025e610adc565b60405161026b9190610dde565b60405180910390f35b34801561028057600080fd5b5061029b60048036038101906102969190610f6a565b610b00565b6040516102aa93929190611036565b60405180910390f35b6003600084815260200190815260200160002060009054906101000a900460ff161561031657826040517fa6461ae600000000000000000000000000000000000000000000000000000000815260040161030d9190611074565b60405180910390fd5b60006002600085815260200190815260200160002060009054906101000a900460ff1660ff161461037e57826040517fdd6ac7a60000000000000000000000000000000000000000000000000000000081526004016103759190611074565b60405180910390fd5b60008383834233604051602001610399959493929190611137565b604051602081830303815290604052805190602001209050600460009054906101000a900460ff16156104b4576000424433876040516020016103df9493929190611183565b6040516020818303038152906040528051906020012060001c90506000600160038361040b9190611200565b6104159190611260565b9050806002600088815260200190815260200160002060006101000a81548160ff021916908360ff16021790555060016003600088815260200190815260200160002060006101000a81548160ff021916908315150217905550857f58210cc71454673d56532cdb98a421704725067e2f4786b710d5a46661316099868684866040516104a594939291906112c1565b60405180910390a25050610680565b73b7f03eee7b9f56347e32cc71dad65b303d5a0e6773ffffffffffffffffffffffffffffffffffffffff1663f4bc77f782307f86807068432f186a147cf0b13a30067d386204ea9d6c8b04743ac2ef010b075260001b60016040518563ffffffff1660e01b815260040161052b949392919061135a565b600060405180830381600087803b15801561054557600080fd5b505af1158015610559573d6000803e3d6000fd5b50505050604051806060016040528085815260200184848080601f016020809104026020016040519081016040528093929190818152602001838380828437600081840152601f19601f82011690508083019250505050505050815260200160001515815250600160008381526020019081526020016000206000820151816000015560208201518160010190816105f191906115d0565b5060408201518160020160006101000a81548160ff02191690831515021790555090505060016003600086815260200190815260200160002060006101000a81548160ff021916908315150217905550837f920b0e4838a3db1d79b8af2abb5e087b8fbf22a1d55f7c5bb2b68d0e8e9c23ee8484843360405161067794939291906116a2565b60405180910390a25b50505050565b7f86807068432f186a147cf0b13a30067d386204ea9d6c8b04743ac2ef010b075260001b81565b60008060006003600085815260200190815260200160002060009054906101000a900460ff1692506002600085815260200190815260200160002060009054906101000a900460ff16905060008160ff16141591509193909250565b73b7f03eee7b9f56347e32cc71dad65b303d5a0e6781565b60036020528060005260406000206000915054906101000a900460ff1681565b60026020528060005260406000206000915054906101000a900460ff1681565b600460009054906101000a900460ff1681565b600060016000838152602001908152602001600020905060008160000154036107c9576040517f82b4290000000000000000000000000000000000000000000000000000000000815260040160405180910390fd5b8060020160009054906101000a900460ff16156108215780600001546040517fdd6ac7a60000000000000000000000000000000000000000000000000000000081526004016108189190611074565b60405180910390fd5b73b7f03eee7b9f56347e32cc71dad65b303d5a0e6773ffffffffffffffffffffffffffffffffffffffff16633065b55e3486866040518463ffffffff1660e01b8152600401610871929190611720565b6000604051808303818588803b15801561088a57600080fd5b505af115801561089e573d6000803e3d6000fd5b5050505050600073b7f03eee7b9f56347e32cc71dad65b303d5a0e6773ffffffffffffffffffffffffffffffffffffffff166305b19402846040518263ffffffff1660e01b81526004016108f29190610ce7565b61010060405180830381865afa158015610910573d6000803e3d6000fd5b505050506040513d601f19601f8201168201806040525081019061093491906118e1565b905060008160e001510361097d576040517f08c379a00000000000000000000000000000000000000000000000000000000081526004016109749061195b565b60405180910390fd5b6000600160038360c001516109929190611200565b61099c9190611260565b905080600260008560000154815260200190815260200160002060006101000a81548160ff021916908360ff16021790555060018360020160006101000a81548160ff02191690831515021790555082600001547f58210cc71454673d56532cdb98a421704725067e2f4786b710d5a4666131609984600101838560c00151604051610a2a939291906119ff565b60405180910390a2505050505050565b60008054906101000a900473ffffffffffffffffffffffffffffffffffffffff1673ffffffffffffffffffffffffffffffffffffffff163373ffffffffffffffffffffffffffffffffffffffff1614610abf576040517f82b4290000000000000000000000000000000000000000000000000000000000815260040160405180910390fd5b80600460006101000a81548160ff02191690831515021790555050565b60008054906101000a900473ffffffffffffffffffffffffffffffffffffffff1681565b6001602052806000526040600020600091509050806000015490806001018054610b29906113fd565b80601f0160208091040260200160405190810160405280929190818152602001828054610b55906113fd565b8015610ba25780601f10610b7757610100808354040283529160200191610ba2565b820191906000526020600020905b815481529060010190602001808311610b8557829003601f168201915b5050505050908060020160009054906101000a900460ff16905083565b6000604051905090565b600080fd5b600080fd5b6000819050919050565b610be681610bd3565b8114610bf157600080fd5b50565b600081359050610c0381610bdd565b92915050565b600080fd5b600080fd5b600080fd5b60008083601f840112610c2e57610c2d610c09565b5b8235905067ffffffffffffffff811115610c4b57610c4a610c0e565b5b602083019150836001820283011115610c6757610c66610c13565b5b9250929050565b600080600060408486031215610c8757610c86610bc9565b5b6000610c9586828701610bf4565b935050602084013567ffffffffffffffff811115610cb657610cb5610bce565b5b610cc286828701610c18565b92509250509250925092565b6000819050919050565b610ce181610cce565b82525050565b6000602082019050610cfc6000830184610cd8565b92915050565b600060208284031215610d1857610d17610bc9565b5b6000610d2684828501610bf4565b91505092915050565b60008115159050919050565b610d4481610d2f565b82525050565b600060ff82169050919050565b610d6081610d4a565b82525050565b6000606082019050610d7b6000830186610d3b565b610d886020830185610d3b565b610d956040830184610d57565b949350505050565b600073ffffffffffffffffffffffffffffffffffffffff82169050919050565b6000610dc882610d9d565b9050919050565b610dd881610dbd565b82525050565b6000602082019050610df36000830184610dcf565b92915050565b6000602082019050610e0e6000830184610d3b565b92915050565b6000602082019050610e296000830184610d57565b92915050565b60008083601f840112610e4557610e44610c09565b5b8235905067ffffffffffffffff811115610e6257610e61610c0e565b5b602083019150836001820283011115610e7e57610e7d610c13565b5b9250929050565b610e8e81610cce565b8114610e9957600080fd5b50565b600081359050610eab81610e85565b92915050565b600080600060408486031215610eca57610ec9610bc9565b5b600084013567ffffffffffffffff811115610ee857610ee7610bce565b5b610ef486828701610e2f565b93509350506020610f0786828701610e9c565b9150509250925092565b610f1a81610d2f565b8114610f2557600080fd5b50565b600081359050610f3781610f11565b92915050565b600060208284031215610f5357610f52610bc9565b5b6000610f6184828501610f28565b91505092915050565b600060208284031215610f8057610f7f610bc9565b5b6000610f8e84828501610e9c565b91505092915050565b610fa081610bd3565b82525050565b600081519050919050565b600082825260208201905092915050565b60005b83811015610fe0578082015181840152602081019050610fc5565b60008484015250505050565b6000601f19601f8301169050919050565b600061100882610fa6565b6110128185610fb1565b9350611022818560208601610fc2565b61102b81610fec565b840191505092915050565b600060608201905061104b6000830186610f97565b818103602083015261105d8185610ffd565b905061106c6040830184610d3b565b949350505050565b60006020820190506110896000830184610f97565b92915050565b6000819050919050565b6110aa6110a582610bd3565b61108f565b82525050565b600081905092915050565b82818337600083830152505050565b60006110d683856110b0565b93506110e38385846110bb565b82840190509392505050565b60008160601b9050919050565b6000611107826110ef565b9050919050565b6000611119826110fc565b9050919050565b61113161112c82610dbd565b61110e565b82525050565b60006111438288611099565b6020820191506111548286886110ca565b91506111608285611099565b6020820191506111708284611120565b6014820191508190509695505050505050565b600061118f8287611099565b60208201915061119f8286611099565b6020820191506111af8285611120565b6014820191506111bf8284611099565b60208201915081905095945050505050565b7f4e487b7100000000000000000000000000000000000000000000000000000000600052601260045260246000fd5b600061120b82610bd3565b915061121683610bd3565b925082611226576112256111d1565b5b828206905092915050565b7f4e487b7100000000000000000000000000000000000000000000000000000000600052601160045260246000fd5b600061126b82610bd3565b915061127683610bd3565b925082820190508082111561128e5761128d611231565b5b92915050565b60006112a08385610fb1565b93506112ad8385846110bb565b6112b683610fec565b840190509392505050565b600060608201905081810360008301526112dc818688611294565b90506112eb6020830185610d57565b6112f86040830184610f97565b95945050505050565b6000819050919050565b600067ffffffffffffffff82169050919050565b6000819050919050565b600061134461133f61133a84611301565b61131f565b61130b565b9050919050565b61135481611329565b82525050565b600060808201905061136f6000830187610cd8565b61137c6020830186610dcf565b6113896040830185610cd8565b611396606083018461134b565b95945050505050565b7f4e487b7100000000000000000000000000000000000000000000000000000000600052604160045260246000fd5b7f4e487b7100000000000000000000000000000000000000000000000000000000600052602260045260246000fd5b6000600282049050600182168061141557607f821691505b602082108103611428576114276113ce565b5b50919050565b60008190508160005260206000209050919050565b60006020601f8301049050919050565b600082821b905092915050565b6000600883026114907fffffffffffffffffffffffffffffffffffffffffffffffffffffffffffffffff82611453565b61149a8683611453565b95508019841693508086168417925050509392505050565b60006114cd6114c86114c384610bd3565b61131f565b610bd3565b9050919050565b6000819050919050565b6114e7836114b2565b6114fb6114f3826114d4565b848454611460565b825550505050565b600090565b611510611503565b61151b8184846114de565b505050565b5b8181101561153f57611534600082611508565b600181019050611521565b5050565b601f821115611584576115558161142e565b61155e84611443565b8101602085101561156d578190505b61158161157985611443565b830182611520565b50505b505050565b600082821c905092915050565b60006115a760001984600802611589565b1980831691505092915050565b60006115c08383611596565b9150826002028217905092915050565b6115d982610fa6565b67ffffffffffffffff8111156115f2576115f161139f565b5b6115fc82546113fd565b611607828285611543565b600060209050601f83116001811461163a5760008415611628578287015190505b61163285826115b4565b86555061169a565b601f1984166116488661142e565b60005b828110156116705784890151825560018201915060208501945060208101905061164b565b8683101561168d5784890151611689601f891682611596565b8355505b6001600288020188555050505b505050505050565b600060608201905081810360008301526116bd818688611294565b90506116cc6020830185610cd8565b6116d96040830184610dcf565b95945050505050565b600082825260208201905092915050565b60006116ff83856116e2565b935061170c8385846110bb565b61171583610fec565b840190509392505050565b6000602082019050818103600083015261173b8184866116f3565b90509392505050565b600080fd5b61175282610fec565b810181811067ffffffffffffffff821117156117715761177061139f565b5b80604052505050565b6000611784610bbf565b90506117908282611749565b919050565b6000815190506117a481610e85565b92915050565b6000815190506117b981610bdd565b92915050565b6117c881610dbd565b81146117d357600080fd5b50565b6000815190506117e5816117bf565b92915050565b6117f48161130b565b81146117ff57600080fd5b50565b600081519050611811816117eb565b92915050565b6000610100828403121561182e5761182d611744565b5b61183961010061177a565b9050600061184984828501611795565b600083015250602061185d848285016117aa565b6020830152506040611871848285016117d6565b6040830152506060611885848285016117aa565b606083015250608061189984828501611802565b60808301525060a06118ad848285016117d6565b60a08301525060c06118c1848285016117aa565b60c08301525060e06118d5848285016117aa565b60e08301525092915050565b600061010082840312156118f8576118f7610bc9565b5b600061190684828501611817565b91505092915050565b7f52616e646f6d6e657373206661696c656420746f20536574746c650000000000600082015250565b6000611945601b83610fb1565b91506119508261190f565b602082019050919050565b6000602082019050818103600083015261197481611938565b9050919050565b60008154611988816113fd565b6119928186610fb1565b945060018216600081146119ad57600181146119c3576119f6565b60ff1983168652811515602002860193506119f6565b6119cc8561142e565b60005b838110156119ee578154818901526001820191506020810190506119cf565b808801955050505b50505092915050565b60006060820190508181036000830152611a19818661197b565b9050611a286020830185610d57565b611a356040830184610f97565b94935050505056fea26469706673582212205a563c4dc7633c604e45201d46087a805a38b0b249df1c73ec7c89ab77f57a2c64736f6c63430008180033","opcodes":"PUSH1 0x80 PUSH1 0x40 MSTORE PUSH1 0x1 PUSH1 0x4 PUSH1 0x0 PUSH2 0x100 EXP DUP2 SLOAD DUP2 PUSH1 0xFF MUL NOT AND SWAP1 DUP4 ISZERO ISZERO MUL OR SWAP1 SSTORE POP CALLVALUE DUP1 ISZERO PUSH2 0x2B JUMPI PUSH1 0x0 DUP1 REVERT JUMPDEST POP CALLER PUSH1 0x0 DUP1 PUSH2 0x100 EXP DUP2 SLOAD DUP2 PUSH20 0xFFFFFFFFFFFFFFFFFFFFFFFFFFFFFFFFFFFFFFFF MUL NOT AND SWAP1 DUP4 PUSH20 0xFFFFFFFFFFFFFFFFFFFFFFFFFFFFFFFFFFFFFFFF AND MUL OR SWAP1 SSTORE POP PUSH2 0x1A73 DUP1 PUSH2 0x7B PUSH1 0x0 CODECOPY PUSH1 0x0 RETURN INVALID PUSH1 0x80 PUSH1 0x40 MSTORE PUSH1 0x4 CALLDATASIZE LT PUSH2 0x9C JUMPI PUSH1 0x0 CALLDATALOAD PUSH1 0xE0 SHR DUP1 PUSH4 0x42E568DA GT PUSH2 0x64 JUMPI DUP1 PUSH4 0x42E568DA EQ PUSH2 0x19C JUMPI DUP1 PUSH4 0x44BA06D5 EQ PUSH2 0x1D9 JUMPI DUP1 PUSH4 0x59ED054D EQ PUSH2 0x204 JUMPI DUP1 PUSH4 0x7EDADD54 EQ PUSH2 0x220 JUMPI DUP1 PUSH4 0x8DA5CB5B EQ PUSH2 0x249 JUMPI DUP1 PUSH4 0x9D866985 EQ PUSH2 0x274 JUMPI PUSH2 0x9C JUMP JUMPDEST DUP1 PUSH4 0x1CA7E346 EQ PUSH2 0xA1 JUMPI DUP1 PUSH4 0x1E1508FA EQ PUSH2 0xCA JUMPI DUP1 PUSH4 0x2537958C EQ PUSH2 0xF5 JUMPI DUP1 PUSH4 0x2FD140EE EQ PUSH2 0x134 JUMPI DUP1 PUSH4 0x365C123D EQ PUSH2 0x15F JUMPI JUMPDEST PUSH1 0x0 DUP1 REVERT JUMPDEST CALLVALUE DUP1 ISZERO PUSH2 0xAD JUMPI PUSH1 0x0 DUP1 REVERT JUMPDEST POP PUSH2 0xC8 PUSH1 0x4 DUP1 CALLDATASIZE SUB DUP2 ADD SWAP1 PUSH2 0xC3 SWAP2 SWAP1 PUSH2 0xC6E JUMP JUMPDEST PUSH2 0x2B3 JUMP JUMPDEST STOP JUMPDEST CALLVALUE DUP1 ISZERO PUSH2 0xD6 JUMPI PUSH1 0x0 DUP1 REVERT JUMPDEST POP PUSH2 0xDF PUSH2 0x686 JUMP JUMPDEST PUSH1 0x40 MLOAD PUSH2 0xEC SWAP2 SWAP1 PUSH2 0xCE7 JUMP JUMPDEST PUSH1 0x40 MLOAD DUP1 SWAP2 SUB SWAP1 RETURN JUMPDEST CALLVALUE DUP1 ISZERO PUSH2 0x101 JUMPI PUSH1 0x0 DUP1 REVERT JUMPDEST POP PUSH2 0x11C PUSH1 0x4 DUP1 CALLDATASIZE SUB DUP2 ADD SWAP1 PUSH2 0x117 SWAP2 SWAP1 PUSH2 0xD02 JUMP JUMPDEST PUSH2 0x6AD JUMP JUMPDEST PUSH1 0x40 MLOAD PUSH2 0x12B SWAP4 SWAP3 SWAP2 SWAP1 PUSH2 0xD66 JUMP JUMPDEST PUSH1 0x40 MLOAD DUP1 SWAP2 SUB SWAP1 RETURN JUMPDEST CALLVALUE DUP1 ISZERO PUSH2 0x140 JUMPI PUSH1 0x0 DUP1 REVERT JUMPDEST POP PUSH2 0x149 PUSH2 0x709 JUMP JUMPDEST PUSH1 0x40 MLOAD PUSH2 0x156 SWAP2 SWAP1 PUSH2 0xDDE JUMP JUMPDEST PUSH1 0x40 MLOAD DUP1 SWAP2 SUB SWAP1 RETURN JUMPDEST CALLVALUE DUP1 ISZERO PUSH2 0x16B JUMPI PUSH1 0x0 DUP1 REVERT JUMPDEST POP PUSH2 0x186 PUSH1 0x4 DUP1 CALLDATASIZE SUB DUP2 ADD SWAP1 PUSH2 0x181 SWAP2 SWAP1 PUSH2 0xD02 JUMP JUMPDEST PUSH2 0x721 JUMP JUMPDEST PUSH1 0x40 MLOAD PUSH2 0x193 SWAP2 SWAP1 PUSH2 0xDF9 JUMP JUMPDEST PUSH1 0x40 MLOAD DUP1 SWAP2 SUB SWAP1 RETURN JUMPDEST CALLVALUE DUP1 ISZERO PUSH2 0x1A8 JUMPI PUSH1 0x0 DUP1 REVERT JUMPDEST POP PUSH2 0x1C3 PUSH1 0x4 DUP1 CALLDATASIZE SUB DUP2 ADD SWAP1 PUSH2 0x1BE SWAP2 SWAP1 PUSH2 0xD02 JUMP JUMPDEST PUSH2 0x741 JUMP JUMPDEST PUSH1 0x40 MLOAD PUSH2 0x1D0 SWAP2 SWAP1 PUSH2 0xE14 JUMP JUMPDEST PUSH1 0x40 MLOAD DUP1 SWAP2 SUB SWAP1 RETURN JUMPDEST CALLVALUE DUP1 ISZERO PUSH2 0x1E5 JUMPI PUSH1 0x0 DUP1 REVERT JUMPDEST POP PUSH2 0x1EE PUSH2 0x761 JUMP JUMPDEST PUSH1 0x40 MLOAD PUSH2 0x1FB SWAP2 SWAP1 PUSH2 0xDF9 JUMP JUMPDEST PUSH1 0x40 MLOAD DUP1 SWAP2 SUB SWAP1 RETURN JUMPDEST PUSH2 0x21E PUSH1 0x4 DUP1 CALLDATASIZE SUB DUP2 ADD SWAP1 PUSH2 0x219 SWAP2 SWAP1 PUSH2 0xEB1 JUMP JUMPDEST PUSH2 0x774 JUMP JUMPDEST STOP JUMPDEST CALLVALUE DUP1 ISZERO PUSH2 0x22C JUMPI PUSH1 0x0 DUP1 REVERT JUMPDEST POP PUSH2 0x247 PUSH1 0x4 DUP1 CALLDATASIZE SUB DUP2 ADD SWAP1 PUSH2 0x242 SWAP2 SWAP1 PUSH2 0xF3D JUMP JUMPDEST PUSH2 0xA3A JUMP JUMPDEST STOP JUMPDEST CALLVALUE DUP1 ISZERO PUSH2 0x255 JUMPI PUSH1 0x0 DUP1 REVERT JUMPDEST POP PUSH2 0x25E PUSH2 0xADC JUMP JUMPDEST PUSH1 0x40 MLOAD PUSH2 0x26B SWAP2 SWAP1 PUSH2 0xDDE JUMP JUMPDEST PUSH1 0x40 MLOAD DUP1 SWAP2 SUB SWAP1 RETURN JUMPDEST CALLVALUE DUP1 ISZERO PUSH2 0x280 JUMPI PUSH1 0x0 DUP1 REVERT JUMPDEST POP PUSH2 0x29B PUSH1 0x4 DUP1 CALLDATASIZE SUB DUP2 ADD SWAP1 PUSH2 0x296 SWAP2 SWAP1 PUSH2 0xF6A JUMP JUMPDEST PUSH2 0xB00 JUMP JUMPDEST PUSH1 0x40 MLOAD PUSH2 0x2AA SWAP4 SWAP3 SWAP2 SWAP1 PUSH2 0x1036 JUMP JUMPDEST PUSH1 0x40 MLOAD DUP1 SWAP2 SUB SWAP1 RETURN JUMPDEST PUSH1 0x3 PUSH1 0x0 DUP5 DUP2 MSTORE PUSH1 0x20 ADD SWAP1 DUP2 MSTORE PUSH1 0x20 ADD PUSH1 0x0 KECCAK256 PUSH1 0x0 SWAP1 SLOAD SWAP1 PUSH2 0x100 EXP SWAP1 DIV PUSH1 0xFF AND ISZERO PUSH2 0x316 JUMPI DUP3 PUSH1 0x40 MLOAD PUSH32 0xA6461AE600000000000000000000000000000000000000000000000000000000 DUP2 MSTORE PUSH1 0x4 ADD PUSH2 0x30D SWAP2 SWAP1 PUSH2 0x1074 JUMP JUMPDEST PUSH1 0x40 MLOAD DUP1 SWAP2 SUB SWAP1 REVERT JUMPDEST PUSH1 0x0 PUSH1 0x2 PUSH1 0x0 DUP6 DUP2 MSTORE PUSH1 0x20 ADD SWAP1 DUP2 MSTORE PUSH1 0x20 ADD PUSH1 0x0 KECCAK256 PUSH1 0x0 SWAP1 SLOAD SWAP1 PUSH2 0x100 EXP SWAP1 DIV PUSH1 0xFF AND PUSH1 0xFF AND EQ PUSH2 0x37E JUMPI DUP3 PUSH1 0x40 MLOAD PUSH32 0xDD6AC7A600000000000000000000000000000000000000000000000000000000 DUP2 MSTORE PUSH1 0x4 ADD PUSH2 0x375 SWAP2 SWAP1 PUSH2 0x1074 JUMP JUMPDEST PUSH1 0x40 MLOAD DUP1 SWAP2 SUB SWAP1 REVERT JUMPDEST PUSH1 0x0 DUP4 DUP4 DUP4 TIMESTAMP CALLER PUSH1 0x40 MLOAD PUSH1 0x20 ADD PUSH2 0x399 SWAP6 SWAP5 SWAP4 SWAP3 SWAP2 SWAP1 PUSH2 0x1137 JUMP JUMPDEST PUSH1 0x40 MLOAD PUSH1 0x20 DUP2 DUP4 SUB SUB DUP2 MSTORE SWAP1 PUSH1 0x40 MSTORE DUP1 MLOAD SWAP1 PUSH1 0x20 ADD KECCAK256 SWAP1 POP PUSH1 0x4 PUSH1 0x0 SWAP1 SLOAD SWAP1 PUSH2 0x100 EXP SWAP1 DIV PUSH1 0xFF AND ISZERO PUSH2 0x4B4 JUMPI PUSH1 0x0 TIMESTAMP PREVRANDAO CALLER DUP8 PUSH1 0x40 MLOAD PUSH1 0x20 ADD PUSH2 0x3DF SWAP5 SWAP4 SWAP3 SWAP2 SWAP1 PUSH2 0x1183 JUMP JUMPDEST PUSH1 0x40 MLOAD PUSH1 0x20 DUP2 DUP4 SUB SUB DUP2 MSTORE SWAP1 PUSH1 0x40 MSTORE DUP1 MLOAD SWAP1 PUSH1 0x20 ADD KECCAK256 PUSH1 0x0 SHR SWAP1 POP PUSH1 0x0 PUSH1 0x1 PUSH1 0x3 DUP4 PUSH2 0x40B SWAP2 SWAP1 PUSH2 0x1200 JUMP JUMPDEST PUSH2 0x415 SWAP2 SWAP1 PUSH2 0x1260 JUMP JUMPDEST SWAP1 POP DUP1 PUSH1 0x2 PUSH1 0x0 DUP9 DUP2 MSTORE PUSH1 0x20 ADD SWAP1 DUP2 MSTORE PUSH1 0x20 ADD PUSH1 0x0 KECCAK256 PUSH1 0x0 PUSH2 0x100 EXP DUP2 SLOAD DUP2 PUSH1 0xFF MUL NOT AND SWAP1 DUP4 PUSH1 0xFF AND MUL OR SWAP1 SSTORE POP PUSH1 0x1 PUSH1 0x3 PUSH1 0x0 DUP9 DUP2 MSTORE PUSH1 0x20 ADD SWAP1 DUP2 MSTORE PUSH1 0x20 ADD PUSH1 0x0 KECCAK256 PUSH1 0x0 PUSH2 0x100 EXP DUP2 SLOAD DUP2 PUSH1 0xFF MUL NOT AND SWAP1 DUP4 ISZERO ISZERO MUL OR SWAP1 SSTORE POP DUP6 PUSH32 0x58210CC71454673D56532CDB98A421704725067E2F4786B710D5A46661316099 DUP7 DUP7 DUP5 DUP7 PUSH1 0x40 MLOAD PUSH2 0x4A5 SWAP5 SWAP4 SWAP3 SWAP2 SWAP1 PUSH2 0x12C1 JUMP JUMPDEST PUSH1 0x40 MLOAD DUP1 SWAP2 SUB SWAP1 LOG2 POP POP PUSH2 0x680 JUMP JUMPDEST PUSH20 0xB7F03EEE7B9F56347E32CC71DAD65B303D5A0E67 PUSH20 0xFFFFFFFFFFFFFFFFFFFFFFFFFFFFFFFFFFFFFFFF AND PUSH4 0xF4BC77F7 DUP3 ADDRESS PUSH32 0x86807068432F186A147CF0B13A30067D386204EA9D6C8B04743AC2EF010B0752 PUSH1 0x0 SHL PUSH1 0x1 PUSH1 0x40 MLOAD DUP6 PUSH4 0xFFFFFFFF AND PUSH1 0xE0 SHL DUP2 MSTORE PUSH1 0x4 ADD PUSH2 0x52B SWAP5 SWAP4 SWAP3 SWAP2 SWAP1 PUSH2 0x135A JUMP JUMPDEST PUSH1 0x0 PUSH1 0x40 MLOAD DUP1 DUP4 SUB DUP2 PUSH1 0x0 DUP8 DUP1 EXTCODESIZE ISZERO DUP1 ISZERO PUSH2 0x545 JUMPI PUSH1 0x0 DUP1 REVERT JUMPDEST POP GAS CALL ISZERO DUP1 ISZERO PUSH2 0x559 JUMPI RETURNDATASIZE PUSH1 0x0 DUP1 RETURNDATACOPY RETURNDATASIZE PUSH1 0x0 REVERT JUMPDEST POP POP POP POP PUSH1 0x40 MLOAD DUP1 PUSH1 0x60 ADD PUSH1 0x40 MSTORE DUP1 DUP6 DUP2 MSTORE PUSH1 0x20 ADD DUP5 DUP5 DUP1 DUP1 PUSH1 0x1F ADD PUSH1 0x20 DUP1 SWAP2 DIV MUL PUSH1 0x20 ADD PUSH1 0x40 MLOAD SWAP1 DUP2 ADD PUSH1 0x40 MSTORE DUP1 SWAP4 SWAP3 SWAP2 SWAP1 DUP2 DUP2 MSTORE PUSH1 0x20 ADD DUP4 DUP4 DUP1 DUP3 DUP5 CALLDATACOPY PUSH1 0x0 DUP2 DUP5 ADD MSTORE PUSH1 0x1F NOT PUSH1 0x1F DUP3 ADD AND SWAP1 POP DUP1 DUP4 ADD SWAP3 POP POP POP POP POP POP POP DUP2 MSTORE PUSH1 0x20 ADD PUSH1 0x0 ISZERO ISZERO DUP2 MSTORE POP PUSH1 0x1 PUSH1 0x0 DUP4 DUP2 MSTORE PUSH1 0x20 ADD SWAP1 DUP2 MSTORE PUSH1 0x20 ADD PUSH1 0x0 KECCAK256 PUSH1 0x0 DUP3 ADD MLOAD DUP2 PUSH1 0x0 ADD SSTORE PUSH1 0x20 DUP3 ADD MLOAD DUP2 PUSH1 0x1 ADD SWAP1 DUP2 PUSH2 0x5F1 SWAP2 SWAP1 PUSH2 0x15D0 JUMP JUMPDEST POP PUSH1 0x40 DUP3 ADD MLOAD DUP2 PUSH1 0x2 ADD PUSH1 0x0 PUSH2 0x100 EXP DUP2 SLOAD DUP2 PUSH1 0xFF MUL NOT AND SWAP1 DUP4 ISZERO ISZERO MUL OR SWAP1 SSTORE POP SWAP1 POP POP PUSH1 0x1 PUSH1 0x3 PUSH1 0x0 DUP7 DUP2 MSTORE PUSH1 0x20 ADD SWAP1 DUP2 MSTORE PUSH1 0x20 ADD PUSH1 0x0 KECCAK256 PUSH1 0x0 PUSH2 0x100 EXP DUP2 SLOAD DUP2 PUSH1 0xFF MUL NOT AND SWAP1 DUP4 ISZERO ISZERO MUL OR SWAP1 SSTORE POP DUP4 PUSH32 0x920B0E4838A3DB1D79B8AF2ABB5E087B8FBF22A1D55F7C5BB2B68D0E8E9C23EE DUP5 DUP5 DUP5 CALLER PUSH1 0x40 MLOAD PUSH2 0x677 SWAP5 SWAP4 SWAP3 SWAP2 SWAP1 PUSH2 0x16A2 JUMP JUMPDEST PUSH1 0x40 MLOAD DUP1 SWAP2 SUB SWAP1 LOG2 JUMPDEST POP POP POP POP JUMP JUMPDEST PUSH32 0x86807068432F186A147CF0B13A30067D386204EA9D6C8B04743AC2EF010B0752 PUSH1 0x0 SHL DUP2 JUMP JUMPDEST PUSH1 0x0 DUP1 PUSH1 0x0 PUSH1 0x3 PUSH1 0x0 DUP6 DUP2 MSTORE PUSH1 0x20 ADD SWAP1 DUP2 MSTORE PUSH1 0x20 ADD PUSH1 0x0 KECCAK256 PUSH1 0x0 SWAP1 SLOAD SWAP1 PUSH2 0x100 EXP SWAP1 DIV PUSH1 0xFF AND SWAP3 POP PUSH1 0x2 PUSH1 0x0 DUP6 DUP2 MSTORE PUSH1 0x20 ADD SWAP1 DUP2 MSTORE PUSH1 0x20 ADD PUSH1 0x0 KECCAK256 PUSH1 0x0 SWAP1 SLOAD SWAP1 PUSH2 0x100 EXP SWAP1 DIV PUSH1 0xFF AND SWAP1 POP PUSH1 0x0 DUP2 PUSH1 0xFF AND EQ ISZERO SWAP2 POP SWAP2 SWAP4 SWAP1 SWAP3 POP JUMP JUMPDEST PUSH20 0xB7F03EEE7B9F56347E32CC71DAD65B303D5A0E67 DUP2 JUMP JUMPDEST PUSH1 0x3 PUSH1 0x20 MSTORE DUP1 PUSH1 0x0 MSTORE PUSH1 0x40 PUSH1 0x0 KECCAK256 PUSH1 0x0 SWAP2 POP SLOAD SWAP1 PUSH2 0x100 EXP SWAP1 DIV PUSH1 0xFF AND DUP2 JUMP JUMPDEST PUSH1 0x2 PUSH1 0x20 MSTORE DUP1 PUSH1 0x0 MSTORE PUSH1 0x40 PUSH1 0x0 KECCAK256 PUSH1 0x0 SWAP2 POP SLOAD SWAP1 PUSH2 0x100 EXP SWAP1 DIV PUSH1 0xFF AND DUP2 JUMP JUMPDEST PUSH1 0x4 PUSH1 0x0 SWAP1 SLOAD SWAP1 PUSH2 0x100 EXP SWAP1 DIV PUSH1 0xFF AND DUP2 JUMP JUMPDEST PUSH1 0x0 PUSH1 0x1 PUSH1 0x0 DUP4 DUP2 MSTORE PUSH1 0x20 ADD SWAP1 DUP2 MSTORE PUSH1 0x20 ADD PUSH1 0x0 KECCAK256 SWAP1 POP PUSH1 0x0 DUP2 PUSH1 0x0 ADD SLOAD SUB PUSH2 0x7C9 JUMPI PUSH1 0x40 MLOAD PUSH32 0x82B4290000000000000000000000000000000000000000000000000000000000 DUP2 MSTORE PUSH1 0x4 ADD PUSH1 0x40 MLOAD DUP1 SWAP2 SUB SWAP1 REVERT JUMPDEST DUP1 PUSH1 0x2 ADD PUSH1 0x0 SWAP1 SLOAD SWAP1 PUSH2 0x100 EXP SWAP1 DIV PUSH1 0xFF AND ISZERO PUSH2 0x821 JUMPI DUP1 PUSH1 0x0 ADD SLOAD PUSH1 0x40 MLOAD PUSH32 0xDD6AC7A600000000000000000000000000000000000000000000000000000000 DUP2 MSTORE PUSH1 0x4 ADD PUSH2 0x818 SWAP2 SWAP1 PUSH2 0x1074 JUMP JUMPDEST PUSH1 0x40 MLOAD DUP1 SWAP2 SUB SWAP1 REVERT JUMPDEST PUSH20 0xB7F03EEE7B9F56347E32CC71DAD65B303D5A0E67 PUSH20 0xFFFFFFFFFFFFFFFFFFFFFFFFFFFFFFFFFFFFFFFF AND PUSH4 0x3065B55E CALLVALUE DUP7 DUP7 PUSH1 0x40 MLOAD DUP5 PUSH4 0xFFFFFFFF AND PUSH1 0xE0 SHL DUP2 MSTORE PUSH1 0x4 ADD PUSH2 0x871 SWAP3 SWAP2 SWAP1 PUSH2 0x1720 JUMP JUMPDEST PUSH1 0x0 PUSH1 0x40 MLOAD DUP1 DUP4 SUB DUP2 DUP6 DUP9 DUP1 EXTCODESIZE ISZERO DUP1 ISZERO PUSH2 0x88A JUMPI PUSH1 0x0 DUP1 REVERT JUMPDEST POP GAS CALL ISZERO DUP1 ISZERO PUSH2 0x89E JUMPI RETURNDATASIZE PUSH1 0x0 DUP1 RETURNDATACOPY RETURNDATASIZE PUSH1 0x0 REVERT JUMPDEST POP POP POP POP POP PUSH1 0x0 PUSH20 0xB7F03EEE7B9F56347E32CC71DAD65B303D5A0E67 PUSH20 0xFFFFFFFFFFFFFFFFFFFFFFFFFFFFFFFFFFFFFFFF AND PUSH4 0x5B19402 DUP5 PUSH1 0x40 MLOAD DUP3 PUSH4 0xFFFFFFFF AND PUSH1 0xE0 SHL DUP2 MSTORE PUSH1 0x4 ADD PUSH2 0x8F2 SWAP2 SWAP1 PUSH2 0xCE7 JUMP JUMPDEST PUSH2 0x100 PUSH1 0x40 MLOAD DUP1 DUP4 SUB DUP2 DUP7 GAS STATICCALL ISZERO DUP1 ISZERO PUSH2 0x910 JUMPI RETURNDATASIZE PUSH1 0x0 DUP1 RETURNDATACOPY RETURNDATASIZE PUSH1 0x0 REVERT JUMPDEST POP POP POP POP PUSH1 0x40 MLOAD RETURNDATASIZE PUSH1 0x1F NOT PUSH1 0x1F DUP3 ADD AND DUP3 ADD DUP1 PUSH1 0x40 MSTORE POP DUP2 ADD SWAP1 PUSH2 0x934 SWAP2 SWAP1 PUSH2 0x18E1 JUMP JUMPDEST SWAP1 POP PUSH1 0x0 DUP2 PUSH1 0xE0 ADD MLOAD SUB PUSH2 0x97D JUMPI PUSH1 0x40 MLOAD PUSH32 0x8C379A000000000000000000000000000000000000000000000000000000000 DUP2 MSTORE PUSH1 0x4 ADD PUSH2 0x974 SWAP1 PUSH2 0x195B JUMP JUMPDEST PUSH1 0x40 MLOAD DUP1 SWAP2 SUB SWAP1 REVERT JUMPDEST PUSH1 0x0 PUSH1 0x1 PUSH1 0x3 DUP4 PUSH1 0xC0 ADD MLOAD PUSH2 0x992 SWAP2 SWAP1 PUSH2 0x1200 JUMP JUMPDEST PUSH2 0x99C SWAP2 SWAP1 PUSH2 0x1260 JUMP JUMPDEST SWAP1 POP DUP1 PUSH1 0x2 PUSH1 0x0 DUP6 PUSH1 0x0 ADD SLOAD DUP2 MSTORE PUSH1 0x20 ADD SWAP1 DUP2 MSTORE PUSH1 0x20 ADD PUSH1 0x0 KECCAK256 PUSH1 0x0 PUSH2 0x100 EXP DUP2 SLOAD DUP2 PUSH1 0xFF MUL NOT AND SWAP1 DUP4 PUSH1 0xFF AND MUL OR SWAP1 SSTORE POP PUSH1 0x1 DUP4 PUSH1 0x2 ADD PUSH1 0x0 PUSH2 0x100 EXP DUP2 SLOAD DUP2 PUSH1 0xFF MUL NOT AND SWAP1 DUP4 ISZERO ISZERO MUL OR SWAP1 SSTORE POP DUP3 PUSH1 0x0 ADD SLOAD PUSH32 0x58210CC71454673D56532CDB98A421704725067E2F4786B710D5A46661316099 DUP5 PUSH1 0x1 ADD DUP4 DUP6 PUSH1 0xC0 ADD MLOAD PUSH1 0x40 MLOAD PUSH2 0xA2A SWAP4 SWAP3 SWAP2 SWAP1 PUSH2 0x19FF JUMP JUMPDEST PUSH1 0x40 MLOAD DUP1 SWAP2 SUB SWAP1 LOG2 POP POP POP POP POP POP JUMP JUMPDEST PUSH1 0x0 DUP1 SLOAD SWAP1 PUSH2 0x100 EXP SWAP1 DIV PUSH20 0xFFFFFFFFFFFFFFFFFFFFFFFFFFFFFFFFFFFFFFFF AND PUSH20 0xFFFFFFFFFFFFFFFFFFFFFFFFFFFFFFFFFFFFFFFF AND CALLER PUSH20 0xFFFFFFFFFFFFFFFFFFFFFFFFFFFFFFFFFFFFFFFF AND EQ PUSH2 0xABF JUMPI PUSH1 0x40 MLOAD PUSH32 0x82B4290000000000000000000000000000000000000000000000000000000000 DUP2 MSTORE PUSH1 0x4 ADD PUSH1 0x40 MLOAD DUP1 SWAP2 SUB SWAP1 REVERT JUMPDEST DUP1 PUSH1 0x4 PUSH1 0x0 PUSH2 0x100 EXP DUP2 SLOAD DUP2 PUSH1 0xFF MUL NOT AND SWAP1 DUP4 ISZERO ISZERO MUL OR SWAP1 SSTORE POP POP JUMP JUMPDEST PUSH1 0x0 DUP1 SLOAD SWAP1 PUSH2 0x100 EXP SWAP1 DIV PUSH20 0xFFFFFFFFFFFFFFFFFFFFFFFFFFFFFFFFFFFFFFFF AND DUP2 JUMP JUMPDEST PUSH1 0x1 PUSH1 0x20 MSTORE DUP1 PUSH1 0x0 MSTORE PUSH1 0x40 PUSH1 0x0 KECCAK256 PUSH1 0x0 SWAP2 POP SWAP1 POP DUP1 PUSH1 0x0 ADD SLOAD SWAP1 DUP1 PUSH1 0x1 ADD DUP1 SLOAD PUSH2 0xB29 SWAP1 PUSH2 0x13FD JUMP JUMPDEST DUP1 PUSH1 0x1F ADD PUSH1 0x20 DUP1 SWAP2 DIV MUL PUSH1 0x20 ADD PUSH1 0x40 MLOAD SWAP1 DUP2 ADD PUSH1 0x40 MSTORE DUP1 SWAP3 SWAP2 SWAP1 DUP2 DUP2 MSTORE PUSH1 0x20 ADD DUP3 DUP1 SLOAD PUSH2 0xB55 SWAP1 PUSH2 0x13FD JUMP JUMPDEST DUP1 ISZERO PUSH2 0xBA2 JUMPI DUP1 PUSH1 0x1F LT PUSH2 0xB77 JUMPI PUSH2 0x100 DUP1 DUP4 SLOAD DIV MUL DUP4 MSTORE SWAP2 PUSH1 0x20 ADD SWAP2 PUSH2 0xBA2 JUMP JUMPDEST DUP3 ADD SWAP2 SWAP1 PUSH1 0x0 MSTORE PUSH1 0x20 PUSH1 0x0 KECCAK256 SWAP1 JUMPDEST DUP2 SLOAD DUP2 MSTORE SWAP1 PUSH1 0x1 ADD SWAP1 PUSH1 0x20 ADD DUP1 DUP4 GT PUSH2 0xB85 JUMPI DUP3 SWAP1 SUB PUSH1 0x1F AND DUP3 ADD SWAP2 JUMPDEST POP POP POP POP POP SWAP1 DUP1 PUSH1 0x2 ADD PUSH1 0x0 SWAP1 SLOAD SWAP1 PUSH2 0x100 EXP SWAP1 DIV PUSH1 0xFF AND SWAP1 POP DUP4 JUMP JUMPDEST PUSH1 0x0 PUSH1 0x40 MLOAD SWAP1 POP SWAP1 JUMP JUMPDEST PUSH1 0x0 DUP1 REVERT JUMPDEST PUSH1 0x0 DUP1 REVERT JUMPDEST PUSH1 0x0 DUP2 SWAP1 POP SWAP2 SWAP1 POP JUMP JUMPDEST PUSH2 0xBE6 DUP2 PUSH2 0xBD3 JUMP JUMPDEST DUP2 EQ PUSH2 0xBF1 JUMPI PUSH1 0x0 DUP1 REVERT JUMPDEST POP JUMP JUMPDEST PUSH1 0x0 DUP2 CALLDATALOAD SWAP1 POP PUSH2 0xC03 DUP2 PUSH2 0xBDD JUMP JUMPDEST SWAP3 SWAP2 POP POP JUMP JUMPDEST PUSH1 0x0 DUP1 REVERT JUMPDEST PUSH1 0x0 DUP1 REVERT JUMPDEST PUSH1 0x0 DUP1 REVERT JUMPDEST PUSH1 0x0 DUP1 DUP4 PUSH1 0x1F DUP5 ADD SLT PUSH2 0xC2E JUMPI PUSH2 0xC2D PUSH2 0xC09 JUMP JUMPDEST JUMPDEST DUP3 CALLDATALOAD SWAP1 POP PUSH8 0xFFFFFFFFFFFFFFFF DUP2 GT ISZERO PUSH2 0xC4B JUMPI PUSH2 0xC4A PUSH2 0xC0E JUMP JUMPDEST JUMPDEST PUSH1 0x20 DUP4 ADD SWAP2 POP DUP4 PUSH1 0x1 DUP3 MUL DUP4 ADD GT ISZERO PUSH2 0xC67 JUMPI PUSH2 0xC66 PUSH2 0xC13 JUMP JUMPDEST JUMPDEST SWAP3 POP SWAP3 SWAP1 POP JUMP JUMPDEST PUSH1 0x0 DUP1 PUSH1 0x0 PUSH1 0x40 DUP5 DUP7 SUB SLT ISZERO PUSH2 0xC87 JUMPI PUSH2 0xC86 PUSH2 0xBC9 JUMP JUMPDEST JUMPDEST PUSH1 0x0 PUSH2 0xC95 DUP7 DUP3 DUP8 ADD PUSH2 0xBF4 JUMP JUMPDEST SWAP4 POP POP PUSH1 0x20 DUP5 ADD CALLDATALOAD PUSH8 0xFFFFFFFFFFFFFFFF DUP2 GT ISZERO PUSH2 0xCB6 JUMPI PUSH2 0xCB5 PUSH2 0xBCE JUMP JUMPDEST JUMPDEST PUSH2 0xCC2 DUP7 DUP3 DUP8 ADD PUSH2 0xC18 JUMP JUMPDEST SWAP3 POP SWAP3 POP POP SWAP3 POP SWAP3 POP SWAP3 JUMP JUMPDEST PUSH1 0x0 DUP2 SWAP1 POP SWAP2 SWAP1 POP JUMP JUMPDEST PUSH2 0xCE1 DUP2 PUSH2 0xCCE JUMP JUMPDEST DUP3 MSTORE POP POP JUMP JUMPDEST PUSH1 0x0 PUSH1 0x20 DUP3 ADD SWAP1 POP PUSH2 0xCFC PUSH1 0x0 DUP4 ADD DUP5 PUSH2 0xCD8 JUMP JUMPDEST SWAP3 SWAP2 POP POP JUMP JUMPDEST PUSH1 0x0 PUSH1 0x20 DUP3 DUP5 SUB SLT ISZERO PUSH2 0xD18 JUMPI PUSH2 0xD17 PUSH2 0xBC9 JUMP JUMPDEST JUMPDEST PUSH1 0x0 PUSH2 0xD26 DUP5 DUP3 DUP6 ADD PUSH2 0xBF4 JUMP JUMPDEST SWAP2 POP POP SWAP3 SWAP2 POP POP JUMP JUMPDEST PUSH1 0x0 DUP2 ISZERO ISZERO SWAP1 POP SWAP2 SWAP1 POP JUMP JUMPDEST PUSH2 0xD44 DUP2 PUSH2 0xD2F JUMP JUMPDEST DUP3 MSTORE POP POP JUMP JUMPDEST PUSH1 0x0 PUSH1 0xFF DUP3 AND SWAP1 POP SWAP2 SWAP1 POP JUMP JUMPDEST PUSH2 0xD60 DUP2 PUSH2 0xD4A JUMP JUMPDEST DUP3 MSTORE POP POP JUMP JUMPDEST PUSH1 0x0 PUSH1 0x60 DUP3 ADD SWAP1 POP PUSH2 0xD7B PUSH1 0x0 DUP4 ADD DUP7 PUSH2 0xD3B JUMP JUMPDEST PUSH2 0xD88 PUSH1 0x20 DUP4 ADD DUP6 PUSH2 0xD3B JUMP JUMPDEST PUSH2 0xD95 PUSH1 0x40 DUP4 ADD DUP5 PUSH2 0xD57 JUMP JUMPDEST SWAP5 SWAP4 POP POP POP POP JUMP JUMPDEST PUSH1 0x0 PUSH20 0xFFFFFFFFFFFFFFFFFFFFFFFFFFFFFFFFFFFFFFFF DUP3 AND SWAP1 POP SWAP2 SWAP1 POP JUMP JUMPDEST PUSH1 0x0 PUSH2 0xDC8 DUP3 PUSH2 0xD9D JUMP JUMPDEST SWAP1 POP SWAP2 SWAP1 POP JUMP JUMPDEST PUSH2 0xDD8 DUP2 PUSH2 0xDBD JUMP JUMPDEST DUP3 MSTORE POP POP JUMP JUMPDEST PUSH1 0x0 PUSH1 0x20 DUP3 ADD SWAP1 POP PUSH2 0xDF3 PUSH1 0x0 DUP4 ADD DUP5 PUSH2 0xDCF JUMP JUMPDEST SWAP3 SWAP2 POP POP JUMP JUMPDEST PUSH1 0x0 PUSH1 0x20 DUP3 ADD SWAP1 POP PUSH2 0xE0E PUSH1 0x0 DUP4 ADD DUP5 PUSH2 0xD3B JUMP JUMPDEST SWAP3 SWAP2 POP POP JUMP JUMPDEST PUSH1 0x0 PUSH1 0x20 DUP3 ADD SWAP1 POP PUSH2 0xE29 PUSH1 0x0 DUP4 ADD DUP5 PUSH2 0xD57 JUMP JUMPDEST SWAP3 SWAP2 POP POP JUMP JUMPDEST PUSH1 0x0 DUP1 DUP4 PUSH1 0x1F DUP5 ADD SLT PUSH2 0xE45 JUMPI PUSH2 0xE44 PUSH2 0xC09 JUMP JUMPDEST JUMPDEST DUP3 CALLDATALOAD SWAP1 POP PUSH8 0xFFFFFFFFFFFFFFFF DUP2 GT ISZERO PUSH2 0xE62 JUMPI PUSH2 0xE61 PUSH2 0xC0E JUMP JUMPDEST JUMPDEST PUSH1 0x20 DUP4 ADD SWAP2 POP DUP4 PUSH1 0x1 DUP3 MUL DUP4 ADD GT ISZERO PUSH2 0xE7E JUMPI PUSH2 0xE7D PUSH2 0xC13 JUMP JUMPDEST JUMPDEST SWAP3 POP SWAP3 SWAP1 POP JUMP JUMPDEST PUSH2 0xE8E DUP2 PUSH2 0xCCE JUMP JUMPDEST DUP2 EQ PUSH2 0xE99 JUMPI PUSH1 0x0 DUP1 REVERT JUMPDEST POP JUMP JUMPDEST PUSH1 0x0 DUP2 CALLDATALOAD SWAP1 POP PUSH2 0xEAB DUP2 PUSH2 0xE85 JUMP JUMPDEST SWAP3 SWAP2 POP POP JUMP JUMPDEST PUSH1 0x0 DUP1 PUSH1 0x0 PUSH1 0x40 DUP5 DUP7 SUB SLT ISZERO PUSH2 0xECA JUMPI PUSH2 0xEC9 PUSH2 0xBC9 JUMP JUMPDEST JUMPDEST PUSH1 0x0 DUP5 ADD CALLDATALOAD PUSH8 0xFFFFFFFFFFFFFFFF DUP2 GT ISZERO PUSH2 0xEE8 JUMPI PUSH2 0xEE7 PUSH2 0xBCE JUMP JUMPDEST JUMPDEST PUSH2 0xEF4 DUP7 DUP3 DUP8 ADD PUSH2 0xE2F JUMP JUMPDEST SWAP4 POP SWAP4 POP POP PUSH1 0x20 PUSH2 0xF07 DUP7 DUP3 DUP8 ADD PUSH2 0xE9C JUMP JUMPDEST SWAP2 POP POP SWAP3 POP SWAP3 POP SWAP3 JUMP JUMPDEST PUSH2 0xF1A DUP2 PUSH2 0xD2F JUMP JUMPDEST DUP2 EQ PUSH2 0xF25 JUMPI PUSH1 0x0 DUP1 REVERT JUMPDEST POP JUMP JUMPDEST PUSH1 0x0 DUP2 CALLDATALOAD SWAP1 POP PUSH2 0xF37 DUP2 PUSH2 0xF11 JUMP JUMPDEST SWAP3 SWAP2 POP POP JUMP JUMPDEST PUSH1 0x0 PUSH1 0x20 DUP3 DUP5 SUB SLT ISZERO PUSH2 0xF53 JUMPI PUSH2 0xF52 PUSH2 0xBC9 JUMP JUMPDEST JUMPDEST PUSH1 0x0 PUSH2 0xF61 DUP5 DUP3 DUP6 ADD PUSH2 0xF28 JUMP JUMPDEST SWAP2 POP POP SWAP3 SWAP2 POP POP JUMP JUMPDEST PUSH1 0x0 PUSH1 0x20 DUP3 DUP5 SUB SLT ISZERO PUSH2 0xF80 JUMPI PUSH2 0xF7F PUSH2 0xBC9 JUMP JUMPDEST JUMPDEST PUSH1 0x0 PUSH2 0xF8E DUP5 DUP3 DUP6 ADD PUSH2 0xE9C JUMP JUMPDEST SWAP2 POP POP SWAP3 SWAP2 POP POP JUMP JUMPDEST PUSH2 0xFA0 DUP2 PUSH2 0xBD3 JUMP JUMPDEST DUP3 MSTORE POP POP JUMP JUMPDEST PUSH1 0x0 DUP2 MLOAD SWAP1 POP SWAP2 SWAP1 POP JUMP JUMPDEST PUSH1 0x0 DUP3 DUP3 MSTORE PUSH1 0x20 DUP3 ADD SWAP1 POP SWAP3 SWAP2 POP POP JUMP JUMPDEST PUSH1 0x0 JUMPDEST DUP4 DUP2 LT ISZERO PUSH2 0xFE0 JUMPI DUP1 DUP3 ADD MLOAD DUP2 DUP5 ADD MSTORE PUSH1 0x20 DUP2 ADD SWAP1 POP PUSH2 0xFC5 JUMP JUMPDEST PUSH1 0x0 DUP5 DUP5 ADD MSTORE POP POP POP POP JUMP JUMPDEST PUSH1 0x0 PUSH1 0x1F NOT PUSH1 0x1F DUP4 ADD AND SWAP1 POP SWAP2 SWAP1 POP JUMP JUMPDEST PUSH1 0x0 PUSH2 0x1008 DUP3 PUSH2 0xFA6 JUMP JUMPDEST PUSH2 0x1012 DUP2 DUP6 PUSH2 0xFB1 JUMP JUMPDEST SWAP4 POP PUSH2 0x1022 DUP2 DUP6 PUSH1 0x20 DUP7 ADD PUSH2 0xFC2 JUMP JUMPDEST PUSH2 0x102B DUP2 PUSH2 0xFEC JUMP JUMPDEST DUP5 ADD SWAP2 POP POP SWAP3 SWAP2 POP POP JUMP JUMPDEST PUSH1 0x0 PUSH1 0x60 DUP3 ADD SWAP1 POP PUSH2 0x104B PUSH1 0x0 DUP4 ADD DUP7 PUSH2 0xF97 JUMP JUMPDEST DUP2 DUP2 SUB PUSH1 0x20 DUP4 ADD MSTORE PUSH2 0x105D DUP2 DUP6 PUSH2 0xFFD JUMP JUMPDEST SWAP1 POP PUSH2 0x106C PUSH1 0x40 DUP4 ADD DUP5 PUSH2 0xD3B JUMP JUMPDEST SWAP5 SWAP4 POP POP POP POP JUMP JUMPDEST PUSH1 0x0 PUSH1 0x20 DUP3 ADD SWAP1 POP PUSH2 0x1089 PUSH1 0x0 DUP4 ADD DUP5 PUSH2 0xF97 JUMP JUMPDEST SWAP3 SWAP2 POP POP JUMP JUMPDEST PUSH1 0x0 DUP2 SWAP1 POP SWAP2 SWAP1 POP JUMP JUMPDEST PUSH2 0x10AA PUSH2 0x10A5 DUP3 PUSH2 0xBD3 JUMP JUMPDEST PUSH2 0x108F JUMP JUMPDEST DUP3 MSTORE POP POP JUMP JUMPDEST PUSH1 0x0 DUP2 SWAP1 POP SWAP3 SWAP2 POP POP JUMP JUMPDEST DUP3 DUP2 DUP4 CALLDATACOPY PUSH1 0x0 DUP4 DUP4 ADD MSTORE POP POP POP JUMP JUMPDEST PUSH1 0x0 PUSH2 0x10D6 DUP4 DUP6 PUSH2 0x10B0 JUMP JUMPDEST SWAP4 POP PUSH2 0x10E3 DUP4 DUP6 DUP5 PUSH2 0x10BB JUMP JUMPDEST DUP3 DUP5 ADD SWAP1 POP SWAP4 SWAP3 POP POP POP JUMP JUMPDEST PUSH1 0x0 DUP2 PUSH1 0x60 SHL SWAP1 POP SWAP2 SWAP1 POP JUMP JUMPDEST PUSH1 0x0 PUSH2 0x1107 DUP3 PUSH2 0x10EF JUMP JUMPDEST SWAP1 POP SWAP2 SWAP1 POP JUMP JUMPDEST PUSH1 0x0 PUSH2 0x1119 DUP3 PUSH2 0x10FC JUMP JUMPDEST SWAP1 POP SWAP2 SWAP1 POP JUMP JUMPDEST PUSH2 0x1131 PUSH2 0x112C DUP3 PUSH2 0xDBD JUMP JUMPDEST PUSH2 0x110E JUMP JUMPDEST DUP3 MSTORE POP POP JUMP JUMPDEST PUSH1 0x0 PUSH2 0x1143 DUP3 DUP9 PUSH2 0x1099 JUMP JUMPDEST PUSH1 0x20 DUP3 ADD SWAP2 POP PUSH2 0x1154 DUP3 DUP7 DUP9 PUSH2 0x10CA JUMP JUMPDEST SWAP2 POP PUSH2 0x1160 DUP3 DUP6 PUSH2 0x1099 JUMP JUMPDEST PUSH1 0x20 DUP3 ADD SWAP2 POP PUSH2 0x1170 DUP3 DUP5 PUSH2 0x1120 JUMP JUMPDEST PUSH1 0x14 DUP3 ADD SWAP2 POP DUP2 SWAP1 POP SWAP7 SWAP6 POP POP POP POP POP POP JUMP JUMPDEST PUSH1 0x0 PUSH2 0x118F DUP3 DUP8 PUSH2 0x1099 JUMP JUMPDEST PUSH1 0x20 DUP3 ADD SWAP2 POP PUSH2 0x119F DUP3 DUP7 PUSH2 0x1099 JUMP JUMPDEST PUSH1 0x20 DUP3 ADD SWAP2 POP PUSH2 0x11AF DUP3 DUP6 PUSH2 0x1120 JUMP JUMPDEST PUSH1 0x14 DUP3 ADD SWAP2 POP PUSH2 0x11BF DUP3 DUP5 PUSH2 0x1099 JUMP JUMPDEST PUSH1 0x20 DUP3 ADD SWAP2 POP DUP2 SWAP1 POP SWAP6 SWAP5 POP POP POP POP POP JUMP JUMPDEST PUSH32 0x4E487B7100000000000000000000000000000000000000000000000000000000 PUSH1 0x0 MSTORE PUSH1 0x12 PUSH1 0x4 MSTORE PUSH1 0x24 PUSH1 0x0 REVERT JUMPDEST PUSH1 0x0 PUSH2 0x120B DUP3 PUSH2 0xBD3 JUMP JUMPDEST SWAP2 POP PUSH2 0x1216 DUP4 PUSH2 0xBD3 JUMP JUMPDEST SWAP3 POP DUP3 PUSH2 0x1226 JUMPI PUSH2 0x1225 PUSH2 0x11D1 JUMP JUMPDEST JUMPDEST DUP3 DUP3 MOD SWAP1 POP SWAP3 SWAP2 POP POP JUMP JUMPDEST PUSH32 0x4E487B7100000000000000000000000000000000000000000000000000000000 PUSH1 0x0 MSTORE PUSH1 0x11 PUSH1 0x4 MSTORE PUSH1 0x24 PUSH1 0x0 REVERT JUMPDEST PUSH1 0x0 PUSH2 0x126B DUP3 PUSH2 0xBD3 JUMP JUMPDEST SWAP2 POP PUSH2 0x1276 DUP4 PUSH2 0xBD3 JUMP JUMPDEST SWAP3 POP DUP3 DUP3 ADD SWAP1 POP DUP1 DUP3 GT ISZERO PUSH2 0x128E JUMPI PUSH2 0x128D PUSH2 0x1231 JUMP JUMPDEST JUMPDEST SWAP3 SWAP2 POP POP JUMP JUMPDEST PUSH1 0x0 PUSH2 0x12A0 DUP4 DUP6 PUSH2 0xFB1 JUMP JUMPDEST SWAP4 POP PUSH2 0x12AD DUP4 DUP6 DUP5 PUSH2 0x10BB JUMP JUMPDEST PUSH2 0x12B6 DUP4 PUSH2 0xFEC JUMP JUMPDEST DUP5 ADD SWAP1 POP SWAP4 SWAP3 POP POP POP JUMP JUMPDEST PUSH1 0x0 PUSH1 0x60 DUP3 ADD SWAP1 POP DUP2 DUP2 SUB PUSH1 0x0 DUP4 ADD MSTORE PUSH2 0x12DC DUP2 DUP7 DUP9 PUSH2 0x1294 JUMP JUMPDEST SWAP1 POP PUSH2 0x12EB PUSH1 0x20 DUP4 ADD DUP6 PUSH2 0xD57 JUMP JUMPDEST PUSH2 0x12F8 PUSH1 0x40 DUP4 ADD DUP5 PUSH2 0xF97 JUMP JUMPDEST SWAP6 SWAP5 POP POP POP POP POP JUMP JUMPDEST PUSH1 0x0 DUP2 SWAP1 POP SWAP2 SWAP1 POP JUMP JUMPDEST PUSH1 0x0 PUSH8 0xFFFFFFFFFFFFFFFF DUP3 AND SWAP1 POP SWAP2 SWAP1 POP JUMP JUMPDEST PUSH1 0x0 DUP2 SWAP1 POP SWAP2 SWAP1 POP JUMP JUMPDEST PUSH1 0x0 PUSH2 0x1344 PUSH2 0x133F PUSH2 0x133A DUP5 PUSH2 0x1301 JUMP JUMPDEST PUSH2 0x131F JUMP JUMPDEST PUSH2 0x130B JUMP JUMPDEST SWAP1 POP SWAP2 SWAP1 POP JUMP JUMPDEST PUSH2 0x1354 DUP2 PUSH2 0x1329 JUMP JUMPDEST DUP3 MSTORE POP POP JUMP JUMPDEST PUSH1 0x0 PUSH1 0x80 DUP3 ADD SWAP1 POP PUSH2 0x136F PUSH1 0x0 DUP4 ADD DUP8 PUSH2 0xCD8 JUMP JUMPDEST PUSH2 0x137C PUSH1 0x20 DUP4 ADD DUP7 PUSH2 0xDCF JUMP JUMPDEST PUSH2 0x1389 PUSH1 0x40 DUP4 ADD DUP6 PUSH2 0xCD8 JUMP JUMPDEST PUSH2 0x1396 PUSH1 0x60 DUP4 ADD DUP5 PUSH2 0x134B JUMP JUMPDEST SWAP6 SWAP5 POP POP POP POP POP JUMP JUMPDEST PUSH32 0x4E487B7100000000000000000000000000000000000000000000000000000000 PUSH1 0x0 MSTORE PUSH1 0x41 PUSH1 0x4 MSTORE PUSH1 0x24 PUSH1 0x0 REVERT JUMPDEST PUSH32 0x4E487B7100000000000000000000000000000000000000000000000000000000 PUSH1 0x0 MSTORE PUSH1 0x22 PUSH1 0x4 MSTORE PUSH1 0x24 PUSH1 0x0 REVERT JUMPDEST PUSH1 0x0 PUSH1 0x2 DUP3 DIV SWAP1 POP PUSH1 0x1 DUP3 AND DUP1 PUSH2 0x1415 JUMPI PUSH1 0x7F DUP3 AND SWAP2 POP JUMPDEST PUSH1 0x20 DUP3 LT DUP2 SUB PUSH2 0x1428 JUMPI PUSH2 0x1427 PUSH2 0x13CE JUMP JUMPDEST JUMPDEST POP SWAP2 SWAP1 POP JUMP JUMPDEST PUSH1 0x0 DUP2 SWAP1 POP DUP2 PUSH1 0x0 MSTORE PUSH1 0x20 PUSH1 0x0 KECCAK256 SWAP1 POP SWAP2 SWAP1 POP JUMP JUMPDEST PUSH1 0x0 PUSH1 0x20 PUSH1 0x1F DUP4 ADD DIV SWAP1 POP SWAP2 SWAP1 POP JUMP JUMPDEST PUSH1 0x0 DUP3 DUP3 SHL SWAP1 POP SWAP3 SWAP2 POP POP JUMP JUMPDEST PUSH1 0x0 PUSH1 0x8 DUP4 MUL PUSH2 0x1490 PUSH32 0xFFFFFFFFFFFFFFFFFFFFFFFFFFFFFFFFFFFFFFFFFFFFFFFFFFFFFFFFFFFFFFFF DUP3 PUSH2 0x1453 JUMP JUMPDEST PUSH2 0x149A DUP7 DUP4 PUSH2 0x1453 JUMP JUMPDEST SWAP6 POP DUP1 NOT DUP5 AND SWAP4 POP DUP1 DUP7 AND DUP5 OR SWAP3 POP POP POP SWAP4 SWAP3 POP POP POP JUMP JUMPDEST PUSH1 0x0 PUSH2 0x14CD PUSH2 0x14C8 PUSH2 0x14C3 DUP5 PUSH2 0xBD3 JUMP JUMPDEST PUSH2 0x131F JUMP JUMPDEST PUSH2 0xBD3 JUMP JUMPDEST SWAP1 POP SWAP2 SWAP1 POP JUMP JUMPDEST PUSH1 0x0 DUP2 SWAP1 POP SWAP2 SWAP1 POP JUMP JUMPDEST PUSH2 0x14E7 DUP4 PUSH2 0x14B2 JUMP JUMPDEST PUSH2 0x14FB PUSH2 0x14F3 DUP3 PUSH2 0x14D4 JUMP JUMPDEST DUP5 DUP5 SLOAD PUSH2 0x1460 JUMP JUMPDEST DUP3 SSTORE POP POP POP POP JUMP JUMPDEST PUSH1 0x0 SWAP1 JUMP JUMPDEST PUSH2 0x1510 PUSH2 0x1503 JUMP JUMPDEST PUSH2 0x151B DUP2 DUP5 DUP5 PUSH2 0x14DE JUMP JUMPDEST POP POP POP JUMP JUMPDEST JUMPDEST DUP2 DUP2 LT ISZERO PUSH2 0x153F JUMPI PUSH2 0x1534 PUSH1 0x0 DUP3 PUSH2 0x1508 JUMP JUMPDEST PUSH1 0x1 DUP2 ADD SWAP1 POP PUSH2 0x1521 JUMP JUMPDEST POP POP JUMP JUMPDEST PUSH1 0x1F DUP3 GT ISZERO PUSH2 0x1584 JUMPI PUSH2 0x1555 DUP2 PUSH2 0x142E JUMP JUMPDEST PUSH2 0x155E DUP5 PUSH2 0x1443 JUMP JUMPDEST DUP2 ADD PUSH1 0x20 DUP6 LT ISZERO PUSH2 0x156D JUMPI DUP2 SWAP1 POP JUMPDEST PUSH2 0x1581 PUSH2 0x1579 DUP6 PUSH2 0x1443 JUMP JUMPDEST DUP4 ADD DUP3 PUSH2 0x1520 JUMP JUMPDEST POP POP JUMPDEST POP POP POP JUMP JUMPDEST PUSH1 0x0 DUP3 DUP3 SHR SWAP1 POP SWAP3 SWAP2 POP POP JUMP JUMPDEST PUSH1 0x0 PUSH2 0x15A7 PUSH1 0x0 NOT DUP5 PUSH1 0x8 MUL PUSH2 0x1589 JUMP JUMPDEST NOT DUP1 DUP4 AND SWAP2 POP POP SWAP3 SWAP2 POP POP JUMP JUMPDEST PUSH1 0x0 PUSH2 0x15C0 DUP4 DUP4 PUSH2 0x1596 JUMP JUMPDEST SWAP2 POP DUP3 PUSH1 0x2 MUL DUP3 OR SWAP1 POP SWAP3 SWAP2 POP POP JUMP JUMPDEST PUSH2 0x15D9 DUP3 PUSH2 0xFA6 JUMP JUMPDEST PUSH8 0xFFFFFFFFFFFFFFFF DUP2 GT ISZERO PUSH2 0x15F2 JUMPI PUSH2 0x15F1 PUSH2 0x139F JUMP JUMPDEST JUMPDEST PUSH2 0x15FC DUP3 SLOAD PUSH2 0x13FD JUMP JUMPDEST PUSH2 0x1607 DUP3 DUP3 DUP6 PUSH2 0x1543 JUMP JUMPDEST PUSH1 0x0 PUSH1 0x20 SWAP1 POP PUSH1 0x1F DUP4 GT PUSH1 0x1 DUP2 EQ PUSH2 0x163A JUMPI PUSH1 0x0 DUP5 ISZERO PUSH2 0x1628 JUMPI DUP3 DUP8 ADD MLOAD SWAP1 POP JUMPDEST PUSH2 0x1632 DUP6 DUP3 PUSH2 0x15B4 JUMP JUMPDEST DUP7 SSTORE POP PUSH2 0x169A JUMP JUMPDEST PUSH1 0x1F NOT DUP5 AND PUSH2 0x1648 DUP7 PUSH2 0x142E JUMP JUMPDEST PUSH1 0x0 JUMPDEST DUP3 DUP2 LT ISZERO PUSH2 0x1670 JUMPI DUP5 DUP10 ADD MLOAD DUP3 SSTORE PUSH1 0x1 DUP3 ADD SWAP2 POP PUSH1 0x20 DUP6 ADD SWAP5 POP PUSH1 0x20 DUP2 ADD SWAP1 POP PUSH2 0x164B JUMP JUMPDEST DUP7 DUP4 LT ISZERO PUSH2 0x168D JUMPI DUP5 DUP10 ADD MLOAD PUSH2 0x1689 PUSH1 0x1F DUP10 AND DUP3 PUSH2 0x1596 JUMP JUMPDEST DUP4 SSTORE POP JUMPDEST PUSH1 0x1 PUSH1 0x2 DUP9 MUL ADD DUP9 SSTORE POP POP POP JUMPDEST POP POP POP POP POP POP JUMP JUMPDEST PUSH1 0x0 PUSH1 0x60 DUP3 ADD SWAP1 POP DUP2 DUP2 SUB PUSH1 0x0 DUP4 ADD MSTORE PUSH2 0x16BD DUP2 DUP7 DUP9 PUSH2 0x1294 JUMP JUMPDEST SWAP1 POP PUSH2 0x16CC PUSH1 0x20 DUP4 ADD DUP6 PUSH2 0xCD8 JUMP JUMPDEST PUSH2 0x16D9 PUSH1 0x40 DUP4 ADD DUP5 PUSH2 0xDCF JUMP JUMPDEST SWAP6 SWAP5 POP POP POP POP POP JUMP JUMPDEST PUSH1 0x0 DUP3 DUP3 MSTORE PUSH1 0x20 DUP3 ADD SWAP1 POP SWAP3 SWAP2 POP POP JUMP JUMPDEST PUSH1 0x0 PUSH2 0x16FF DUP4 DUP6 PUSH2 0x16E2 JUMP JUMPDEST SWAP4 POP PUSH2 0x170C DUP4 DUP6 DUP5 PUSH2 0x10BB JUMP JUMPDEST PUSH2 0x1715 DUP4 PUSH2 0xFEC JUMP JUMPDEST DUP5 ADD SWAP1 POP SWAP4 SWAP3 POP POP POP JUMP JUMPDEST PUSH1 0x0 PUSH1 0x20 DUP3 ADD SWAP1 POP DUP2 DUP2 SUB PUSH1 0x0 DUP4 ADD MSTORE PUSH2 0x173B DUP2 DUP5 DUP7 PUSH2 0x16F3 JUMP JUMPDEST SWAP1 POP SWAP4 SWAP3 POP POP POP JUMP JUMPDEST PUSH1 0x0 DUP1 REVERT JUMPDEST PUSH2 0x1752 DUP3 PUSH2 0xFEC JUMP JUMPDEST DUP2 ADD DUP2 DUP2 LT PUSH8 0xFFFFFFFFFFFFFFFF DUP3 GT OR ISZERO PUSH2 0x1771 JUMPI PUSH2 0x1770 PUSH2 0x139F JUMP JUMPDEST JUMPDEST DUP1 PUSH1 0x40 MSTORE POP POP POP JUMP JUMPDEST PUSH1 0x0 PUSH2 0x1784 PUSH2 0xBBF JUMP JUMPDEST SWAP1 POP PUSH2 0x1790 DUP3 DUP3 PUSH2 0x1749 JUMP JUMPDEST SWAP2 SWAP1 POP JUMP JUMPDEST PUSH1 0x0 DUP2 MLOAD SWAP1 POP PUSH2 0x17A4 DUP2 PUSH2 0xE85 JUMP JUMPDEST SWAP3 SWAP2 POP POP JUMP JUMPDEST PUSH1 0x0 DUP2 MLOAD SWAP1 POP PUSH2 0x17B9 DUP2 PUSH2 0xBDD JUMP JUMPDEST SWAP3 SWAP2 POP POP JUMP JUMPDEST PUSH2 0x17C8 DUP2 PUSH2 0xDBD JUMP JUMPDEST DUP2 EQ PUSH2 0x17D3 JUMPI PUSH1 0x0 DUP1 REVERT JUMPDEST POP JUMP JUMPDEST PUSH1 0x0 DUP2 MLOAD SWAP1 POP PUSH2 0x17E5 DUP2 PUSH2 0x17BF JUMP JUMPDEST SWAP3 SWAP2 POP POP JUMP JUMPDEST PUSH2 0x17F4 DUP2 PUSH2 0x130B JUMP JUMPDEST DUP2 EQ PUSH2 0x17FF JUMPI PUSH1 0x0 DUP1 REVERT JUMPDEST POP JUMP JUMPDEST PUSH1 0x0 DUP2 MLOAD SWAP1 POP PUSH2 0x1811 DUP2 PUSH2 0x17EB JUMP JUMPDEST SWAP3 SWAP2 POP POP JUMP JUMPDEST PUSH1 0x0 PUSH2 0x100 DUP3 DUP5 SUB SLT ISZERO PUSH2 0x182E JUMPI PUSH2 0x182D PUSH2 0x1744 JUMP JUMPDEST JUMPDEST PUSH2 0x1839 PUSH2 0x100 PUSH2 0x177A JUMP JUMPDEST SWAP1 POP PUSH1 0x0 PUSH2 0x1849 DUP5 DUP3 DUP6 ADD PUSH2 0x1795 JUMP JUMPDEST PUSH1 0x0 DUP4 ADD MSTORE POP PUSH1 0x20 PUSH2 0x185D DUP5 DUP3 DUP6 ADD PUSH2 0x17AA JUMP JUMPDEST PUSH1 0x20 DUP4 ADD MSTORE POP PUSH1 0x40 PUSH2 0x1871 DUP5 DUP3 DUP6 ADD PUSH2 0x17D6 JUMP JUMPDEST PUSH1 0x40 DUP4 ADD MSTORE POP PUSH1 0x60 PUSH2 0x1885 DUP5 DUP3 DUP6 ADD PUSH2 0x17AA JUMP JUMPDEST PUSH1 0x60 DUP4 ADD MSTORE POP PUSH1 0x80 PUSH2 0x1899 DUP5 DUP3 DUP6 ADD PUSH2 0x1802 JUMP JUMPDEST PUSH1 0x80 DUP4 ADD MSTORE POP PUSH1 0xA0 PUSH2 0x18AD DUP5 DUP3 DUP6 ADD PUSH2 0x17D6 JUMP JUMPDEST PUSH1 0xA0 DUP4 ADD MSTORE POP PUSH1 0xC0 PUSH2 0x18C1 DUP5 DUP3 DUP6 ADD PUSH2 0x17AA JUMP JUMPDEST PUSH1 0xC0 DUP4 ADD MSTORE POP PUSH1 0xE0 PUSH2 0x18D5 DUP5 DUP3 DUP6 ADD PUSH2 0x17AA JUMP JUMPDEST PUSH1 0xE0 DUP4 ADD MSTORE POP SWAP3 SWAP2 POP POP JUMP JUMPDEST PUSH1 0x0 PUSH2 0x100 DUP3 DUP5 SUB SLT ISZERO PUSH2 0x18F8 JUMPI PUSH2 0x18F7 PUSH2 0xBC9 JUMP JUMPDEST JUMPDEST PUSH1 0x0 PUSH2 0x1906 DUP5 DUP3 DUP6 ADD PUSH2 0x1817 JUMP JUMPDEST SWAP2 POP POP SWAP3 SWAP2 POP POP JUMP JUMPDEST PUSH32 0x52616E646F6D6E657373206661696C656420746F20536574746C650000000000 PUSH1 0x0 DUP3 ADD MSTORE POP JUMP JUMPDEST PUSH1 0x0 PUSH2 0x1945 PUSH1 0x1B DUP4 PUSH2 0xFB1 JUMP JUMPDEST SWAP2 POP PUSH2 0x1950 DUP3 PUSH2 0x190F JUMP JUMPDEST PUSH1 0x20 DUP3 ADD SWAP1 POP SWAP2 SWAP1 POP JUMP JUMPDEST PUSH1 0x0 PUSH1 0x20 DUP3 ADD SWAP1 POP DUP2 DUP2 SUB PUSH1 0x0 DUP4 ADD MSTORE PUSH2 0x1974 DUP2 PUSH2 0x1938 JUMP JUMPDEST SWAP1 POP SWAP2 SWAP1 POP JUMP JUMPDEST PUSH1 0x0 DUP2 SLOAD PUSH2 0x1988 DUP2 PUSH2 0x13FD JUMP JUMPDEST PUSH2 0x1992 DUP2 DUP7 PUSH2 0xFB1 JUMP JUMPDEST SWAP5 POP PUSH1 0x1 DUP3 AND PUSH1 0x0 DUP2 EQ PUSH2 0x19AD JUMPI PUSH1 0x1 DUP2 EQ PUSH2 0x19C3 JUMPI PUSH2 0x19F6 JUMP JUMPDEST PUSH1 0xFF NOT DUP4 AND DUP7 MSTORE DUP2 ISZERO ISZERO PUSH1 0x20 MUL DUP7 ADD SWAP4 POP PUSH2 0x19F6 JUMP JUMPDEST PUSH2 0x19CC DUP6 PUSH2 0x142E JUMP JUMPDEST PUSH1 0x0 JUMPDEST DUP4 DUP2 LT ISZERO PUSH2 0x19EE JUMPI DUP2 SLOAD DUP2 DUP10 ADD MSTORE PUSH1 0x1 DUP3 ADD SWAP2 POP PUSH1 0x20 DUP2 ADD SWAP1 POP PUSH2 0x19CF JUMP JUMPDEST DUP1 DUP9 ADD SWAP6 POP POP POP JUMPDEST POP POP POP SWAP3 SWAP2 POP POP JUMP JUMPDEST PUSH1 0x0 PUSH1 0x60 DUP3 ADD SWAP1 POP DUP2 DUP2 SUB PUSH1 0x0 DUP4 ADD MSTORE PUSH2 0x1A19 DUP2 DUP7 PUSH2 0x197B JUMP JUMPDEST SWAP1 POP PUSH2 0x1A28 PUSH1 0x20 DUP4 ADD DUP6 PUSH2 0xD57 JUMP JUMPDEST PUSH2 0x1A35 PUSH1 0x40 DUP4 ADD DUP5 PUSH2 0xF97 JUMP JUMPDEST SWAP5 SWAP4 POP POP POP POP JUMP INVALID LOG2 PUSH5 0x6970667358 0x22 SLT KECCAK256 GAS JUMP EXTCODECOPY 0x4D 0xC7 PUSH4 0x3C604E45 KECCAK256 SAR CHAINID ADDMOD PUSH27 0x805A38B0B249DF1C73EC7C89AB77F57A2C64736F6C634300081800 CALLER "},"methodIdentifiers":{"SWITCHBOARD()":"2fd140ee","SWITCHBOARD_QUEUE()":"1e1508fa","demoMode()":"44ba06d5","diceResults(uint256)":"42e568da","getDiceStatus(uint256)":"2537958c","owner()":"8da5cb5b","requestDiceRoll(uint256,string)":"1ca7e346","requests(bytes32)":"9d866985","roundRequested(uint256)":"365c123d","setDemoMode(bool)":"7edadd54","settleAndFulfill(bytes,bytes32)":"59ed054d"}}}}}