{"contracts/DiceRoller.sol":{"DiceRoller":{"abi":[{"inputs":[],"stateMutability":"nonpayable","type":"constructor"},{"inputs":[{"internalType":"uint256","name":"roundId","type":"uint256"}],"name":"AlreadyFulfilled","type":"error"},{"inputs":[{"internalType":"uint256","name":"roundId","type":"uint256"}],"name":"AlreadyRequested","type":"error"},{"inputs":[],"name":"InvalidRandomness","type":"error"},{"inputs":[],"name":"Unauthorized","type":"error"},{"anonymous":false,"inputs":[{"indexed":true,"internalType":"uint256","name":"roundId","type":"uint256"},{"indexed":false,"internalType":"string","name":"gameId","type":"string"},{"indexed":false,"internalType":"bytes32","name":"requestId","type":"bytes32"},{"indexed":false,"internalType":"address","name":"requester","type":"address"}],"name":"DiceRequested","type":"event"},{"anonymous":false,"inputs":[{"indexed":true,"internalType":"uint256","name":"roundId","type":"uint256"},{"indexed":false,"internalType":"string","name":"gameId","type":"string"},{"indexed":false,"internalType":"uint8","name":"result","type":"uint8"},{"indexed":false,"internalType":"uint256","name":"randomness","type":"uint256"}],"name":"DiceRolled","type":"event"},{"inputs":[],"name":"SWITCHBOARD","outputs":[{"internalType":"address","name":"","type":"address"}],"stateMutability":"view","type":"function"},{"inputs":[],"name":"SWITCHBOARD_QUEUE","outputs":[{"internalType":"bytes32","name":"","type":"bytes32"}],"stateMutability":"view","type":"function"},{"inputs":[{"internalType":"uint256","name":"","type":"uint256"}],"name":"diceResults","outputs":[{"internalType":"uint8","name":"","type":"uint8"}],"stateMutability":"view","type":"function"},{"inputs":[{"internalType":"uint256","name":"roundId","type":"uint256"}],"name":"getDiceStatus","outputs":[{"internalType":"bool","name":"requested","type":"bool"},{"internalType":"bool","name":"fulfilled","type":"bool"},{"internalType":"uint8","name":"result","type":"uint8"}],"stateMutability":"view","type":"function"},{"inputs":[],"name":"owner","outputs":[{"internalType":"address","name":"","type":"address"}],"stateMutability":"view","type":"function"},{"inputs":[{"internalType":"uint256","name":"roundId","type":"uint256"},{"internalType":"string","name":"gameId","type":"string"}],"name":"requestDiceRoll","outputs":[],"stateMutability":"nonpayable","type":"function"},{"inputs":[{"internalType":"bytes32","name":"","type":"bytes32"}],"name":"requests","outputs":[{"internalType":"uint256","name":"roundId","type":"uint256"},{"internalType":"string","name":"gameId","type":"string"},{"internalType":"bool","name":"fulfilled","type":"bool"}],"stateMutability":"view","type":"function"},{"inputs":[{"internalType":"uint256","name":"","type":"uint256"}],"name":"roundRequested","outputs":[{"internalType":"bool","name":"","type":"bool"}],"stateMutability":"view","type":"function"},{"inputs":[{"internalType":"bytes","name":"proof","type":"bytes"},{"internalType":"bytes32","name":"requestId","type":"bytes32"}],"name":"settleAndFulfill","outputs":[],"stateMutability":"payable","type":"function"}],"evm":{"bytecode":{"linkReferences":{},"object":"608060405234801561001057600080fd5b50336000806101000a81548173ffffffffffffffffffffffffffffffffffffffff021916908373ffffffffffffffffffffffffffffffffffffffff160217905550611769806100606000396000f3fe6080604052600436106100865760003560e01c8063365c123d11610059578063365c123d1461014957806342e568da1461018657806359ed054d146101c35780638da5cb5b146101df5780639d8669851461020a57610086565b80631ca7e3461461008b5780631e1508fa146100b45780632537958c146100df5780632fd140ee1461011e575b600080fd5b34801561009757600080fd5b506100b260048036038101906100ad9190610a4b565b610249565b005b3480156100c057600080fd5b506100c9610518565b6040516100d69190610ac4565b60405180910390f35b3480156100eb57600080fd5b5061010660048036038101906101019190610adf565b61053f565b60405161011593929190610b43565b60405180910390f35b34801561012a57600080fd5b5061013361059b565b6040516101409190610bbb565b60405180910390f35b34801561015557600080fd5b50610170600480360381019061016b9190610adf565b6105b3565b60405161017d9190610bd6565b60405180910390f35b34801561019257600080fd5b506101ad60048036038101906101a89190610adf565b6105d3565b6040516101ba9190610bf1565b60405180910390f35b6101dd60048036038101906101d89190610c8e565b6105f3565b005b3480156101eb57600080fd5b506101f46108b9565b6040516102019190610bbb565b60405180910390f35b34801561021657600080fd5b50610231600480360381019061022c9190610cee565b6108dd565b60405161024093929190610dba565b60405180910390f35b6003600084815260200190815260200160002060009054906101000a900460ff16156102ac57826040517fa6461ae60000000000000000000000000000000000000000000000000000000081526004016102a39190610df8565b60405180910390fd5b60006002600085815260200190815260200160002060009054906101000a900460ff1660ff161461031457826040517fdd6ac7a600000000000000000000000000000000000000000000000000000000815260040161030b9190610df8565b60405180910390fd5b6000838383423360405160200161032f959493929190610ebb565b60405160208183030381529060405280519060200120905073b7f03eee7b9f56347e32cc71dad65b303d5a0e6773ffffffffffffffffffffffffffffffffffffffff1663f4bc77f782307f86807068432f186a147cf0b13a30067d386204ea9d6c8b04743ac2ef010b075260001b60016040518563ffffffff1660e01b81526004016103be9493929190610f60565b600060405180830381600087803b1580156103d857600080fd5b505af11580156103ec573d6000803e3d6000fd5b50505050604051806060016040528085815260200184848080601f016020809104026020016040519081016040528093929190818152602001838380828437600081840152601f19601f820116905080830192505050505050508152602001600015158152506001600083815260200190815260200160002060008201518160000155602082015181600101908161048491906111d6565b5060408201518160020160006101000a81548160ff02191690831515021790555090505060016003600086815260200190815260200160002060006101000a81548160ff021916908315150217905550837f920b0e4838a3db1d79b8af2abb5e087b8fbf22a1d55f7c5bb2b68d0e8e9c23ee8484843360405161050a94939291906112d5565b60405180910390a250505050565b7f86807068432f186a147cf0b13a30067d386204ea9d6c8b04743ac2ef010b075260001b81565b60008060006003600085815260200190815260200160002060009054906101000a900460ff1692506002600085815260200190815260200160002060009054906101000a900460ff16905060008160ff16141591509193909250565b73b7f03eee7b9f56347e32cc71dad65b303d5a0e6781565b60036020528060005260406000206000915054906101000a900460ff1681565b60026020528060005260406000206000915054906101000a900460ff1681565b60006001600083815260200190815260200160002090506000816000015403610648576040517f82b4290000000000000000000000000000000000000000000000000000000000815260040160405180910390fd5b8060020160009054906101000a900460ff16156106a05780600001546040517fdd6ac7a60000000000000000000000000000000000000000000000000000000081526004016106979190610df8565b60405180910390fd5b73b7f03eee7b9f56347e32cc71dad65b303d5a0e6773ffffffffffffffffffffffffffffffffffffffff16633065b55e3486866040518463ffffffff1660e01b81526004016106f0929190611353565b6000604051808303818588803b15801561070957600080fd5b505af115801561071d573d6000803e3d6000fd5b5050505050600073b7f03eee7b9f56347e32cc71dad65b303d5a0e6773ffffffffffffffffffffffffffffffffffffffff166305b19402846040518263ffffffff1660e01b81526004016107719190610ac4565b61010060405180830381865afa15801561078f573d6000803e3d6000fd5b505050506040513d601f19601f820116820180604052508101906107b39190611514565b905060008160e00151036107fc576040517f08c379a00000000000000000000000000000000000000000000000000000000081526004016107f39061158e565b60405180910390fd5b6000600160038360c0015161081191906115dd565b61081b919061163d565b905080600260008560000154815260200190815260200160002060006101000a81548160ff021916908360ff16021790555060018360020160006101000a81548160ff02191690831515021790555082600001547f58210cc71454673d56532cdb98a421704725067e2f4786b710d5a4666131609984600101838560c001516040516108a9939291906116f5565b60405180910390a2505050505050565b60008054906101000a900473ffffffffffffffffffffffffffffffffffffffff1681565b600160205280600052604060002060009150905080600001549080600101805461090690611003565b80601f016020809104026020016040519081016040528092919081815260200182805461093290611003565b801561097f5780601f106109545761010080835404028352916020019161097f565b820191906000526020600020905b81548152906001019060200180831161096257829003601f168201915b5050505050908060020160009054906101000a900460ff16905083565b6000604051905090565b600080fd5b600080fd5b6000819050919050565b6109c3816109b0565b81146109ce57600080fd5b50565b6000813590506109e0816109ba565b92915050565b600080fd5b600080fd5b600080fd5b60008083601f840112610a0b57610a0a6109e6565b5b8235905067ffffffffffffffff811115610a2857610a276109eb565b5b602083019150836001820283011115610a4457610a436109f0565b5b9250929050565b600080600060408486031215610a6457610a636109a6565b5b6000610a72868287016109d1565b935050602084013567ffffffffffffffff811115610a9357610a926109ab565b5b610a9f868287016109f5565b92509250509250925092565b6000819050919050565b610abe81610aab565b82525050565b6000602082019050610ad96000830184610ab5565b92915050565b600060208284031215610af557610af46109a6565b5b6000610b03848285016109d1565b91505092915050565b60008115159050919050565b610b2181610b0c565b82525050565b600060ff82169050919050565b610b3d81610b27565b82525050565b6000606082019050610b586000830186610b18565b610b656020830185610b18565b610b726040830184610b34565b949350505050565b600073ffffffffffffffffffffffffffffffffffffffff82169050919050565b6000610ba582610b7a565b9050919050565b610bb581610b9a565b82525050565b6000602082019050610bd06000830184610bac565b92915050565b6000602082019050610beb6000830184610b18565b92915050565b6000602082019050610c066000830184610b34565b92915050565b60008083601f840112610c2257610c216109e6565b5b8235905067ffffffffffffffff811115610c3f57610c3e6109eb565b5b602083019150836001820283011115610c5b57610c5a6109f0565b5b9250929050565b610c6b81610aab565b8114610c7657600080fd5b50565b600081359050610c8881610c62565b92915050565b600080600060408486031215610ca757610ca66109a6565b5b600084013567ffffffffffffffff811115610cc557610cc46109ab565b5b610cd186828701610c0c565b93509350506020610ce486828701610c79565b9150509250925092565b600060208284031215610d0457610d036109a6565b5b6000610d1284828501610c79565b91505092915050565b610d24816109b0565b82525050565b600081519050919050565b600082825260208201905092915050565b60005b83811015610d64578082015181840152602081019050610d49565b60008484015250505050565b6000601f19601f8301169050919050565b6000610d8c82610d2a565b610d968185610d35565b9350610da6818560208601610d46565b610daf81610d70565b840191505092915050565b6000606082019050610dcf6000830186610d1b565b8181036020830152610de18185610d81565b9050610df06040830184610b18565b949350505050565b6000602082019050610e0d6000830184610d1b565b92915050565b6000819050919050565b610e2e610e29826109b0565b610e13565b82525050565b600081905092915050565b82818337600083830152505050565b6000610e5a8385610e34565b9350610e67838584610e3f565b82840190509392505050565b60008160601b9050919050565b6000610e8b82610e73565b9050919050565b6000610e9d82610e80565b9050919050565b610eb5610eb082610b9a565b610e92565b82525050565b6000610ec78288610e1d565b602082019150610ed8828688610e4e565b9150610ee48285610e1d565b602082019150610ef48284610ea4565b6014820191508190509695505050505050565b6000819050919050565b600067ffffffffffffffff82169050919050565b6000819050919050565b6000610f4a610f45610f4084610f07565b610f25565b610f11565b9050919050565b610f5a81610f2f565b82525050565b6000608082019050610f756000830187610ab5565b610f826020830186610bac565b610f8f6040830185610ab5565b610f9c6060830184610f51565b95945050505050565b7f4e487b7100000000000000000000000000000000000000000000000000000000600052604160045260246000fd5b7f4e487b7100000000000000000000000000000000000000000000000000000000600052602260045260246000fd5b6000600282049050600182168061101b57607f821691505b60208210810361102e5761102d610fd4565b5b50919050565b60008190508160005260206000209050919050565b60006020601f8301049050919050565b600082821b905092915050565b6000600883026110967fffffffffffffffffffffffffffffffffffffffffffffffffffffffffffffffff82611059565b6110a08683611059565b95508019841693508086168417925050509392505050565b60006110d36110ce6110c9846109b0565b610f25565b6109b0565b9050919050565b6000819050919050565b6110ed836110b8565b6111016110f9826110da565b848454611066565b825550505050565b600090565b611116611109565b6111218184846110e4565b505050565b5b818110156111455761113a60008261110e565b600181019050611127565b5050565b601f82111561118a5761115b81611034565b61116484611049565b81016020851015611173578190505b61118761117f85611049565b830182611126565b50505b505050565b600082821c905092915050565b60006111ad6000198460080261118f565b1980831691505092915050565b60006111c6838361119c565b9150826002028217905092915050565b6111df82610d2a565b67ffffffffffffffff8111156111f8576111f7610fa5565b5b6112028254611003565b61120d828285611149565b600060209050601f831160018114611240576000841561122e578287015190505b61123885826111ba565b8655506112a0565b601f19841661124e86611034565b60005b8281101561127657848901518255600182019150602085019450602081019050611251565b86831015611293578489015161128f601f89168261119c565b8355505b6001600288020188555050505b505050505050565b60006112b48385610d35565b93506112c1838584610e3f565b6112ca83610d70565b840190509392505050565b600060608201905081810360008301526112f08186886112a8565b90506112ff6020830185610ab5565b61130c6040830184610bac565b95945050505050565b600082825260208201905092915050565b60006113328385611315565b935061133f838584610e3f565b61134883610d70565b840190509392505050565b6000602082019050818103600083015261136e818486611326565b90509392505050565b600080fd5b61138582610d70565b810181811067ffffffffffffffff821117156113a4576113a3610fa5565b5b80604052505050565b60006113b761099c565b90506113c3828261137c565b919050565b6000815190506113d781610c62565b92915050565b6000815190506113ec816109ba565b92915050565b6113fb81610b9a565b811461140657600080fd5b50565b600081519050611418816113f2565b92915050565b61142781610f11565b811461143257600080fd5b50565b6000815190506114448161141e565b92915050565b6000610100828403121561146157611460611377565b5b61146c6101006113ad565b9050600061147c848285016113c8565b6000830152506020611490848285016113dd565b60208301525060406114a484828501611409565b60408301525060606114b8848285016113dd565b60608301525060806114cc84828501611435565b60808301525060a06114e084828501611409565b60a08301525060c06114f4848285016113dd565b60c08301525060e0611508848285016113dd565b60e08301525092915050565b6000610100828403121561152b5761152a6109a6565b5b60006115398482850161144a565b91505092915050565b7f52616e646f6d6e657373206661696c656420746f20536574746c650000000000600082015250565b6000611578601b83610d35565b915061158382611542565b602082019050919050565b600060208201905081810360008301526115a78161156b565b9050919050565b7f4e487b7100000000000000000000000000000000000000000000000000000000600052601260045260246000fd5b60006115e8826109b0565b91506115f3836109b0565b925082611603576116026115ae565b5b828206905092915050565b7f4e487b7100000000000000000000000000000000000000000000000000000000600052601160045260246000fd5b6000611648826109b0565b9150611653836109b0565b925082820190508082111561166b5761166a61160e565b5b92915050565b6000815461167e81611003565b6116888186610d35565b945060018216600081146116a357600181146116b9576116ec565b60ff1983168652811515602002860193506116ec565b6116c285611034565b60005b838110156116e4578154818901526001820191506020810190506116c5565b808801955050505b50505092915050565b6000606082019050818103600083015261170f8186611671565b905061171e6020830185610b34565b61172b6040830184610d1b565b94935050505056fea2646970667358221220499a3762d59917993faff7acba65c55c05605adec5abf99af20a00bf289ed8dd64736f6c63430008180033","opcodes":"PUSH1 0x80 PUSH1 0x40 MSTORE CALLVALUE DUP1 ISZERO PUSH2 0x10 JUMPI PUSH1 0x0 DUP1 REVERT JUMPDEST POP CALLER PUSH1 0x0 DUP1 PUSH2 0x100 EXP DUP2 SLOAD DUP2 PUSH20 0xFFFFFFFFFFFFFFFFFFFFFFFFFFFFFFFFFFFFFFFF MUL NOT AND SWAP1 DUP4 PUSH20 0xFFFFFFFFFFFFFFFFFFFFFFFFFFFFFFFFFFFFFFFF AND MUL OR SWAP1 SSTORE POP PUSH2 0x1769 DUP1 PUSH2 0x60 PUSH1 0x0 CODECOPY PUSH1 0x0 RETURN INVALID PUSH1 0x80 PUSH1 0x40 MSTORE PUSH1 0x4 CALLDATASIZE LT PUSH2 0x86 JUMPI PUSH1 0x0 CALLDATALOAD PUSH1 0xE0 SHR DUP1 PUSH4 0x365C123D GT PUSH2 0x59 JUMPI DUP1 PUSH4 0x365C123D EQ PUSH2 0x149 JUMPI DUP1 PUSH4 0x42E568DA EQ PUSH2 0x186 JUMPI DUP1 PUSH4 0x59ED054D EQ PUSH2 0x1C3 JUMPI DUP1 PUSH4 0x8DA5CB5B EQ PUSH2 0x1DF JUMPI DUP1 PUSH4 0x9D866985 EQ PUSH2 0x20A JUMPI PUSH2 0x86 JUMP JUMPDEST DUP1 PUSH4 0x1CA7E346 EQ PUSH2 0x8B JUMPI DUP1 PUSH4 0x1E1508FA EQ PUSH2 0xB4 JUMPI DUP1 PUSH4 0x2537958C EQ PUSH2 0xDF JUMPI DUP1 PUSH4 0x2FD140EE EQ PUSH2 0x11E JUMPI JUMPDEST PUSH1 0x0 DUP1 REVERT JUMPDEST CALLVALUE DUP1 ISZERO PUSH2 0x97 JUMPI PUSH1 0x0 DUP1 REVERT JUMPDEST POP PUSH2 0xB2 PUSH1 0x4 DUP1 CALLDATASIZE SUB DUP2 ADD SWAP1 PUSH2 0xAD SWAP2 SWAP1 PUSH2 0xA4B JUMP JUMPDEST PUSH2 0x249 JUMP JUMPDEST STOP JUMPDEST CALLVALUE DUP1 ISZERO PUSH2 0xC0 JUMPI PUSH1 0x0 DUP1 REVERT JUMPDEST POP PUSH2 0xC9 PUSH2 0x518 JUMP JUMPDEST PUSH1 0x40 MLOAD PUSH2 0xD6 SWAP2 SWAP1 PUSH2 0xAC4 JUMP JUMPDEST PUSH1 0x40 MLOAD DUP1 SWAP2 SUB SWAP1 RETURN JUMPDEST CALLVALUE DUP1 ISZERO PUSH2 0xEB JUMPI PUSH1 0x0 DUP1 REVERT JUMPDEST POP PUSH2 0x106 PUSH1 0x4 DUP1 CALLDATASIZE SUB DUP2 ADD SWAP1 PUSH2 0x101 SWAP2 SWAP1 PUSH2 0xADF JUMP JUMPDEST PUSH2 0x53F JUMP JUMPDEST PUSH1 0x40 MLOAD PUSH2 0x115 SWAP4 SWAP3 SWAP2 SWAP1 PUSH2 0xB43 JUMP JUMPDEST PUSH1 0x40 MLOAD DUP1 SWAP2 SUB SWAP1 RETURN JUMPDEST CALLVALUE DUP1 ISZERO PUSH2 0x12A JUMPI PUSH1 0x0 DUP1 REVERT JUMPDEST POP PUSH2 0x133 PUSH2 0x59B JUMP JUMPDEST PUSH1 0x40 MLOAD PUSH2 0x140 SWAP2 SWAP1 PUSH2 0xBBB JUMP JUMPDEST PUSH1 0x40 MLOAD DUP1 SWAP2 SUB SWAP1 RETURN JUMPDEST CALLVALUE DUP1 ISZERO PUSH2 0x155 JUMPI PUSH1 0x0 DUP1 REVERT JUMPDEST POP PUSH2 0x170 PUSH1 0x4 DUP1 CALLDATASIZE SUB DUP2 ADD SWAP1 PUSH2 0x16B SWAP2 SWAP1 PUSH2 0xADF JUMP JUMPDEST PUSH2 0x5B3 JUMP JUMPDEST PUSH1 0x40 MLOAD PUSH2 0x17D SWAP2 SWAP1 PUSH2 0xBD6 JUMP JUMPDEST PUSH1 0x40 MLOAD DUP1 SWAP2 SUB SWAP1 RETURN JUMPDEST CALLVALUE DUP1 ISZERO PUSH2 0x192 JUMPI PUSH1 0x0 DUP1 REVERT JUMPDEST POP PUSH2 0x1AD PUSH1 0x4 DUP1 CALLDATASIZE SUB DUP2 ADD SWAP1 PUSH2 0x1A8 SWAP2 SWAP1 PUSH2 0xADF JUMP JUMPDEST PUSH2 0x5D3 JUMP JUMPDEST PUSH1 0x40 MLOAD PUSH2 0x1BA SWAP2 SWAP1 PUSH2 0xBF1 JUMP JUMPDEST PUSH1 0x40 MLOAD DUP1 SWAP2 SUB SWAP1 RETURN JUMPDEST PUSH2 0x1DD PUSH1 0x4 DUP1 CALLDATASIZE SUB DUP2 ADD SWAP1 PUSH2 0x1D8 SWAP2 SWAP1 PUSH2 0xC8E JUMP JUMPDEST PUSH2 0x5F3 JUMP JUMPDEST STOP JUMPDEST CALLVALUE DUP1 ISZERO PUSH2 0x1EB JUMPI PUSH1 0x0 DUP1 REVERT JUMPDEST POP PUSH2 0x1F4 PUSH2 0x8B9 JUMP JUMPDEST PUSH1 0x40 MLOAD PUSH2 0x201 SWAP2 SWAP1 PUSH2 0xBBB JUMP JUMPDEST PUSH1 0x40 MLOAD DUP1 SWAP2 SUB SWAP1 RETURN JUMPDEST CALLVALUE DUP1 ISZERO PUSH2 0x216 JUMPI PUSH1 0x0 DUP1 REVERT JUMPDEST POP PUSH2 0x231 PUSH1 0x4 DUP1 CALLDATASIZE SUB DUP2 ADD SWAP1 PUSH2 0x22C SWAP2 SWAP1 PUSH2 0xCEE JUMP JUMPDEST PUSH2 0x8DD JUMP JUMPDEST PUSH1 0x40 MLOAD PUSH2 0x240 SWAP4 SWAP3 SWAP2 SWAP1 PUSH2 0xDBA JUMP JUMPDEST PUSH1 0x40 MLOAD DUP1 SWAP2 SUB SWAP1 RETURN JUMPDEST PUSH1 0x3 PUSH1 0x0 DUP5 DUP2 MSTORE PUSH1 0x20 ADD SWAP1 DUP2 MSTORE PUSH1 0x20 ADD PUSH1 0x0 KECCAK256 PUSH1 0x0 SWAP1 SLOAD SWAP1 PUSH2 0x100 EXP SWAP1 DIV PUSH1 0xFF AND ISZERO PUSH2 0x2AC JUMPI DUP3 PUSH1 0x40 MLOAD PUSH32 0xA6461AE600000000000000000000000000000000000000000000000000000000 DUP2 MSTORE PUSH1 0x4 ADD PUSH2 0x2A3 SWAP2 SWAP1 PUSH2 0xDF8 JUMP JUMPDEST PUSH1 0x40 MLOAD DUP1 SWAP2 SUB SWAP1 REVERT JUMPDEST PUSH1 0x0 PUSH1 0x2 PUSH1 0x0 DUP6 DUP2 MSTORE PUSH1 0x20 ADD SWAP1 DUP2 MSTORE PUSH1 0x20 ADD PUSH1 0x0 KECCAK256 PUSH1 0x0 SWAP1 SLOAD SWAP1 PUSH2 0x100 EXP SWAP1 DIV PUSH1 0xFF AND PUSH1 0xFF AND EQ PUSH2 0x314 JUMPI DUP3 PUSH1 0x40 MLOAD PUSH32 0xDD6AC7A600000000000000000000000000000000000000000000000000000000 DUP2 MSTORE PUSH1 0x4 ADD PUSH2 0x30B SWAP2 SWAP1 PUSH2 0xDF8 JUMP JUMPDEST PUSH1 0x40 MLOAD DUP1 SWAP2 SUB SWAP1 REVERT JUMPDEST PUSH1 0x0 DUP4 DUP4 DUP4 TIMESTAMP CALLER PUSH1 0x40 MLOAD PUSH1 0x20 ADD PUSH2 0x32F SWAP6 SWAP5 SWAP4 SWAP3 SWAP2 SWAP1 PUSH2 0xEBB JUMP JUMPDEST PUSH1 0x40 MLOAD PUSH1 0x20 DUP2 DUP4 SUB SUB DUP2 MSTORE SWAP1 PUSH1 0x40 MSTORE DUP1 MLOAD SWAP1 PUSH1 0x20 ADD KECCAK256 SWAP1 POP PUSH20 0xB7F03EEE7B9F56347E32CC71DAD65B303D5A0E67 PUSH20 0xFFFFFFFFFFFFFFFFFFFFFFFFFFFFFFFFFFFFFFFF AND PUSH4 0xF4BC77F7 DUP3 ADDRESS PUSH32 0x86807068432F186A147CF0B13A30067D386204EA9D6C8B04743AC2EF010B0752 PUSH1 0x0 SHL PUSH1 0x1 PUSH1 0x40 MLOAD DUP6 PUSH4 0xFFFFFFFF AND PUSH1 0xE0 SHL DUP2 MSTORE PUSH1 0x4 ADD PUSH2 0x3BE SWAP5 SWAP4 SWAP3 SWAP2 SWAP1 PUSH2 0xF60 JUMP JUMPDEST PUSH1 0x0 PUSH1 0x40 MLOAD DUP1 DUP4 SUB DUP2 PUSH1 0x0 DUP8 DUP1 EXTCODESIZE ISZERO DUP1 ISZERO PUSH2 0x3D8 JUMPI PUSH1 0x0 DUP1 REVERT JUMPDEST POP GAS CALL ISZERO DUP1 ISZERO PUSH2 0x3EC JUMPI RETURNDATASIZE PUSH1 0x0 DUP1 RETURNDATACOPY RETURNDATASIZE PUSH1 0x0 REVERT JUMPDEST POP POP POP POP PUSH1 0x40 MLOAD DUP1 PUSH1 0x60 ADD PUSH1 0x40 MSTORE DUP1 DUP6 DUP2 MSTORE PUSH1 0x20 ADD DUP5 DUP5 DUP1 DUP1 PUSH1 0x1F ADD PUSH1 0x20 DUP1 SWAP2 DIV MUL PUSH1 0x20 ADD PUSH1 0x40 MLOAD SWAP1 DUP2 ADD PUSH1 0x40 MSTORE DUP1 SWAP4 SWAP3 SWAP2 SWAP1 DUP2 DUP2 MSTORE PUSH1 0x20 ADD DUP4 DUP4 DUP1 DUP3 DUP5 CALLDATACOPY PUSH1 0x0 DUP2 DUP5 ADD MSTORE PUSH1 0x1F NOT PUSH1 0x1F DUP3 ADD AND SWAP1 POP DUP1 DUP4 ADD SWAP3 POP POP POP POP POP POP POP DUP2 MSTORE PUSH1 0x20 ADD PUSH1 0x0 ISZERO ISZERO DUP2 MSTORE POP PUSH1 0x1 PUSH1 0x0 DUP4 DUP2 MSTORE PUSH1 0x20 ADD SWAP1 DUP2 MSTORE PUSH1 0x20 ADD PUSH1 0x0 KECCAK256 PUSH1 0x0 DUP3 ADD MLOAD DUP2 PUSH1 0x0 ADD SSTORE PUSH1 0x20 DUP3 ADD MLOAD DUP2 PUSH1 0x1 ADD SWAP1 DUP2 PUSH2 0x484 SWAP2 SWAP1 PUSH2 0x11D6 JUMP JUMPDEST POP PUSH1 0x40 DUP3 ADD MLOAD DUP2 PUSH1 0x2 ADD PUSH1 0x0 PUSH2 0x100 EXP DUP2 SLOAD DUP2 PUSH1 0xFF MUL NOT AND SWAP1 DUP4 ISZERO ISZERO MUL OR SWAP1 SSTORE POP SWAP1 POP POP PUSH1 0x1 PUSH1 0x3 PUSH1 0x0 DUP7 DUP2 MSTORE PUSH1 0x20 ADD SWAP1 DUP2 MSTORE PUSH1 0x20 ADD PUSH1 0x0 KECCAK256 PUSH1 0x0 PUSH2 0x100 EXP DUP2 SLOAD DUP2 PUSH1 0xFF MUL NOT AND SWAP1 DUP4 ISZERO ISZERO MUL OR SWAP1 SSTORE POP DUP4 PUSH32 0x920B0E4838A3DB1D79B8AF2ABB5E087B8FBF22A1D55F7C5BB2B68D0E8E9C23EE DUP5 DUP5 DUP5 CALLER PUSH1 0x40 MLOAD PUSH2 0x50A SWAP5 SWAP4 SWAP3 SWAP2 SWAP1 PUSH2 0x12D5 JUMP JUMPDEST PUSH1 0x40 MLOAD DUP1 SWAP2 SUB SWAP1 LOG2 POP POP POP POP JUMP JUMPDEST PUSH32 0x86807068432F186A147CF0B13A30067D386204EA9D6C8B04743AC2EF010B0752 PUSH1 0x0 SHL DUP2 JUMP JUMPDEST PUSH1 0x0 DUP1 PUSH1 0x0 PUSH1 0x3 PUSH1 0x0 DUP6 DUP2 MSTORE PUSH1 0x20 ADD SWAP1 DUP2 MSTORE PUSH1 0x20 ADD PUSH1 0x0 KECCAK256 PUSH1 0x0 SWAP1 SLOAD SWAP1 PUSH2 0x100 EXP SWAP1 DIV PUSH1 0xFF AND SWAP3 POP PUSH1 0x2 PUSH1 0x0 DUP6 DUP2 MSTORE PUSH1 0x20 ADD SWAP1 DUP2 MSTORE PUSH1 0x20 ADD PUSH1 0x0 KECCAK256 PUSH1 0x0 SWAP1 SLOAD SWAP1 PUSH2 0x100 EXP SWAP1 DIV PUSH1 0xFF AND SWAP1 POP PUSH1 0x0 DUP2 PUSH1 0xFF AND EQ ISZERO SWAP2 POP SWAP2 SWAP4 SWAP1 SWAP3 POP JUMP JUMPDEST PUSH20 0xB7F03EEE7B9F56347E32CC71DAD65B303D5A0E67 DUP2 JUMP JUMPDEST PUSH1 0x3 PUSH1 0x20 MSTORE DUP1 PUSH1 0x0 MSTORE PUSH1 0x40 PUSH1 0x0 KECCAK256 PUSH1 0x0 SWAP2 POP SLOAD SWAP1 PUSH2 0x100 EXP SWAP1 DIV PUSH1 0xFF AND DUP2 JUMP JUMPDEST PUSH1 0x2 PUSH1 0x20 MSTORE DUP1 PUSH1 0x0 MSTORE PUSH1 0x40 PUSH1 0x0 KECCAK256 PUSH1 0x0 SWAP2 POP SLOAD SWAP1 PUSH2 0x100 EXP SWAP1 DIV PUSH1 0xFF AND DUP2 JUMP JUMPDEST PUSH1 0x0 PUSH1 0x1 PUSH1 0x0 DUP4 DUP2 MSTORE PUSH1 0x20 ADD SWAP1 DUP2 MSTORE PUSH1 0x20 ADD PUSH1 0x0 KECCAK256 SWAP1 POP PUSH1 0x0 DUP2 PUSH1 0x0 ADD SLOAD SUB PUSH2 0x648 JUMPI PUSH1 0x40 MLOAD PUSH32 0x82B4290000000000000000000000000000000000000000000000000000000000 DUP2 MSTORE PUSH1 0x4 ADD PUSH1 0x40 MLOAD DUP1 SWAP2 SUB SWAP1 REVERT JUMPDEST DUP1 PUSH1 0x2 ADD PUSH1 0x0 SWAP1 SLOAD SWAP1 PUSH2 0x100 EXP SWAP1 DIV PUSH1 0xFF AND ISZERO PUSH2 0x6A0 JUMPI DUP1 PUSH1 0x0 ADD SLOAD PUSH1 0x40 MLOAD PUSH32 0xDD6AC7A600000000000000000000000000000000000000000000000000000000 DUP2 MSTORE PUSH1 0x4 ADD PUSH2 0x697 SWAP2 SWAP1 PUSH2 0xDF8 JUMP JUMPDEST PUSH1 0x40 MLOAD DUP1 SWAP2 SUB SWAP1 REVERT JUMPDEST PUSH20 0xB7F03EEE7B9F56347E32CC71DAD65B303D5A0E67 PUSH20 0xFFFFFFFFFFFFFFFFFFFFFFFFFFFFFFFFFFFFFFFF AND PUSH4 0x3065B55E CALLVALUE DUP7 DUP7 PUSH1 0x40 MLOAD DUP5 PUSH4 0xFFFFFFFF AND PUSH1 0xE0 SHL DUP2 MSTORE PUSH1 0x4 ADD PUSH2 0x6F0 SWAP3 SWAP2 SWAP1 PUSH2 0x1353 JUMP JUMPDEST PUSH1 0x0 PUSH1 0x40 MLOAD DUP1 DUP4 SUB DUP2 DUP6 DUP9 DUP1 EXTCODESIZE ISZERO DUP1 ISZERO PUSH2 0x709 JUMPI PUSH1 0x0 DUP1 REVERT JUMPDEST POP GAS CALL ISZERO DUP1 ISZERO PUSH2 0x71D JUMPI RETURNDATASIZE PUSH1 0x0 DUP1 RETURNDATACOPY RETURNDATASIZE PUSH1 0x0 REVERT JUMPDEST POP POP POP POP POP PUSH1 0x0 PUSH20 0xB7F03EEE7B9F56347E32CC71DAD65B303D5A0E67 PUSH20 0xFFFFFFFFFFFFFFFFFFFFFFFFFFFFFFFFFFFFFFFF AND PUSH4 0x5B19402 DUP5 PUSH1 0x40 MLOAD DUP3 PUSH4 0xFFFFFFFF AND PUSH1 0xE0 SHL DUP2 MSTORE PUSH1 0x4 ADD PUSH2 0x771 SWAP2 SWAP1 PUSH2 0xAC4 JUMP JUMPDEST PUSH2 0x100 PUSH1 0x40 MLOAD DUP1 DUP4 SUB DUP2 DUP7 GAS STATICCALL ISZERO DUP1 ISZERO PUSH2 0x78F JUMPI RETURNDATASIZE PUSH1 0x0 DUP1 RETURNDATACOPY RETURNDATASIZE PUSH1 0x0 REVERT JUMPDEST POP POP POP POP PUSH1 0x40 MLOAD RETURNDATASIZE PUSH1 0x1F NOT PUSH1 0x1F DUP3 ADD AND DUP3 ADD DUP1 PUSH1 0x40 MSTORE POP DUP2 ADD SWAP1 PUSH2 0x7B3 SWAP2 SWAP1 PUSH2 0x1514 JUMP JUMPDEST SWAP1 POP PUSH1 0x0 DUP2 PUSH1 0xE0 ADD MLOAD SUB PUSH2 0x7FC JUMPI PUSH1 0x40 MLOAD PUSH32 0x8C379A000000000000000000000000000000000000000000000000000000000 DUP2 MSTORE PUSH1 0x4 ADD PUSH2 0x7F3 SWAP1 PUSH2 0x158E JUMP JUMPDEST PUSH1 0x40 MLOAD DUP1 SWAP2 SUB SWAP1 REVERT JUMPDEST PUSH1 0x0 PUSH1 0x1 PUSH1 0x3 DUP4 PUSH1 0xC0 ADD MLOAD PUSH2 0x811 SWAP2 SWAP1 PUSH2 0x15DD JUMP JUMPDEST PUSH2 0x81B SWAP2 SWAP1 PUSH2 0x163D JUMP JUMPDEST SWAP1 POP DUP1 PUSH1 0x2 PUSH1 0x0 DUP6 PUSH1 0x0 ADD SLOAD DUP2 MSTORE PUSH1 0x20 ADD SWAP1 DUP2 MSTORE PUSH1 0x20 ADD PUSH1 0x0 KECCAK256 PUSH1 0x0 PUSH2 0x100 EXP DUP2 SLOAD DUP2 PUSH1 0xFF MUL NOT AND SWAP1 DUP4 PUSH1 0xFF AND MUL OR SWAP1 SSTORE POP PUSH1 0x1 DUP4 PUSH1 0x2 ADD PUSH1 0x0 PUSH2 0x100 EXP DUP2 SLOAD DUP2 PUSH1 0xFF MUL NOT AND SWAP1 DUP4 ISZERO ISZERO MUL OR SWAP1 SSTORE POP DUP3 PUSH1 0x0 ADD SLOAD PUSH32 0x58210CC71454673D56532CDB98A421704725067E2F4786B710D5A46661316099 DUP5 PUSH1 0x1 ADD DUP4 DUP6 PUSH1 0xC0 ADD MLOAD PUSH1 0x40 MLOAD PUSH2 0x8A9 SWAP4 SWAP3 SWAP2 SWAP1 PUSH2 0x16F5 JUMP JUMPDEST PUSH1 0x40 MLOAD DUP1 SWAP2 SUB SWAP1 LOG2 POP POP POP POP POP POP JUMP JUMPDEST PUSH1 0x0 DUP1 SLOAD SWAP1 PUSH2 0x100 EXP SWAP1 DIV PUSH20 0xFFFFFFFFFFFFFFFFFFFFFFFFFFFFFFFFFFFFFFFF AND DUP2 JUMP JUMPDEST PUSH1 0x1 PUSH1 0x20 MSTORE DUP1 PUSH1 0x0 MSTORE PUSH1 0x40 PUSH1 0x0 KECCAK256 PUSH1 0x0 SWAP2 POP SWAP1 POP DUP1 PUSH1 0x0 ADD SLOAD SWAP1 DUP1 PUSH1 0x1 ADD DUP1 SLOAD PUSH2 0x906 SWAP1 PUSH2 0x1003 JUMP JUMPDEST DUP1 PUSH1 0x1F ADD PUSH1 0x20 DUP1 SWAP2 DIV MUL PUSH1 0x20 ADD PUSH1 0x40 MLOAD SWAP1 DUP2 ADD PUSH1 0x40 MSTORE DUP1 SWAP3 SWAP2 SWAP1 DUP2 DUP2 MSTORE PUSH1 0x20 ADD DUP3 DUP1 SLOAD PUSH2 0x932 SWAP1 PUSH2 0x1003 JUMP JUMPDEST DUP1 ISZERO PUSH2 0x97F JUMPI DUP1 PUSH1 0x1F LT PUSH2 0x954 JUMPI PUSH2 0x100 DUP1 DUP4 SLOAD DIV MUL DUP4 MSTORE SWAP2 PUSH1 0x20 ADD SWAP2 PUSH2 0x97F JUMP JUMPDEST DUP3 ADD SWAP2 SWAP1 PUSH1 0x0 MSTORE PUSH1 0x20 PUSH1 0x0 KECCAK256 SWAP1 JUMPDEST DUP2 SLOAD DUP2 MSTORE SWAP1 PUSH1 0x1 ADD SWAP1 PUSH1 0x20 ADD DUP1 DUP4 GT PUSH2 0x962 JUMPI DUP3 SWAP1 SUB PUSH1 0x1F AND DUP3 ADD SWAP2 JUMPDEST POP POP POP POP POP SWAP1 DUP1 PUSH1 0x2 ADD PUSH1 0x0 SWAP1 SLOAD SWAP1 PUSH2 0x100 EXP SWAP1 DIV PUSH1 0xFF AND SWAP1 POP DUP4 JUMP JUMPDEST PUSH1 0x0 PUSH1 0x40 MLOAD SWAP1 POP SWAP1 JUMP JUMPDEST PUSH1 0x0 DUP1 REVERT JUMPDEST PUSH1 0x0 DUP1 REVERT JUMPDEST PUSH1 0x0 DUP2 SWAP1 POP SWAP2 SWAP1 POP JUMP JUMPDEST PUSH2 0x9C3 DUP2 PUSH2 0x9B0 JUMP JUMPDEST DUP2 EQ PUSH2 0x9CE JUMPI PUSH1 0x0 DUP1 REVERT JUMPDEST POP JUMP JUMPDEST PUSH1 0x0 DUP2 CALLDATALOAD SWAP1 POP PUSH2 0x9E0 DUP2 PUSH2 0x9BA JUMP JUMPDEST SWAP3 SWAP2 POP POP JUMP JUMPDEST PUSH1 0x0 DUP1 REVERT JUMPDEST PUSH1 0x0 DUP1 REVERT JUMPDEST PUSH1 0x0 DUP1 REVERT JUMPDEST PUSH1 0x0 DUP1 DUP4 PUSH1 0x1F DUP5 ADD SLT PUSH2 0xA0B JUMPI PUSH2 0xA0A PUSH2 0x9E6 JUMP JUMPDEST JUMPDEST DUP3 CALLDATALOAD SWAP1 POP PUSH8 0xFFFFFFFFFFFFFFFF DUP2 GT ISZERO PUSH2 0xA28 JUMPI PUSH2 0xA27 PUSH2 0x9EB JUMP JUMPDEST JUMPDEST PUSH1 0x20 DUP4 ADD SWAP2 POP DUP4 PUSH1 0x1 DUP3 MUL DUP4 ADD GT ISZERO PUSH2 0xA44 JUMPI PUSH2 0xA43 PUSH2 0x9F0 JUMP JUMPDEST JUMPDEST SWAP3 POP SWAP3 SWAP1 POP JUMP JUMPDEST PUSH1 0x0 DUP1 PUSH1 0x0 PUSH1 0x40 DUP5 DUP7 SUB SLT ISZERO PUSH2 0xA64 JUMPI PUSH2 0xA63 PUSH2 0x9A6 JUMP JUMPDEST JUMPDEST PUSH1 0x0 PUSH2 0xA72 DUP7 DUP3 DUP8 ADD PUSH2 0x9D1 JUMP JUMPDEST SWAP4 POP POP PUSH1 0x20 DUP5 ADD CALLDATALOAD PUSH8 0xFFFFFFFFFFFFFFFF DUP2 GT ISZERO PUSH2 0xA93 JUMPI PUSH2 0xA92 PUSH2 0x9AB JUMP JUMPDEST JUMPDEST PUSH2 0xA9F DUP7 DUP3 DUP8 ADD PUSH2 0x9F5 JUMP JUMPDEST SWAP3 POP SWAP3 POP POP SWAP3 POP SWAP3 POP SWAP3 JUMP JUMPDEST PUSH1 0x0 DUP2 SWAP1 POP SWAP2 SWAP1 POP JUMP JUMPDEST PUSH2 0xABE DUP2 PUSH2 0xAAB JUMP JUMPDEST DUP3 MSTORE POP POP JUMP JUMPDEST PUSH1 0x0 PUSH1 0x20 DUP3 ADD SWAP1 POP PUSH2 0xAD9 PUSH1 0x0 DUP4 ADD DUP5 PUSH2 0xAB5 JUMP JUMPDEST SWAP3 SWAP2 POP POP JUMP JUMPDEST PUSH1 0x0 PUSH1 0x20 DUP3 DUP5 SUB SLT ISZERO PUSH2 0xAF5 JUMPI PUSH2 0xAF4 PUSH2 0x9A6 JUMP JUMPDEST JUMPDEST PUSH1 0x0 PUSH2 0xB03 DUP5 DUP3 DUP6 ADD PUSH2 0x9D1 JUMP JUMPDEST SWAP2 POP POP SWAP3 SWAP2 POP POP JUMP JUMPDEST PUSH1 0x0 DUP2 ISZERO ISZERO SWAP1 POP SWAP2 SWAP1 POP JUMP JUMPDEST PUSH2 0xB21 DUP2 PUSH2 0xB0C JUMP JUMPDEST DUP3 MSTORE POP POP JUMP JUMPDEST PUSH1 0x0 PUSH1 0xFF DUP3 AND SWAP1 POP SWAP2 SWAP1 POP JUMP JUMPDEST PUSH2 0xB3D DUP2 PUSH2 0xB27 JUMP JUMPDEST DUP3 MSTORE POP POP JUMP JUMPDEST PUSH1 0x0 PUSH1 0x60 DUP3 ADD SWAP1 POP PUSH2 0xB58 PUSH1 0x0 DUP4 ADD DUP7 PUSH2 0xB18 JUMP JUMPDEST PUSH2 0xB65 PUSH1 0x20 DUP4 ADD DUP6 PUSH2 0xB18 JUMP JUMPDEST PUSH2 0xB72 PUSH1 0x40 DUP4 ADD DUP5 PUSH2 0xB34 JUMP JUMPDEST SWAP5 SWAP4 POP POP POP POP JUMP JUMPDEST PUSH1 0x0 PUSH20 0xFFFFFFFFFFFFFFFFFFFFFFFFFFFFFFFFFFFFFFFF DUP3 AND SWAP1 POP SWAP2 SWAP1 POP JUMP JUMPDEST PUSH1 0x0 PUSH2 0xBA5 DUP3 PUSH2 0xB7A JUMP JUMPDEST SWAP1 POP SWAP2 SWAP1 POP JUMP JUMPDEST PUSH2 0xBB5 DUP2 PUSH2 0xB9A JUMP JUMPDEST DUP3 MSTORE POP POP JUMP JUMPDEST PUSH1 0x0 PUSH1 0x20 DUP3 ADD SWAP1 POP PUSH2 0xBD0 PUSH1 0x0 DUP4 ADD DUP5 PUSH2 0xBAC JUMP JUMPDEST SWAP3 SWAP2 POP POP JUMP JUMPDEST PUSH1 0x0 PUSH1 0x20 DUP3 ADD SWAP1 POP PUSH2 0xBEB PUSH1 0x0 DUP4 ADD DUP5 PUSH2 0xB18 JUMP JUMPDEST SWAP3 SWAP2 POP POP JUMP JUMPDEST PUSH1 0x0 PUSH1 0x20 DUP3 ADD SWAP1 POP PUSH2 0xC06 PUSH1 0x0 DUP4 ADD DUP5 PUSH2 0xB34 JUMP JUMPDEST SWAP3 SWAP2 POP POP JUMP JUMPDEST PUSH1 0x0 DUP1 DUP4 PUSH1 0x1F DUP5 ADD SLT PUSH2 0xC22 JUMPI PUSH2 0xC21 PUSH2 0x9E6 JUMP JUMPDEST JUMPDEST DUP3 CALLDATALOAD SWAP1 POP PUSH8 0xFFFFFFFFFFFFFFFF DUP2 GT ISZERO PUSH2 0xC3F JUMPI PUSH2 0xC3E PUSH2 0x9EB JUMP JUMPDEST JUMPDEST PUSH1 0x20 DUP4 ADD SWAP2 POP DUP4 PUSH1 0x1 DUP3 MUL DUP4 ADD GT ISZERO PUSH2 0xC5B JUMPI PUSH2 0xC5A PUSH2 0x9F0 JUMP JUMPDEST JUMPDEST SWAP3 POP SWAP3 SWAP1 POP JUMP JUMPDEST PUSH2 0xC6B DUP2 PUSH2 0xAAB JUMP JUMPDEST DUP2 EQ PUSH2 0xC76 JUMPI PUSH1 0x0 DUP1 REVERT JUMPDEST POP JUMP JUMPDEST PUSH1 0x0 DUP2 CALLDATALOAD SWAP1 POP PUSH2 0xC88 DUP2 PUSH2 0xC62 JUMP JUMPDEST SWAP3 SWAP2 POP POP JUMP JUMPDEST PUSH1 0x0 DUP1 PUSH1 0x0 PUSH1 0x40 DUP5 DUP7 SUB SLT ISZERO PUSH2 0xCA7 JUMPI PUSH2 0xCA6 PUSH2 0x9A6 JUMP JUMPDEST JUMPDEST PUSH1 0x0 DUP5 ADD CALLDATALOAD PUSH8 0xFFFFFFFFFFFFFFFF DUP2 GT ISZERO PUSH2 0xCC5 JUMPI PUSH2 0xCC4 PUSH2 0x9AB JUMP JUMPDEST JUMPDEST PUSH2 0xCD1 DUP7 DUP3 DUP8 ADD PUSH2 0xC0C JUMP JUMPDEST SWAP4 POP SWAP4 POP POP PUSH1 0x20 PUSH2 0xCE4 DUP7 DUP3 DUP8 ADD PUSH2 0xC79 JUMP JUMPDEST SWAP2 POP POP SWAP3 POP SWAP3 POP SWAP3 JUMP JUMPDEST PUSH1 0x0 PUSH1 0x20 DUP3 DUP5 SUB SLT ISZERO PUSH2 0xD04 JUMPI PUSH2 0xD03 PUSH2 0x9A6 JUMP JUMPDEST JUMPDEST PUSH1 0x0 PUSH2 0xD12 DUP5 DUP3 DUP6 ADD PUSH2 0xC79 JUMP JUMPDEST SWAP2 POP POP SWAP3 SWAP2 POP POP JUMP JUMPDEST PUSH2 0xD24 DUP2 PUSH2 0x9B0 JUMP JUMPDEST DUP3 MSTORE POP POP JUMP JUMPDEST PUSH1 0x0 DUP2 MLOAD SWAP1 POP SWAP2 SWAP1 POP JUMP JUMPDEST PUSH1 0x0 DUP3 DUP3 MSTORE PUSH1 0x20 DUP3 ADD SWAP1 POP SWAP3 SWAP2 POP POP JUMP JUMPDEST PUSH1 0x0 JUMPDEST DUP4 DUP2 LT ISZERO PUSH2 0xD64 JUMPI DUP1 DUP3 ADD MLOAD DUP2 DUP5 ADD MSTORE PUSH1 0x20 DUP2 ADD SWAP1 POP PUSH2 0xD49 JUMP JUMPDEST PUSH1 0x0 DUP5 DUP5 ADD MSTORE POP POP POP POP JUMP JUMPDEST PUSH1 0x0 PUSH1 0x1F NOT PUSH1 0x1F DUP4 ADD AND SWAP1 POP SWAP2 SWAP1 POP JUMP JUMPDEST PUSH1 0x0 PUSH2 0xD8C DUP3 PUSH2 0xD2A JUMP JUMPDEST PUSH2 0xD96 DUP2 DUP6 PUSH2 0xD35 JUMP JUMPDEST SWAP4 POP PUSH2 0xDA6 DUP2 DUP6 PUSH1 0x20 DUP7 ADD PUSH2 0xD46 JUMP JUMPDEST PUSH2 0xDAF DUP2 PUSH2 0xD70 JUMP JUMPDEST DUP5 ADD SWAP2 POP POP SWAP3 SWAP2 POP POP JUMP JUMPDEST PUSH1 0x0 PUSH1 0x60 DUP3 ADD SWAP1 POP PUSH2 0xDCF PUSH1 0x0 DUP4 ADD DUP7 PUSH2 0xD1B JUMP JUMPDEST DUP2 DUP2 SUB PUSH1 0x20 DUP4 ADD MSTORE PUSH2 0xDE1 DUP2 DUP6 PUSH2 0xD81 JUMP JUMPDEST SWAP1 POP PUSH2 0xDF0 PUSH1 0x40 DUP4 ADD DUP5 PUSH2 0xB18 JUMP JUMPDEST SWAP5 SWAP4 POP POP POP POP JUMP JUMPDEST PUSH1 0x0 PUSH1 0x20 DUP3 ADD SWAP1 POP PUSH2 0xE0D PUSH1 0x0 DUP4 ADD DUP5 PUSH2 0xD1B JUMP JUMPDEST SWAP3 SWAP2 POP POP JUMP JUMPDEST PUSH1 0x0 DUP2 SWAP1 POP SWAP2 SWAP1 POP JUMP JUMPDEST PUSH2 0xE2E PUSH2 0xE29 DUP3 PUSH2 0x9B0 JUMP JUMPDEST PUSH2 0xE13 JUMP JUMPDEST DUP3 MSTORE POP POP JUMP JUMPDEST PUSH1 0x0 DUP2 SWAP1 POP SWAP3 SWAP2 POP POP JUMP JUMPDEST DUP3 DUP2 DUP4 CALLDATACOPY PUSH1 0x0 DUP4 DUP4 ADD MSTORE POP POP POP JUMP JUMPDEST PUSH1 0x0 PUSH2 0xE5A DUP4 DUP6 PUSH2 0xE34 JUMP JUMPDEST SWAP4 POP PUSH2 0xE67 DUP4 DUP6 DUP5 PUSH2 0xE3F JUMP JUMPDEST DUP3 DUP5 ADD SWAP1 POP SWAP4 SWAP3 POP POP POP JUMP JUMPDEST PUSH1 0x0 DUP2 PUSH1 0x60 SHL SWAP1 POP SWAP2 SWAP1 POP JUMP JUMPDEST PUSH1 0x0 PUSH2 0xE8B DUP3 PUSH2 0xE73 JUMP JUMPDEST SWAP1 POP SWAP2 SWAP1 POP JUMP JUMPDEST PUSH1 0x0 PUSH2 0xE9D DUP3 PUSH2 0xE80 JUMP JUMPDEST SWAP1 POP SWAP2 SWAP1 POP JUMP JUMPDEST PUSH2 0xEB5 PUSH2 0xEB0 DUP3 PUSH2 0xB9A JUMP JUMPDEST PUSH2 0xE92 JUMP JUMPDEST DUP3 MSTORE POP POP JUMP JUMPDEST PUSH1 0x0 PUSH2 0xEC7 DUP3 DUP9 PUSH2 0xE1D JUMP JUMPDEST PUSH1 0x20 DUP3 ADD SWAP2 POP PUSH2 0xED8 DUP3 DUP7 DUP9 PUSH2 0xE4E JUMP JUMPDEST SWAP2 POP PUSH2 0xEE4 DUP3 DUP6 PUSH2 0xE1D JUMP JUMPDEST PUSH1 0x20 DUP3 ADD SWAP2 POP PUSH2 0xEF4 DUP3 DUP5 PUSH2 0xEA4 JUMP JUMPDEST PUSH1 0x14 DUP3 ADD SWAP2 POP DUP2 SWAP1 POP SWAP7 SWAP6 POP POP POP POP POP POP JUMP JUMPDEST PUSH1 0x0 DUP2 SWAP1 POP SWAP2 SWAP1 POP JUMP JUMPDEST PUSH1 0x0 PUSH8 0xFFFFFFFFFFFFFFFF DUP3 AND SWAP1 POP SWAP2 SWAP1 POP JUMP JUMPDEST PUSH1 0x0 DUP2 SWAP1 POP SWAP2 SWAP1 POP JUMP JUMPDEST PUSH1 0x0 PUSH2 0xF4A PUSH2 0xF45 PUSH2 0xF40 DUP5 PUSH2 0xF07 JUMP JUMPDEST PUSH2 0xF25 JUMP JUMPDEST PUSH2 0xF11 JUMP JUMPDEST SWAP1 POP SWAP2 SWAP1 POP JUMP JUMPDEST PUSH2 0xF5A DUP2 PUSH2 0xF2F JUMP JUMPDEST DUP3 MSTORE POP POP JUMP JUMPDEST PUSH1 0x0 PUSH1 0x80 DUP3 ADD SWAP1 POP PUSH2 0xF75 PUSH1 0x0 DUP4 ADD DUP8 PUSH2 0xAB5 JUMP JUMPDEST PUSH2 0xF82 PUSH1 0x20 DUP4 ADD DUP7 PUSH2 0xBAC JUMP JUMPDEST PUSH2 0xF8F PUSH1 0x40 DUP4 ADD DUP6 PUSH2 0xAB5 JUMP JUMPDEST PUSH2 0xF9C PUSH1 0x60 DUP4 ADD DUP5 PUSH2 0xF51 JUMP JUMPDEST SWAP6 SWAP5 POP POP POP POP POP JUMP JUMPDEST PUSH32 0x4E487B7100000000000000000000000000000000000000000000000000000000 PUSH1 0x0 MSTORE PUSH1 0x41 PUSH1 0x4 MSTORE PUSH1 0x24 PUSH1 0x0 REVERT JUMPDEST PUSH32 0x4E487B7100000000000000000000000000000000000000000000000000000000 PUSH1 0x0 MSTORE PUSH1 0x22 PUSH1 0x4 MSTORE PUSH1 0x24 PUSH1 0x0 REVERT JUMPDEST PUSH1 0x0 PUSH1 0x2 DUP3 DIV SWAP1 POP PUSH1 0x1 DUP3 AND DUP1 PUSH2 0x101B JUMPI PUSH1 0x7F DUP3 AND SWAP2 POP JUMPDEST PUSH1 0x20 DUP3 LT DUP2 SUB PUSH2 0x102E JUMPI PUSH2 0x102D PUSH2 0xFD4 JUMP JUMPDEST JUMPDEST POP SWAP2 SWAP1 POP JUMP JUMPDEST PUSH1 0x0 DUP2 SWAP1 POP DUP2 PUSH1 0x0 MSTORE PUSH1 0x20 PUSH1 0x0 KECCAK256 SWAP1 POP SWAP2 SWAP1 POP JUMP JUMPDEST PUSH1 0x0 PUSH1 0x20 PUSH1 0x1F DUP4 ADD DIV SWAP1 POP SWAP2 SWAP1 POP JUMP JUMPDEST PUSH1 0x0 DUP3 DUP3 SHL SWAP1 POP SWAP3 SWAP2 POP POP JUMP JUMPDEST PUSH1 0x0 PUSH1 0x8 DUP4 MUL PUSH2 0x1096 PUSH32 0xFFFFFFFFFFFFFFFFFFFFFFFFFFFFFFFFFFFFFFFFFFFFFFFFFFFFFFFFFFFFFFFF DUP3 PUSH2 0x1059 JUMP JUMPDEST PUSH2 0x10A0 DUP7 DUP4 PUSH2 0x1059 JUMP JUMPDEST SWAP6 POP DUP1 NOT DUP5 AND SWAP4 POP DUP1 DUP7 AND DUP5 OR SWAP3 POP POP POP SWAP4 SWAP3 POP POP POP JUMP JUMPDEST PUSH1 0x0 PUSH2 0x10D3 PUSH2 0x10CE PUSH2 0x10C9 DUP5 PUSH2 0x9B0 JUMP JUMPDEST PUSH2 0xF25 JUMP JUMPDEST PUSH2 0x9B0 JUMP JUMPDEST SWAP1 POP SWAP2 SWAP1 POP JUMP JUMPDEST PUSH1 0x0 DUP2 SWAP1 POP SWAP2 SWAP1 POP JUMP JUMPDEST PUSH2 0x10ED DUP4 PUSH2 0x10B8 JUMP JUMPDEST PUSH2 0x1101 PUSH2 0x10F9 DUP3 PUSH2 0x10DA JUMP JUMPDEST DUP5 DUP5 SLOAD PUSH2 0x1066 JUMP JUMPDEST DUP3 SSTORE POP POP POP POP JUMP JUMPDEST PUSH1 0x0 SWAP1 JUMP JUMPDEST PUSH2 0x1116 PUSH2 0x1109 JUMP JUMPDEST PUSH2 0x1121 DUP2 DUP5 DUP5 PUSH2 0x10E4 JUMP JUMPDEST POP POP POP JUMP JUMPDEST JUMPDEST DUP2 DUP2 LT ISZERO PUSH2 0x1145 JUMPI PUSH2 0x113A PUSH1 0x0 DUP3 PUSH2 0x110E JUMP JUMPDEST PUSH1 0x1 DUP2 ADD SWAP1 POP PUSH2 0x1127 JUMP JUMPDEST POP POP JUMP JUMPDEST PUSH1 0x1F DUP3 GT ISZERO PUSH2 0x118A JUMPI PUSH2 0x115B DUP2 PUSH2 0x1034 JUMP JUMPDEST PUSH2 0x1164 DUP5 PUSH2 0x1049 JUMP JUMPDEST DUP2 ADD PUSH1 0x20 DUP6 LT ISZERO PUSH2 0x1173 JUMPI DUP2 SWAP1 POP JUMPDEST PUSH2 0x1187 PUSH2 0x117F DUP6 PUSH2 0x1049 JUMP JUMPDEST DUP4 ADD DUP3 PUSH2 0x1126 JUMP JUMPDEST POP POP JUMPDEST POP POP POP JUMP JUMPDEST PUSH1 0x0 DUP3 DUP3 SHR SWAP1 POP SWAP3 SWAP2 POP POP JUMP JUMPDEST PUSH1 0x0 PUSH2 0x11AD PUSH1 0x0 NOT DUP5 PUSH1 0x8 MUL PUSH2 0x118F JUMP JUMPDEST NOT DUP1 DUP4 AND SWAP2 POP POP SWAP3 SWAP2 POP POP JUMP JUMPDEST PUSH1 0x0 PUSH2 0x11C6 DUP4 DUP4 PUSH2 0x119C JUMP JUMPDEST SWAP2 POP DUP3 PUSH1 0x2 MUL DUP3 OR SWAP1 POP SWAP3 SWAP2 POP POP JUMP JUMPDEST PUSH2 0x11DF DUP3 PUSH2 0xD2A JUMP JUMPDEST PUSH8 0xFFFFFFFFFFFFFFFF DUP2 GT ISZERO PUSH2 0x11F8 JUMPI PUSH2 0x11F7 PUSH2 0xFA5 JUMP JUMPDEST JUMPDEST PUSH2 0x1202 DUP3 SLOAD PUSH2 0x1003 JUMP JUMPDEST PUSH2 0x120D DUP3 DUP3 DUP6 PUSH2 0x1149 JUMP JUMPDEST PUSH1 0x0 PUSH1 0x20 SWAP1 POP PUSH1 0x1F DUP4 GT PUSH1 0x1 DUP2 EQ PUSH2 0x1240 JUMPI PUSH1 0x0 DUP5 ISZERO PUSH2 0x122E JUMPI DUP3 DUP8 ADD MLOAD SWAP1 POP JUMPDEST PUSH2 0x1238 DUP6 DUP3 PUSH2 0x11BA JUMP JUMPDEST DUP7 SSTORE POP PUSH2 0x12A0 JUMP JUMPDEST PUSH1 0x1F NOT DUP5 AND PUSH2 0x124E DUP7 PUSH2 0x1034 JUMP JUMPDEST PUSH1 0x0 JUMPDEST DUP3 DUP2 LT ISZERO PUSH2 0x1276 JUMPI DUP5 DUP10 ADD MLOAD DUP3 SSTORE PUSH1 0x1 DUP3 ADD SWAP2 POP PUSH1 0x20 DUP6 ADD SWAP5 POP PUSH1 0x20 DUP2 ADD SWAP1 POP PUSH2 0x1251 JUMP JUMPDEST DUP7 DUP4 LT ISZERO PUSH2 0x1293 JUMPI DUP5 DUP10 ADD MLOAD PUSH2 0x128F PUSH1 0x1F DUP10 AND DUP3 PUSH2 0x119C JUMP JUMPDEST DUP4 SSTORE POP JUMPDEST PUSH1 0x1 PUSH1 0x2 DUP9 MUL ADD DUP9 SSTORE POP POP POP JUMPDEST POP POP POP POP POP POP JUMP JUMPDEST PUSH1 0x0 PUSH2 0x12B4 DUP4 DUP6 PUSH2 0xD35 JUMP JUMPDEST SWAP4 POP PUSH2 0x12C1 DUP4 DUP6 DUP5 PUSH2 0xE3F JUMP JUMPDEST PUSH2 0x12CA DUP4 PUSH2 0xD70 JUMP JUMPDEST DUP5 ADD SWAP1 POP SWAP4 SWAP3 POP POP POP JUMP JUMPDEST PUSH1 0x0 PUSH1 0x60 DUP3 ADD SWAP1 POP DUP2 DUP2 SUB PUSH1 0x0 DUP4 ADD MSTORE PUSH2 0x12F0 DUP2 DUP7 DUP9 PUSH2 0x12A8 JUMP JUMPDEST SWAP1 POP PUSH2 0x12FF PUSH1 0x20 DUP4 ADD DUP6 PUSH2 0xAB5 JUMP JUMPDEST PUSH2 0x130C PUSH1 0x40 DUP4 ADD DUP5 PUSH2 0xBAC JUMP JUMPDEST SWAP6 SWAP5 POP POP POP POP POP JUMP JUMPDEST PUSH1 0x0 DUP3 DUP3 MSTORE PUSH1 0x20 DUP3 ADD SWAP1 POP SWAP3 SWAP2 POP POP JUMP JUMPDEST PUSH1 0x0 PUSH2 0x1332 DUP4 DUP6 PUSH2 0x1315 JUMP JUMPDEST SWAP4 POP PUSH2 0x133F DUP4 DUP6 DUP5 PUSH2 0xE3F JUMP JUMPDEST PUSH2 0x1348 DUP4 PUSH2 0xD70 JUMP JUMPDEST DUP5 ADD SWAP1 POP SWAP4 SWAP3 POP POP POP JUMP JUMPDEST PUSH1 0x0 PUSH1 0x20 DUP3 ADD SWAP1 POP DUP2 DUP2 SUB PUSH1 0x0 DUP4 ADD MSTORE PUSH2 0x136E DUP2 DUP5 DUP7 PUSH2 0x1326 JUMP JUMPDEST SWAP1 POP SWAP4 SWAP3 POP POP POP JUMP JUMPDEST PUSH1 0x0 DUP1 REVERT JUMPDEST PUSH2 0x1385 DUP3 PUSH2 0xD70 JUMP JUMPDEST DUP2 ADD DUP2 DUP2 LT PUSH8 0xFFFFFFFFFFFFFFFF DUP3 GT OR ISZERO PUSH2 0x13A4 JUMPI PUSH2 0x13A3 PUSH2 0xFA5 JUMP JUMPDEST JUMPDEST DUP1 PUSH1 0x40 MSTORE POP POP POP JUMP JUMPDEST PUSH1 0x0 PUSH2 0x13B7 PUSH2 0x99C JUMP JUMPDEST SWAP1 POP PUSH2 0x13C3 DUP3 DUP3 PUSH2 0x137C JUMP JUMPDEST SWAP2 SWAP1 POP JUMP JUMPDEST PUSH1 0x0 DUP2 MLOAD SWAP1 POP PUSH2 0x13D7 DUP2 PUSH2 0xC62 JUMP JUMPDEST SWAP3 SWAP2 POP POP JUMP JUMPDEST PUSH1 0x0 DUP2 MLOAD SWAP1 POP PUSH2 0x13EC DUP2 PUSH2 0x9BA JUMP JUMPDEST SWAP3 SWAP2 POP POP JUMP JUMPDEST PUSH2 0x13FB DUP2 PUSH2 0xB9A JUMP JUMPDEST DUP2 EQ PUSH2 0x1406 JUMPI PUSH1 0x0 DUP1 REVERT JUMPDEST POP JUMP JUMPDEST PUSH1 0x0 DUP2 MLOAD SWAP1 POP PUSH2 0x1418 DUP2 PUSH2 0x13F2 JUMP JUMPDEST SWAP3 SWAP2 POP POP JUMP JUMPDEST PUSH2 0x1427 DUP2 PUSH2 0xF11 JUMP JUMPDEST DUP2 EQ PUSH2 0x1432 JUMPI PUSH1 0x0 DUP1 REVERT JUMPDEST POP JUMP JUMPDEST PUSH1 0x0 DUP2 MLOAD SWAP1 POP PUSH2 0x1444 DUP2 PUSH2 0x141E JUMP JUMPDEST SWAP3 SWAP2 POP POP JUMP JUMPDEST PUSH1 0x0 PUSH2 0x100 DUP3 DUP5 SUB SLT ISZERO PUSH2 0x1461 JUMPI PUSH2 0x1460 PUSH2 0x1377 JUMP JUMPDEST JUMPDEST PUSH2 0x146C PUSH2 0x100 PUSH2 0x13AD JUMP JUMPDEST SWAP1 POP PUSH1 0x0 PUSH2 0x147C DUP5 DUP3 DUP6 ADD PUSH2 0x13C8 JUMP JUMPDEST PUSH1 0x0 DUP4 ADD MSTORE POP PUSH1 0x20 PUSH2 0x1490 DUP5 DUP3 DUP6 ADD PUSH2 0x13DD JUMP JUMPDEST PUSH1 0x20 DUP4 ADD MSTORE POP PUSH1 0x40 PUSH2 0x14A4 DUP5 DUP3 DUP6 ADD PUSH2 0x1409 JUMP JUMPDEST PUSH1 0x40 DUP4 ADD MSTORE POP PUSH1 0x60 PUSH2 0x14B8 DUP5 DUP3 DUP6 ADD PUSH2 0x13DD JUMP JUMPDEST PUSH1 0x60 DUP4 ADD MSTORE POP PUSH1 0x80 PUSH2 0x14CC DUP5 DUP3 DUP6 ADD PUSH2 0x1435 JUMP JUMPDEST PUSH1 0x80 DUP4 ADD MSTORE POP PUSH1 0xA0 PUSH2 0x14E0 DUP5 DUP3 DUP6 ADD PUSH2 0x1409 JUMP JUMPDEST PUSH1 0xA0 DUP4 ADD MSTORE POP PUSH1 0xC0 PUSH2 0x14F4 DUP5 DUP3 DUP6 ADD PUSH2 0x13DD JUMP JUMPDEST PUSH1 0xC0 DUP4 ADD MSTORE POP PUSH1 0xE0 PUSH2 0x1508 DUP5 DUP3 DUP6 ADD PUSH2 0x13DD JUMP JUMPDEST PUSH1 0xE0 DUP4 ADD MSTORE POP SWAP3 SWAP2 POP POP JUMP JUMPDEST PUSH1 0x0 PUSH2 0x100 DUP3 DUP5 SUB SLT ISZERO PUSH2 0x152B JUMPI PUSH2 0x152A PUSH2 0x9A6 JUMP JUMPDEST JUMPDEST PUSH1 0x0 PUSH2 0x1539 DUP5 DUP3 DUP6 ADD PUSH2 0x144A JUMP JUMPDEST SWAP2 POP POP SWAP3 SWAP2 POP POP JUMP JUMPDEST PUSH32 0x52616E646F6D6E657373206661696C656420746F20536574746C650000000000 PUSH1 0x0 DUP3 ADD MSTORE POP JUMP JUMPDEST PUSH1 0x0 PUSH2 0x1578 PUSH1 0x1B DUP4 PUSH2 0xD35 JUMP JUMPDEST SWAP2 POP PUSH2 0x1583 DUP3 PUSH2 0x1542 JUMP JUMPDEST PUSH1 0x20 DUP3 ADD SWAP1 POP SWAP2 SWAP1 POP JUMP JUMPDEST PUSH1 0x0 PUSH1 0x20 DUP3 ADD SWAP1 POP DUP2 DUP2 SUB PUSH1 0x0 DUP4 ADD MSTORE PUSH2 0x15A7 DUP2 PUSH2 0x156B JUMP JUMPDEST SWAP1 POP SWAP2 SWAP1 POP JUMP JUMPDEST PUSH32 0x4E487B7100000000000000000000000000000000000000000000000000000000 PUSH1 0x0 MSTORE PUSH1 0x12 PUSH1 0x4 MSTORE PUSH1 0x24 PUSH1 0x0 REVERT JUMPDEST PUSH1 0x0 PUSH2 0x15E8 DUP3 PUSH2 0x9B0 JUMP JUMPDEST SWAP2 POP PUSH2 0x15F3 DUP4 PUSH2 0x9B0 JUMP JUMPDEST SWAP3 POP DUP3 PUSH2 0x1603 JUMPI PUSH2 0x1602 PUSH2 0x15AE JUMP JUMPDEST JUMPDEST DUP3 DUP3 MOD SWAP1 POP SWAP3 SWAP2 POP POP JUMP JUMPDEST PUSH32 0x4E487B7100000000000000000000000000000000000000000000000000000000 PUSH1 0x0 MSTORE PUSH1 0x11 PUSH1 0x4 MSTORE PUSH1 0x24 PUSH1 0x0 REVERT JUMPDEST PUSH1 0x0 PUSH2 0x1648 DUP3 PUSH2 0x9B0 JUMP JUMPDEST SWAP2 POP PUSH2 0x1653 DUP4 PUSH2 0x9B0 JUMP JUMPDEST SWAP3 POP DUP3 DUP3 ADD SWAP1 POP DUP1 DUP3 GT ISZERO PUSH2 0x166B JUMPI PUSH2 0x166A PUSH2 0x160E JUMP JUMPDEST JUMPDEST SWAP3 SWAP2 POP POP JUMP JUMPDEST PUSH1 0x0 DUP2 SLOAD PUSH2 0x167E DUP2 PUSH2 0x1003 JUMP JUMPDEST PUSH2 0x1688 DUP2 DUP7 PUSH2 0xD35 JUMP JUMPDEST SWAP5 POP PUSH1 0x1 DUP3 AND PUSH1 0x0 DUP2 EQ PUSH2 0x16A3 JUMPI PUSH1 0x1 DUP2 EQ PUSH2 0x16B9 JUMPI PUSH2 0x16EC JUMP JUMPDEST PUSH1 0xFF NOT DUP4 AND DUP7 MSTORE DUP2 ISZERO ISZERO PUSH1 0x20 MUL DUP7 ADD SWAP4 POP PUSH2 0x16EC JUMP JUMPDEST PUSH2 0x16C2 DUP6 PUSH2 0x1034 JUMP JUMPDEST PUSH1 0x0 JUMPDEST DUP4 DUP2 LT ISZERO PUSH2 0x16E4 JUMPI DUP2 SLOAD DUP2 DUP10 ADD MSTORE PUSH1 0x1 DUP3 ADD SWAP2 POP PUSH1 0x20 DUP2 ADD SWAP1 POP PUSH2 0x16C5 JUMP JUMPDEST DUP1 DUP9 ADD SWAP6 POP POP POP JUMPDEST POP POP POP SWAP3 SWAP2 POP POP JUMP JUMPDEST PUSH1 0x0 PUSH1 0x60 DUP3 ADD SWAP1 POP DUP2 DUP2 SUB PUSH1 0x0 DUP4 ADD MSTORE PUSH2 0x170F DUP2 DUP7 PUSH2 0x1671 JUMP JUMPDEST SWAP1 POP PUSH2 0x171E PUSH1 0x20 DUP4 ADD DUP6 PUSH2 0xB34 JUMP JUMPDEST PUSH2 0x172B PUSH1 0x40 DUP4 ADD DUP5 PUSH2 0xD1B JUMP JUMPDEST SWAP5 SWAP4 POP POP POP POP JUMP INVALID LOG2 PUSH5 0x6970667358 0x22 SLT KECCAK256 BLOBHASH SWAP11 CALLDATACOPY PUSH3 0xD59917 SWAP10 EXTCODEHASH 0xAF 0xF7 0xAC 0xBA PUSH6 0xC55C05605ADE 0xC5 0xAB 0xF9 SWAP11 CALLCODE EXP STOP 0xBF 0x28 SWAP15 0xD8 0xDD PUSH5 0x736F6C6343 STOP ADDMOD XOR STOP CALLER "},"methodIdentifiers":{"SWITCHBOARD()":"2fd140ee","SWITCHBOARD_QUEUE()":"1e1508fa","diceResults(uint256)":"42e568da","getDiceStatus(uint256)":"2537958c","owner()":"8da5cb5b","requestDiceRoll(uint256,string)":"1ca7e346","requests(bytes32)":"9d866985","roundRequested(uint256)":"365c123d","settleAndFulfill(bytes,bytes32)":"59ed054d"}}}}}