{
  "_format": "hh-sol-artifact-1",
  "contractName": "SimpleCounter",
  "sourceName": "contracts/SimpleCounter.sol",
  "abi": [
    {
      "anonymous": false,
      "inputs": [
        {
          "indexed": false,
          "internalType": "uint256",
          "name": "newCount",
          "type": "uint256"
        },
        {
          "indexed": true,
          "internalType": "address",
          "name": "sender",
          "type": "address"
        }
      ],
      "name": "Incremented",
      "type": "event"
    },
    {
      "inputs": [],
      "name": "count",
      "outputs": [
        {
          "internalType": "uint256",
          "name": "",
          "type": "uint256"
        }
      ],
      "stateMutability": "view",
      "type": "function"
    },
    {
      "inputs": [],
      "name": "getCount",
      "outputs": [
        {
          "internalType": "uint256",
          "name": "",
          "type": "uint256"
        }
      ],
      "stateMutability": "view",
      "type": "function"
    },
    {
      "inputs": [],
      "name": "increment",
      "outputs": [],
      "stateMutability": "nonpayable",
      "type": "function"
    }
  ],
  "bytecode": "0x608060405234801561001057600080fd5b506101d3806100206000396000f3fe608060405234801561001057600080fd5b50600436106100415760003560e01c806306661abd14610046578063a87d942c14610064578063d09de08a14610082575b600080fd5b61004e61008c565b60405161005b919061011f565b60405180910390f35b61006c610092565b604051610079919061011f565b60405180910390f35b61008a61009b565b005b60005481565b60008054905090565b60016000808282546100ad9190610169565b925050819055503373ffffffffffffffffffffffffffffffffffffffff167f6312957b833157dbcce860c9538737febb9491fde39563488a9c296f930376ed6000546040516100fc919061011f565b60405180910390a2565b6000819050919050565b61011981610106565b82525050565b60006020820190506101346000830184610110565b92915050565b7f4e487b7100000000000000000000000000000000000000000000000000000000600052601160045260246000fd5b600061017482610106565b915061017f83610106565b92508282019050808211156101975761019661013a565b5b9291505056fea264697066735822122057c3c8367216d2e5d83bff2e342e26aedd898e4d5dafa90b269b7e2fa5a6cdef64736f6c63430008140033",
  "linkReferences": {},
  "deployedLinkReferences": {}
}